:020000040800F2
:1000000050120120A1020008EB440008194000082A
:10001000E944000815090008CF500008000000005E
:10002000000000000000000000000000854A0008F9
:10003000ED0F000800000000ED440008874A0008AA
:10004000BB020008BB020008BB020008BB0200089C
:10005000BB020008BB020008BB020008BB0200088C
:10006000BB020008BB020008BB020008BB0200087C
:10007000BB020008BB020008BB020008BB0200086C
:10008000BB020008BB020008E1070008BB02000831
:10009000BB020008F50F0008BB020008BB02000805
:1000A000BB020008054B0008BB020008BB020008A9
:1000B000BB020008BB020008BB020008BB0200082C
:1000C000BB020008BB020008BB020008BB0200081C
:1000D000BB020008BB020008BB020008BB0200080C
:1000E000BB020008BB020008BB020008BB020008FC
:1000F000BB020008BB020008BB020008BB020008EC
:10010000BB020008BB020008BB020008BB020008DB
:10011000BB020008BB020008BB020008BB020008CB
:10012000BB020008BB020008BB020008BB020008BB
:10013000BB020008BB020008BB020008BB020008AB
:10014000BB020008BB020008BB020008BB0200089B
:10015000BB020008BB020008BB020008BB0200088B
:10016000BB020008BB020008BB020008BB0200087B
:10017000BB020008BB020008BB020008BB0200086B
:10018000BB020008BB020008BB020008BB0200085B
:10019000BB02000800000000BB020008BB02000810
:1001A000BB020008BB020008BB020008BB0200083B
:1001B000BB020008BB020008BB020008BB0200082B
:1001C000BB020008BB020008BB020008BB0200081B
:1001D000BB020008BB02000800F002F800F050F873
:1001E0000AA090E8000C82448344AAF10107DA4592
:1001F00001D100F045F8AFF2090EBAE80F0013F094
:10020000010F18BFFB1A43F001031847DC7B000005
:10021000FC7B00000A4410F8014B14F00F0508BFE6
:1002200010F8015B240908BF10F8014B6D1E05D0C2
:1002300010F8013B6D1E01F8013BF9D1641E03D09B
:10024000641E01F8015BFBD19142E4D370470000CA
:100250000023002400250026103A28BF78C1FBD8CF
:10026000520728BF30C148BF0B6070471FB507F069
:10027000F4FC9DE8030000F057F91FBD10B510BD58
:1002800000F02CFA1146FFF7F1FF06F007F800F036
:100290004AFA03B4FFF7F2FF03BC00F07BFA000058
:1002A0000948804709480047FEE7FEE7FEE7FEE70A
:1002B000FEE7FEE7FEE7FEE7FEE7FEE70448054946
:1002C000054A064B70470000F54A0008D9010008AE
:1002D000600E002050120120500E0120500E01200F
:1002E00070B5064600F004F9056806F10B0020F031
:1002F0000704B4429CBF002070BD2B466A68BAB1A7
:100300001068A04210D304F1080188423CBF506835
:10031000586007D35168101941601168091B0160CA
:1003200058601460101D70BD13465268002AE7D152
:100330002146284600F0E4F80028DED170BD70B5F3
:100340000446051F00F0D4F80068002C14BF446870
:1003500070BD002C18BFAC423CBF20466468F8D387
:1003600001680A18AA4218BF456003D12A680546E9
:100370001144016028684119A1421CBF6C6070BD26
:100380006168696021680844286070BD032A40F2F2
:10039000308010F0030C00F0158011F8013BBCF127
:1003A000020F624498BF11F801CB00F8013B38BF3F
:1003B00011F8013BA2F1040298BF00F801CB38BF4D
:1003C00000F8013B11F0030300F0EF80083AC0F0A1
:1003D000088051F8043B083A51F804CBA0E8081013
:1003E000F5E7121D5CBF51F8043B40F8043BAFF346
:1003F0000080D20724BF11F8013B11F801CB48BFA0
:1004000011F8012B24BF00F8013B00F801CB48BFD5
:1004100000F8012B7047431A28BF9A427FF6B6AF07
:10042000032A1044114440F2268010F0030F1EBF2F
:1004300011F8013D521E00F8013D10F0030F7FF44A
:10044000F6AF11F0030300F0F580083AC0F00B801E
:1004500051F8043D083A51F804CD40F8043D40F805
:1004600004CDFFF7F3BF121D5CBF51F8043D40F807
:10047000043DAFF30080D20724BF11F8013D11F80D
:1004800001CD48BF11F8012C24BF00F8013D00F850
:1004900001CD48BF00F8012C70474FF0000200B5B5
:1004A000134694469646203922BFA0E80C50A0E897
:1004B0000C50B1F12001BFF4F7AF090728BFA0E845
:1004C0000C5048BF0CC05DF804EB890028BF40F811
:1004D000042B08BF704748BF20F8022B11F0804F53
:1004E00018BF00F8012B7047704770477047000035
:1004F00000487047080E00207047704770477047EB
:1005000038B504460A4600206946AFF3008000284B
:1005100008BF38BD02460099204600F0BDF8012012
:1005200038BD012000F0D2B8F8B5AFF30080054621
:1005300000200C46102000BF0646A819A0420DD985
:10054000324669460020AFF30080070008BF00F084
:10055000BDF80098A04218BF0546C419FFF7C8FFB0
:1005600005600746F01D20F007004619284600F0F8
:100570000AF8B44208BFF8BDA21B31463868BDE88E
:10058000F84000F089B800210160C0E9011070470F
:100590001020704710B500F07BF8006810BD10B552
:1005A000044600F075F8046010BD10B5203AC0F0A4
:1005B0000B80B1E81850203AA0E81850B1E8185064
:1005C000A0E81850BFF4F5AF5FEA027C24BFB1E8A1
:1005D0001850A0E8185044BF18C918C0BDE8104012
:1005E0005FEA827C24BF51F8043B40F8043B08BF1B
:1005F0007047D20728BF31F8023B48BF11F8012BE2
:1006000028BF20F8023B48BF00F8012B7047431A6F
:1006100028BF9A427FF6C9AF104410F0030F11446F
:100620001EBF11F8013D521E00F8013D10F0030FEE
:100630007FF4F6AF103AC0F00A8010B531E91850D7
:10064000103A20E91850BFF4F9AFBDE81040530745
:1006500024BF31E9081020E9081044BF51F8043DD7
:1006600040F8043D12F0030F08BF7047D20728BFBF
:1006700031F8023D48BF11F8012C28BF20F8023D97
:1006800048BF00F8012C704700487047000E00205A
:1006900000487047000E0020034640688C46002842
:1006A00018BF88423CBF03464068F8D31868184416
:1006B000884207D00CF1030020F00700001D411A0A
:1006C000521A0146081D0A60FFF739BE10B500F046
:1006D00039F8BDE8104000F02FB870477546FFF7B5
:1006E000D3FFAE4605006946534620F00700854615
:1006F00018B020B5FFF7E2FDBDE820404FF000063E
:100700004FF000074FF000084FF0000B21F00701F9
:10071000AC46ACE8C009ACE8C009ACE8C009ACE83C
:10072000C0098D46704710B50446AFF300802046DF
:10073000BDE81040FFF7ADBD002801D000F02AB899
:100740007047000010B5012805D0002103A000F07B
:1007500027F8012010BD09A1F8E7000053494752CE
:10076000544D454D3A204F7574206F662068656181
:1007700070206D656D6F7279000000003A20486549
:100780006170206D656D6F727920636F7272757024
:100790007465640001491820ABBEFEE72600020024
:1007A00070B505460C460A2000E06D1C00F011F8FB
:1007B00035B128780028F8D102E0641C00F009F86F
:1007C00014B120780028F8D1BDE870400A20AFF3BA
:1007D000008008B569468DF800000320ABBE08BD57
:1007E00010B5184801F032F8174C206820B3174CA8
:1007F000D4F8500204F514748047C4F834026068D9
:100800008047C4F83802E268D4F8A811D4F834025A
:10081000904784ED0C0A2269D4F8AC11D4F8380260
:10082000904784ED0B0AD4ED0C0A30EE800AB1EE4D
:10083000400A84ED0A0A10BD044806F0BBF92060A6
:1008400010BD0000F006002004000020600200201F
:10085000F8B50446002000902068816811F0010F6F
:100860004AD18168254A114237D18168D543294050
:10087000491C81602068B0F1A04F02D02049884215
:1008800001D1204800E02048806800F0E0700002BC
:100890000DD51E481E490068B0FBF1F0401C00EB6E
:1008A0004000800000E0401E00900028FBD101F0D5
:1008B0005BFE06461BE0816811F0010F03D18168E1
:1008C0002940491C816001F04FFE801B02280ED98F
:1008D00020680068C043C00709D0E06D40F01000F8
:1008E000E065206E40F0010020660120F8BD206820
:1008F0000168C943C907DED10020F8BD3F00008070
:100900000001005000030050000700501C000020B0
:10091000400D0300FEE7000010B52DED048BB0EE96
:10092000608AB0EE409AF0EE418A9FED110B04F020
:10093000E3FE51EC100B06F08BFBB0EE001AF0EE6C
:10094000480A00EE100A59EE010AB0EE081A0A48E9
:1009500070EEE80AC0EE811A78EE680A80EE801A1E
:10096000C0ED001A80ED011ABDEC048B10BD000033
:10097000000000000000084034010020F7EE001ADB
:1009800021EE000A31EEC11A01EE200A704770EE26
:10099000600A00B5C0ED050A90ED020AF0EE411ABA
:1009A00000EEA10A80ED020A90ED0B1AD0ED0A0AC2
:1009B00003F068FBF0EE400AC0ED020A90ED050A74
:1009C00090ED071A30EE412A82EE211AD0ED001A7E
:1009D00021EE800AD0ED011A01EEA00AD0ED040A42
:1009E00000EE810A80ED060A90ED0E1AD0ED0D0A98
:1009F00003F048FB80ED060AD0ED050AC0ED070ABA
:100A000000BD30EE600AF0EE412A00B5B4EEC20A35
:100A100080ED050AF1EE10FA0ADBB4EEE10AF1EE20
:100A200010FA05D8D0ED020A40EE220AC0ED020A03
:100A300090ED0B1AD0ED0A0A90ED020A03F022FBAA
:100A4000F0EE400AC0ED020A90ED050A90ED071A9B
:100A500070EE411A81EEA21AD0ED001A21EE800A42
:100A6000D0ED011A01EEA00AD0ED040A00EE810AD1
:100A700080ED060A90ED0E1AD0ED0D0A03F002FB90
:100A800080ED060AD0ED050AC0ED070A00BD0000A2
:100A900010B52DED088BB0EE418AF0EE608AB0EE15
:100AA000409A18EE100A07F067F841EC100B04F0BA
:100AB000BFFDB0EE40AAF0EE60AA18EE900A07F073
:100AC0005BF853EC1A2B06F097FD41EC1A0B18EE6D
:100AD000100A07F051F841EC100B04F045FDB0EEA0
:100AE00040BAF0EE60BA19EE100A07F045F853EC80
:100AF0001B2B06F081FD53EC1A2B06F0DBFA06F0F7
:100B0000A7FA1E4C206018EE100A07F035F841ECE9
:100B1000100B04F029FDB0EE40AAF0EE60AA18EE2A
:100B2000900A07F029F853EC1A2B06F065FD41EC0A
:100B30001A0B18EE100A07F01FF841EC100B04F026
:100B400077FDB0EE401AF0EE601AB1EE490AB0EE51
:100B5000418AF0EE618A10EE100A07F00DF853ECAE
:100B6000182B06F049FD53EC1A2B06F0A3FA06F0F9
:100B70006FFA60602046BDEC088B10BD3C01002080
:100B800010B52DED088BB0EE418AF0EE608AB0EE24
:100B9000409A18EE100A06F0EFFF41EC100B04F03B
:100BA00047FDB0EE40AAF0EE60AA19EE100A06F07A
:100BB000E3FF53EC1A2B06F01FFD41EC1A0B18EE65
:100BC000100A06F0D9FF41EC100B04F0CDFCB0EE9A
:100BD00040BAF0EE60BA18EE900A06F0CDFF53EC82
:100BE0001B2B06F009FD53EC1A2B06F0DBFE06F07A
:100BF0002FFA1B4C206018EE100A06F0BDFF41ECE6
:100C0000100B04F015FDB0EE40AAF0EE60AA18EE4D
:100C1000900A06F0B1FF53EC1A2B06F0EDFC41EC04
:100C20001A0B18EE100A06F0A7FF41EC100B04F0A7
:100C30009BFCB0EE408AF0EE608A19EE100A06F0D6
:100C40009BFF53EC182B06F0D7FC53EC1A2B06F045
:100C500031FA06F0FDF960602046BDEC088B10BD4E
:100C60002C010020B0EE401A00B5B5EEC01A36488F
:100C7000F1EE10FA0CDDF5EEC00AF1EE10FA07DD28
:100C800080EE810A10EE101A814201DA012000BDC7
:100C9000F5EEC00AF1EE10FA0BDDB0EE410A05F0F8
:100CA000CFFDC0EE801A11EE901A814201DD0220C4
:100CB00000BDB5EEC01AF1EE601AF1EE10FA0CD2DA
:100CC000F5EEC00AF1EE10FA07DD81EE810A10EEB2
:100CD000101A814201DA032000BDB5EEC01AF1EE10
:100CE00010FA0CD2F5EEC00AF1EE10FA07D280EE3F
:100CF000810A10EE101A814201DA042000BDF5EEDF
:100D0000C00AF1EE10FA0BD2B0EE410A05F098FDE0
:100D100081EE802A12EE101A814201DD052000BD0D
:100D2000B5EEC01AF1EE10FA0CDDF5EEC00AF1EEE8
:100D300010FA07D281EE810A10EE101A814201DA10
:100D4000062000BD002000BDD7B3DD3F00EE801AB5
:100D5000B0EE410A03F0A6B9B7EE002AC2EE201A9F
:100D600000EE211AB0EE410A03F09CB9B5EEC01AAC
:100D7000F1EE10FA02D89FED140A704770EE601A77
:100D80001249F0EEE12A12EE900A884217DDF5EEE4
:100D9000C01ADFED0F2AF1EE10FA04D272EEE00A6B
:100DA00030EE800A08E0F5EEC01AF1EE10FA08DB2A
:100DB00030EE620A30EE600A80EE012A01E081EE38
:100DC000812AB0EE420A7047000000007CD9A040A2
:100DD000DB0FC94010B5194C00224021204601F01C
:100DE000BDFB642000F0EAFF01224021204601F013
:100DF000B5FB642000F0E2FF00228021204601F0D4
:100E0000ADFBC82000F0DAFF0DA1002003F004FCC8
:100E100000F04CF818A1002003F0FEFB0122802115
:100E2000204601F09BFB01224021204601F096FB69
:100E3000BDE81040C82000F0C1BF00000004004819
:100E40004452563833355820496E69743A205570EB
:100E5000646174696E6720636F6E6669677572613D
:100E600074696F6E20706172616D65746572732E46
:100E70002E2E0A0D000000004452563833355820FB
:100E8000496E69743A20436F6E6669677572617462
:100E9000696F6E20706172616D6574657273207523
:100EA0007064617465642E0A0D00000070B5022044
:100EB00005F0DCFC3C4CE081062005F0D7FC6080AE
:100EC000072005F0D3FC2080032005F0CFFC208113
:100ED000042005F0CBFCE080052005F0C7FCA080D5
:100EE000002005F0C3FC6081012005F0BFFCA0815B
:100EF00062882EA1002003F08FFB374DE18928780E
:100F000060F34611E181022006F068F8287A218911
:100F100060F30711687A60F30301A87A60F30A218D
:100F20002181032006F05AF8E87AE18860F3030192
:100F3000287B60F30711687B60F30921A87B60F3CD
:100F40008A21E180042006F049F82879A18860F31D
:100F50000301687960F30511A87960F38711E879D6
:100F600060F30921A180052006F038F868786688CA
:100F700060F30106A87860F38716E87860F34926E5
:100F800066803146062006F029F8324613A100207B
:100F900003F042FB062005F069FCBDE87040024604
:100FA00002A1002003F038BBF00D002073747275AD
:100FB0005F445256383335334F626A2E647276433B
:100FC00073615F6F626A2E64617461203D203078C6
:100FD000253034580A0D000051020020646174610C
:100FE000203D203078253034580A0D00704772B605
:100FF000FEE7000010B58CB00A4800F07EFF002428
:101000000A940AAB6A46402106480B9400F0EAFEB7
:10101000002805D004480AA90475684604F0C0FFFA
:101020000CB010BD5C0700202009002070470000B4
:101030002DE9F84F4FF000090446CDF800900D4619
:1010400094F85820DFF8EC8361694F464846012A3E
:101050000AD00126F84A84F8586041B1296A01296A
:1010600005D0A36EEBB129E00220BDE8F88F6868D7
:10107000092838D1A96A4FF4785041B12B6801F0A2
:101080007C0100EA53400843E96A084302E029680A
:1010900000EA51402368D96C11400143D96460666D
:1010A00021E0C4E91971A96A286A31B101F07C0113
:1010B000401E0843E96A084300E0401E29682B7976
:1010C000C1F3846103F01F0399400143A06E401EE9
:1010D000A066636E43EA0103636604D12168C86CAD
:1010E00010401843C864206802F0A1FF58B995F871
:1010F000250098B12068C16895F8262021F4401198
:1011000041EA4251C160206802F099FF824620689E
:1011100002F08DFF5AEA00000DD0FCE095F82600A1
:1011200095F82410400540EA01512068C26822F475
:1011300040121143E6E7A86A30B1E86A20B195F899
:10114000250001285ED003E095F82500012804D091
:101150002068C16821F0007103E02068C16841F097
:101160000071C16095F83000012852D020680169F3
:1011700021F002010161AA6829682068B2F1004FDC
:1011800038D002F068FF2068416921F000414161D8
:1011900020686969C268C2F3C102520091402A699D
:1011A000042A45D000EB82002B68026EDFF88CC267
:1011B00003F0F84302EA0C020B431A4342F00041E9
:1011C000016620682A69A96900EB8200026E22F09C
:1011D00080720A430266297F22682869012924D087
:1011E0005FF0000102EB8000026E22F000720A4301
:1011F000026690E0002202F02EFF2068416941F073
:101200000041C4E7E06D40F02000E0654FF00109C7
:10121000A8E7D5E90D01084321680A6922F4FF72A5
:1012200042F0020210430861A5E74FF00071D9E7D0
:10123000002102F0F2FE400320684FF0000172D05E
:1012400002F0EBFE90FAA0F0B0FA80F128684203B9
:101250006ED090FAA0F0B0FA80F0814204D1002262
:101260001146206802F006FF0121206802F0D5FE39
:10127000400320684FF001015DD002F0CEFE90FAED
:10128000A0F0B0FA80F12868420359D090FAA0F09B
:10129000B0FA80F0814204D100220121206802F0DE
:1012A000E9FE0221206802F0B8FE400320684FF0FA
:1012B000020148D002F0B1FE90FAA0F0B0FA80F13D
:1012C0002868420344D090FAA0F0B0FA80F081423E
:1012D00004D100220221206802F0CCFE0321206804
:1012E00002F09BFE400320684FF0030133D002F070
:1012F00094FE90FAA0F0B0FA80F1286842032FD053
:1013000090FAA0F0B0FA80F0814204D100220321CB
:10131000206802F0AFFE2068816811F0010F22D032
:10132000B5E000E004E002F078FEC0F384618DE7F0
:10133000C0F3846091E702F070FEC0F38461A2E71D
:10134000C0F38460A6E702F068FEC0F38461B7E7EB
:10135000C0F38460BBE702F060FEC0F38461CCE7B9
:10136000C0F38460D0E72A7B296850F8B03FC1F30E
:10137000120C23EA0C0302F0180C314A22FA0CF288
:101380000A4013430360E96841457DD12868410361
:101390001BD090FAA0F1B1FA81F1491C01F01F01B4
:1013A00009294FEA403131D8002911D090FAA0F133
:1013B000B1FA81F101F1010101F01F0106FA01F614
:1013C00009D100BFC0F3846109E0C0F38461E4E7A0
:1013D000C0F38461EEE790FAA0F1B1FA81F101F176
:1013E000010101F01F0146EA816102D1C0F384606E
:1013F00003E090FAA0F0B0FA80F000F1010000F0F4
:101400001F0000EB400041EA00513AE000290ED0F5
:1014100090FAA0F1B1FA81F101F1010101F01F018F
:1014200006FA01F60ED100BFC0F384610EE0C0F3EE
:101430008461F1E700007F400040100400F0FF03EA
:10144000FFFF070090FAA0F1B1FA81F101F101016B
:1014500001F01F0146EA816102D1C0F3846003E01C
:1014600090FAA0F0B0FA80F000F1010000F01F0047
:101470003A4A00EB400002EB005041EA000141F023
:101480000071AA68206800E001E002F0E4FD344841
:101490002B6803425ED022684FF0A04C3148324E98
:1014A000324D624501D0AA4201D1014600E03146E9
:1014B0008968DFF8BC8001F0E071434503D0DFF8B4
:1014C000B480434520D15FEA01281DD4624505D090
:1014D000294B9A423ED1AA4200D0304641F4000145
:1014E000826822F0E0720A4382602448244900683E
:1014F000B0FBF1F0801C00EB4000800000E0401EDB
:1015000000900028FBD125E0DFF8788043450FD11B
:101510005FEAC1180CD4AA4202D11B4B9A4219D0DF
:10152000624502D0AA4200D0304641F080710CE002
:10153000DFF8588043450DD14B020BD4AA4209D0A5
:10154000624500D0304641F48001826822F0E072AA
:101550000A43826084F85870484686E5000020FE01
:1015600000000880000300500007005000010050F8
:10157000000021C31000C090000600501C00002095
:10158000400D0300000052C700050050000084CB4E
:1015900070470068A1F580710F390ED0B1F5837FD7
:1015A00008D0B1F5037F02D0D0F880007047D0F8A2
:1015B0008C007047D0F888007047D0F884007047DE
:1015C000704700002DE9F041044600684FF0A04547
:1015D0003E4FA84201D0B84201D13D4900E03D490B
:1015E000896801F01F0602F022FD08BB2168C86867
:1015F000C96C00F0004011F4C07F00D190B194F8A4
:101600005800012814D0012084F858002046FFF724
:101610001FF901004FF000020CD084F85820084652
:10162000BDE8F081E06D40F02000E0650120F7E7C3
:101630000220F5E7E06DC00504D5206E20F008001B
:10164000206600E02266E06D42F20103984340F418
:101650008050E0652068204BDFF880C0B84201D19F
:10166000AE4604E0984201D1E64600E08646864553
:1016700000D02EB9D4F85CE02EF4801EC4F85CE0F3
:101680004FF0600EC0F800E084F858202068B8429F
:1016900004D0984201D1654600E00546854209D054
:1016A00046B1062E06D0072E04D0E06D40F480101F
:1016B000E065B4E7C26812F0007FB0D18268084BE1
:1016C0001A4042F008028260A9E7000000010050C1
:1016D00000030050000700500005005000040050B7
:1016E000C0FFFF7F704770472DE9F04F044690F828
:1016F00058009BB00F464FF0000B012812D001207C
:1017000084F8580000261796189620684FF0A048D5
:10171000DFF81C91DFF81CA1474D404506D1284653
:10172000009508E002201BB0BDE8F08F48450AD1C3
:101730005046CDF800A002F082FC0090206802F034
:101740007EFC40B109E0E06D40F02000E06584F8E7
:1017500058600120E7E7009850B1E06D40F02000AC
:10176000E0654FF0010B00BF84F858605846DAE797
:1017700020684146884201D0A84201D12F4800E0AC
:101780002F48D7F800C02F4B40F61F72BCF1000F56
:101790002DD0D0F808C094F838802CF4604C4CEA76
:1017A000483CD7F804804CEA080CC0F808C0D4F8CC
:1017B00000C08C4501D0AC4504D18968AB6801F00C
:1017C000010109E0D9F80810DAF8085001F0010128
:1017D00005F001059B68294303F001031943C3D1B8
:1017E000BB68396819438368934319431DE08768D0
:1017F00027F46047876027688F4201D0AF4204D149
:101800008968AB6801F0010109E0D9F80810DAF83D
:10181000085001F0010105F001059B68294303F020
:1018200001031943A0D18168914381609CE70000C6
:10183000000400500005005000010050000300505B
:101840000007005000060050704770472DE9F84F20
:1018500004460068066845684FF0A048DFF890929B
:10186000404501D0484501D1A24800E0A248806827
:1018700000F01F07B0070ED5A8070CD5E06DC00615
:1018800003D4E06D40F40060E0652046FFF7CEFB36
:10189000216802200860DFF864B2DFF864A27007F4
:1018A00001D5680703D430073FD528073DD5E06D43
:1018B000C00603D4E06D40F40070E065206802F0DB
:1018C000C2FB60B32068484501D1424604E0584558
:1018D00001D1524600E00246824208D03FB1052FB6
:1018E00005D0092F03D0484503D1414606E0C16821
:1018F00005E0584501D1514600E00146C968890418
:101900000DD4016809070AD502F095FB58B3E06DC4
:1019100040F01000E065206E40F001002066204697
:10192000FFF792FF21680C200860B00601D5A806D9
:1019300003D470065FD568065DD5E06DC00603D49C
:10194000E06D40F40050E0652068C16C11F4C07F88
:101950001AD00021009102F076FB0246206848452B
:1019600014D1434617E02068416821F00C01416022
:10197000E06D20F48070E065E06DC004CFD4E06DD0
:1019800040F00100E065CAE70121E3E7584501D1D5
:10199000534600E00346834208D03FB1062F05D0EE
:1019A000072F03D0484503D1414606E0C16805E052
:1019B000584501D1514600E00146C968009BA3B1DA
:1019C0008B0102D58AB18A040FD4026852060CD565
:1019D00089020AD402F027FBF0B3E06D40F010005A
:1019E000E065206E40F0010020662046FFF7D0FD44
:1019F00021686020086030060BD5280609D5E06D07
:101A000040F48030E065204600F094F921688020A1
:101A10000860F0050CD5E8050AD5E06D40F400300B
:101A2000E0652046FFF75EFE21684FF48070086095
:101A3000B0050CD5A8050AD5E06D40F48020E0651E
:101A40002046FFF750FE21684FF400700860F00652
:101A500031D5E8062FD500E009E0E06BE8B1206859
:101A6000EFB3404501D0484512D1224811E020682B
:101A7000416821F060014160E06D20F48050E06534
:101A8000E06DC005B1D4E06D40F00100E065ACE769
:101A90001948806800F4604050B1E06D40F4806007
:101AA000E065206E40F0020020662046FFF7CDFE84
:101AB000216810200860700517D5680515D5E06D00
:101AC00040F48040E065206E40F008002066216808
:101AD0004FF4806008602046BDE8F84F00E001E068
:101AE000FFF76EBDC068C007D6E7BDE8F88F0000FD
:101AF0000001005000030050000700500005005096
:101B000000040050F8B54FF0000504002E46009583
:101B100002D0E06D10B107E00120F8BD204600F0D2
:101B20000BF9266684F8586020688168C1F340711B
:101B300019B18168734A1140816020688168C1F3DE
:101B4000007189B98168704A114041F0805181600B
:101B50006E486F490068B0FBF1F04000801C00E067
:101B6000401E00900028FBD120688168C1F30071FD
:101B700041B9E16D41F01001E165216E41F00101D3
:101B80002166012502F057FAE16DC90600D430B193
:101B9000E06D40F01000E06501252846F8BDE06DDD
:101BA00020F4807040F00200E0652068816811F048
:101BB000010F27D14FF0A043564A984201D09042DE
:101BC00004D19968966801F001010AE052498968D8
:101BD000524E01F00101B66806F001063143504E45
:101BE000B66806F0010631430CD1984201D090420C
:101BF00001D14C4800E04C486168826822F47C12B4
:101C00000A438260E168E06B627F0843A16841EAB1
:101C10004231084394F8241040EA0140012904D1DC
:101C2000218D424A02EB41410843E16A29B101F4A6
:101C30007871226B014342EA01002268D1683C4B73
:101C400019400143D16020680169626B21F0406155
:101C500011430161206802F0E6F970BB207F94F81F
:101C600038102268800340EA4100D16844F2020340
:101C700099430143D16020690028206801690AD096
:101C800041F480310161206850F8C01F22696FF370
:101C90000D01114307E021F480310161206850F803
:101CA000C01F6FF30D01016094F8400001280CD0B3
:101CB0002068016921F00101016160690128206843
:101CC000016B21F00F0111D013E0D4E91101084399
:101CD000D4E913121143084321680A6940F2FC73E6
:101CE0009A43104340F001000861E6E7226A521E61
:101CF00011430163E06D20F0020040F00100E06557
:101D00004BE70000C0FFFF5FC0FFFF7F1C0000200B
:101D1000400D030000010050000400500005005079
:101D20000006005000030050000700500000FEFFB6
:101D30000740F0FF7047000010B59CB00446142126
:101D400015A8FEF7AAFB54216846FEF7A6FB2068FB
:101D5000B0F1A04F2ED14FF40040009080031190BD
:101D6000684600F0FFFC08B1FFF741F91248C16C6A
:101D700041F40051C164C16C01F400511A91C16C6D
:101D800041F00101C164C06C15A900F001001A9076
:101D90000720159003201690002017904FF09040D8
:101DA00000F0B8FA00221146122000F043FC122085
:101DB00000F032FC1CB010BD0010024070B50446AB
:101DC00000F0D2FB0546601C02D004484068044481
:101DD00000F0CAFB401BA042FAD370BD10000020E7
:101DE00070477047F0B590F85C400025022C03D096
:101DF000016E41F0080160E00468402946D0D4F843
:101E00009860360756D0D4F89860F60104D5D4F817
:101E10008060F60500D50125D4F89840C4F301246C
:101E20006619C46C06EBC60504EBC504256815F0FD
:101E300080455560256843D025F0604515602568CC
:101E40002C4F05F00055956020CC05F0004515613C
:101E500034F8045BADB2D56154F8045CC5F30345B6
:101E6000D56054F8045C05F48015556154F8045CA1
:101E700005F40015956154F8045CC5F30665156218
:101E800054F8045CED0F5562002522E0D4F8906010
:101E900036070FD0D4F89060F60104D5D4F88060EE
:101EA000B60500D50125D4F89040C4F30124661985
:101EB000846CB7E7016E41F4807101660120F0BDCA
:101EC000C5F38A45BAE700BF14F805C003F805C09A
:101ED0006D1CD2F80CC017F80CC0AC45F4D80068E3
:101EE000402903D0C0F89C600020F0BDC0F8946089
:101EF000FAE700006E7C000870472DE9F05F0446A9
:101F00000068016D426D01F4E05102EA0108016DC3
:101F1000426D01F0070102EA0109016D426D01F015
:101F2000380102EA010A016D476D01F471010F40A9
:101F3000016D426D01F46021456D02EA010B016DF6
:101F4000CE43710607D4E943490604D44021016514
:101F50002046FFF7D1FFF0050ED4E843C0050BD4AF
:101F60002068D0F8D820D0F8E01011404FF48072EB
:101F70000265204600F0CAF9B8F1000005D02168DA
:101F800008654146204600F0C3F9B9F1000005D0CC
:101F9000216808654946204600F0B4F9BAF100000E
:101FA00005D0216808655146204600F0ACF9B0051F
:101FB00009D4E843800506D421684FF40070086511
:101FC000204600F0A6F930060DD4E84300060AD4F6
:101FD0002068D0F8D420D0F8DC10114080220265AF
:101FE000204600F094F9B00409D4E843800406D4F4
:101FF00021684FF400500865204600F086F930044F
:1020000009D4E843000406D421684FF40040086571
:10201000204600F079F970040AD4E843400407D45C
:1020200021684FF480400865206E40F080002066F3
:10203000BBF1000005D02168086559462046FFF72E
:10204000D0FE27B120680765206E38432066206ED9
:10205000002802D02046FFF7C3FEBDE8F09F000035
:102060002DE9F041040006D0DFF8F48194F85C001B
:10207000002518B107E00120BDE8F08184F85D502B
:10208000204600F0F9F82068816921F01001816193
:1020900000F06AFA0646032705E000BF00F064FA84
:1020A000801B0A2811D8206880690007F6D42068B0
:1020B000816941F00101816100F056FA06460BE0AA
:1020C00000F052FA801B0A2806D9206E40F0010069
:1020D000206684F85C70CEE720688069C007EFD086
:1020E0002068816941F0020181612168414502D186
:1020F0005C4960680860207C01282068816937D0CD
:1021000041F040018161607C01282068816932D002
:1021100021F480418161A07C0128206881692DD053
:1021200041F48051816120688169A26821F4407185
:10213000114381612068816921F0A40181612068D7
:10214000016921F010010161E068012819D010B384
:1021500002281BD02068816941F0800181612068DC
:10216000016941F010010161E06803280ED012E01E
:1021700021F04001C6E741F48041CBE721F48051D2
:10218000D0E72068816941F0040103E0206881699B
:1021900041F020018161207EE26940066FF0FF017D
:1021A00001EB0222A0F100701043226AA38A521EA2
:1021B00010430A0202EB034318432368D861A06866
:1021C000B0F5407F10D1D4E90A0301EB0321401E92
:1021D0000843216B131303EB01110843A18C02EB9D
:1021E000014108432168C860206850F8C01FE26BB5
:1021F000114301601D4A21681B48914200D11C48CF
:102200001C4A914201D100F5D460206451F8802F1E
:10221000A38E22F4F81242EA03420A6000F1700130
:102220006164216851F8802F94F8383022F0706290
:1022300042EA03620A6000F1B001A164D831E164AE
:10224000D831216518316165D83100E020C088425D
:10225000FCD3A5652566012084F85C0000200BE70F
:10226000006400400065004000A400400068004099
:1022700050A70040006C004010B59CB004461421EB
:1022800015A8FEF70AF954216846FEF706F91B491E
:102290002068884230D18014009040030E90684638
:1022A00000F060FA08B1FEF7A2FE1548816D41F01A
:1022B00000718165816D01F000711A91C16C41F06E
:1022C0000101C164C06C15A900F001001A904FF41F
:1022D000C0501590022016900020179018900920E9
:1022E0001990C00600F016F800221146152000F0E3
:1022F000A1F9152000F090F91CB010BD0064004059
:102300000010024070477047704770477047704731
:10231000704770472DE9F04FDFF820920023012627
:102320000324A9F1040B85B00F2709F1040AABF1CE
:10233000040EFAE006FA03F52A407CD091F804C0B6
:102340000CF0030CBCF1010F02D0BCF1020F26D13E
:10235000D0F808C0CDF800C04FEA430C04FA0CF8DE
:10236000CDF810C0DDF800C02CEA080CCDF800C094
:10237000D1F80C80DDF810C008FA0CF8DDF800C0C8
:1023800048EA0C08C0F80880D0F804C02CEA050C14
:102390000D79C5F300159D4045EA0C0545600D79A2
:1023A000ED43AD070ED0C5684FEA430804FA08FCB8
:1023B00025EA0C05D1F808C00CFA08FC4CEA050C1B
:1023C000C0F80CC00D7905F00305022D16D1DD080B
:1023D00000EB850CCDF808C0DCF820805D074FEAE3
:1023E000D56C07FA0CF528EA05080D6905FA0CF515
:1023F000DDF808C045EA0805CCF8205005684FEA2A
:10240000430CCDF808C004FA0CFC25EA0C0591F841
:1024100004C00CF00308DDF808C008FA0CF848EA1C
:102420000508C0F800804D6815F4403F7CD0444D4D
:10243000D5F860C000E077E04CF0010CC5F860C052
:102440002D6E23F0030C05F0010500953D4D65440C
:102450000295AD684FEA837C4FEA1C7807FA08FCC6
:1024600025EA0C05B0F1904F06D0DFF8DCC06045DE
:1024700005D14FF0010C20E04FF0000C1DE0DFF81B
:10248000CCC0604502D14FF0020C16E0DFF8C0C0AE
:10249000604502D14FF0030C0FE0DFF8B8C0604593
:1024A00002D14FF0040C08E0DFF8ACC0604502D167
:1024B0004FF0050C01E04FF0060C0CFA08FC4CEA5A
:1024C000050C029DC5F808C0D9F80050CC46D1F8DB
:1024D000048095435FEAC82800D51543CCF8005026
:1024E000DAF80050D446D1F8048095435FEA882892
:1024F00000D51543CCF80050DBF80050DC46D1F88D
:10250000048095435FEA883800D51543CCF8005025
:10251000DEF80050F446D1F8048095435FEAC838ED
:1025200000D51543CCF800505B1C0A6832FA03F55D
:102530007FF400AF05B0BDE8F08F00000804014053
:10254000001002400000014000040048000800485C
:10255000000C004800100048001400480AB18161D6
:102560007047816270470000014880687047000032
:102570001000002002488168426811448160704761
:102580001000002010B50024032000F073F80F2085
:1025900000F008F808B1012401E000F025F8204619
:1025A00010BD000070B50E4E05460024706898B14D
:1025B0004FF47A71B1FBF0F00A490968B1FBF0F011
:1025C00001F0FDF840B9102D06D200222946501E18
:1025D00000F030F8356000E00124204670BD0000B6
:1025E000100000201C0000200A4882B0016E41F05B
:1025F00001010166016E01F001010091816D41F060
:1026000080518165806D00F08050009002B000F034
:10261000A1B8000000100240002809DB00F01F02F2
:10262000012191404009800000F1E020C0F8001134
:1026300070470000F0B40E4B1B680C46C3F3022336
:10264000C3F10705042D00D90425191D072901D25E
:10265000002300E0DB1E012606FA05F1491E214099
:1026600099409E40761E16403143F0BC02F06BBF8D
:102670000CED00E0064900F0070208684FF6FF0382
:10268000184040EA0220034A1043086070470000E7
:102690000CED00E00000FA052B492C4B0A683221B2
:1026A0004A432B4940B1B0F5007F086829D020F497
:1026B000C06040F480602CE00868C0F3412002282C
:1026C00004D051F8800F20F4807022E0D1F880000F
:1026D00020F48070C1F88000086820F4C06040F4E5
:1026E00000700860B2FBF3F0401C00E0401E4A6935
:1026F000520501D50028F9D1486940050AD50320C3
:102700007047C0F34120022806D051F8800F40F4F2
:102710008070086000207047D1F8800040F480701D
:10272000C1F88000086820F4C06040F400700860C0
:10273000B2FBF3F0401C00E0401E4A695205DBD5B5
:102740000028F9D1D8E700001C00002040420F000B
:10275000007000400248816841F480418160704708
:10276000007000402DE9F843044600680026BB4D88
:1027700000035ED5A86D0027C00008D4A86D40F006
:102780008050A865A86D012700F080500090DFF808
:10279000D092D9F8001041F48071C9F80010FFF709
:1027A000E3FE804606E000BFFFF7DEFEA0EB080078
:1027B00002282BD8D9F80000C005F5D5D5F890002F
:1027C00010F4407014D0216D814211D0D5F89000E2
:1027D000D5F8901020F4407041F48031C5F8901085
:1027E000D5F8901021F48031C5F89010C5F890000C
:1027F000C00711D0FFF7B8FE804641F2883907E0E4
:10280000FFF7B2FEA0EB0801494501D903260BE012
:10281000D5F890008007F3D5D5F89000216D20F40D
:1028200040700843C5F890001FB1A86D20F080509B
:10283000A8652078C00707D0D5F88800616820F027
:1028400003000843C5F888002078800707D5D5F82D
:102850008800A16820F00C000843C5F888002078A3
:10286000400707D5D5F88800E16820F0300008431C
:10287000C5F888002078000707D5D5F888002169B9
:1028800020F0C0000843C5F888002078C00607D5AE
:10289000D5F88800616920F440700843C5F88800C5
:1028A0002078800607D5D5F88800A16920F440601B
:1028B0000843C5F888002078400607D5D5F8880079
:1028C000E16920F440500843C5F8880020780006EC
:1028D00007D5D5F88800216A20F440400843C5F8A0
:1028E00088002088C00507D5D5F88800616A20F4E3
:1028F00040300843C5F888002068800307D5D5F824
:102900009C00A16A20F003000843C5F89C002088C1
:10291000800507D5D5F88800E16A20F440200843F7
:10292000C5F88800208840050FD5D5F88800216BB0
:1029300020F440100843C5F88800206BB0F5801FD4
:1029400003D1E86840F48010E860208800050FD5C6
:10295000D5F88800616B20F440000843C5F8880072
:10296000606BB0F5800F03D1E86840F48010E86038
:102970002088C0040FD5D5F88800A16B20F04070E6
:102980000843C5F88800A06BB0F1807F03D1E868E8
:1029900040F48010E86020884FF0006180040ED57C
:1029A000D5F88800E26B20F040601043C5F888003D
:1029B000E06B884203D1E86840F48010E86020882A
:1029C00040040ED5D5F88800226C20F040601043FA
:1029D000C5F88800206C884203D1E86840F4801074
:1029E000E860208800040FD5D5F88800616C20F0DD
:1029F00040500843C5F88800606CB0F1805F03D197
:102A0000E86840F48030E8602068C0030FD5D5F84E
:102A10008800A16C20F040400843C5F88800A06CF5
:102A2000B0F1804F03D1E86840F48030E86020685E
:102A300040030FD5D5F89C00E16C20F4401008430A
:102A4000C5F89C00E06CB0F5001F03D1E86840F4C5
:102A50008010E8603046BDE8F883000000100240B6
:102A6000007000402DE9F0470E4605004FF00007CA
:102A700025D0DFF8AC81D8F8000000F00F00B0429C
:102A80000CD2D8F8001021F00F013143C8F8001023
:102A9000D8F8000000F00F00B04210D12968614C56
:102AA000C80741F2883A5AD06868DFF87C91032859
:102AB00008D0022820682DD0400500282CDB0120FA
:102AC000BDE8F08720688001F9D5E06800F00302D6
:102AD000E068C0F30310401C032A19D0534A00BF1A
:102AE000B2FBF0F0E268C2F306225043E268C2F3A0
:102AF0004162521C5200B0FBF2F0484517D9A06861
:102B000010F0F00F0CD0880711D5A86840B10EE086
:102B1000474AE5E78003D0E700F092F8484506D938
:102B2000A06820F0F00040F08000A0608027A0683E
:102B3000696820F003000843A060FFF715FD814697
:102B400006E000BFFFF710FDA0EB090151453AD8A0
:102B5000A068696800F00C00B0EB810FF2D1286822
:102B6000810714D5400703D5A06840F4E060A06059
:102B70002878000705D5A06820F4605040F4E06094
:102B8000A060A068A96820F0F000084304E0802F4E
:102B900003D1A06820F0F000A060D8F800104046F3
:102BA00001F00F01B14216D9016821F00F01314344
:102BB0000160FFF7D9FC074607E000BFFFF7D4FC30
:102BC000C11B514501D903207AE7D8F8000000F075
:102BD0000F00B042F2D12878400705D5A068E96817
:102BE00020F4E0600843A0602878000706D5A068BC
:102BF000296920F4605040EAC100A06000F020F88C
:102C0000A1680C4AC1F30311515C01F01F01C840D7
:102C10000949086009480068BDE8F047FFF7C2BCF1
:102C2000002002400010024000B4C4040024F4005C
:102C300000127A007E7C00081C000020100000209A
:102C4000184910B58868C0F381021748012A0BD0D3
:102C50008A684310C2F38102022A06D08A68C2F34E
:102C60008102032A03D0002010BD184610BDCA6897
:102C700002F00304CA68C2F30312521C032C02D0F0
:102C8000B0FBF2F001E0B3FBF2F0CA68C968C2F32E
:102C900006225043C1F34161491C4900B0FBF1F0E9
:102CA00010BD0000001002400024F4002DE9F8439C
:102CB00004007AD02078F84DC00747D0A868E968AA
:102CC00000F00C0001F003010C2802D0082817D0F6
:102CD00001E0032914D06068B0F5803F17D0B0F54B
:102CE000A02F286817D020F480302860286820F4AE
:102CF000802028606068E0B1FFF736FC064614E0EB
:102D00002868800322D560680028D2D01EE0286899
:102D100040F48030EDE740F480202860F7E700BF02
:102D2000FFF722FC801B642870D828688003F7D541
:102D30000CE0FFF719FC064605E000BFFFF714FCA6
:102D4000801B6428F0D828688003F7D42078800797
:102D50004CD5A868E96800F00C0001F003010C28CC
:102D600002D004280DD001E002290AD0E068002832
:102D700028682BD040F480702860FFF7F5FB0646EA
:102D800019E02868400502D5E068002891D06868FD
:102D9000217C20F0FE4040EA01606860BF48006886
:102DA000FFF700FC002800D120E072E1FFF7DCFB18
:102DB000801B0228B8D828684005F7D56868217CB0
:102DC00020F0FE4040EA016068600FE020F480706F
:102DD0002860FFF7C9FB064605E000BFFFF7C4FB0C
:102DE000801B0228A0D828684005F7D42078000767
:102DF00029D560690028D5F8940013D040F001006F
:102E0000C5F89400FFF7B0FB064606E090E000BF6F
:102E1000FFF7AAFB801B022886D8D5F8940080070C
:102E2000F6D510E020F00100C5F89400FFF79CFBF8
:102E3000064604E0FFF798FB801B022878D8D5F8F7
:102E400094008007F6D42078400761D5A86D00264D
:102E5000C00008D4A86D40F08050A865A86D012678
:102E600000F0805000908E480168C90511D40168B7
:102E7000804641F480710160FFF776FB074604E06D
:102E8000FFF772FBC01B022852D8D8F80000C0051B
:102E9000F6D5A068012815D00528D5F8900016D0E1
:102EA00020F00100C5F89000D5F8900020F0040053
:102EB000C5F89000A06841F28838B8B1FFF754FB1C
:102EC00007460EE0D5F8900040F00100F0E740F032
:102ED0000400C5F89000F5E7FFF746FBC11B41452C
:102EE00026D8D5F890008007F6D50CE0FFF73CFB1C
:102EF000074604E0FFF738FBC11B414518D8D5F859
:102F000090008007F6D41EB1A86D20F08050A8650F
:102F10002078800629D5A0690028D5F8980013D01C
:102F200040F00100C5F89800FFF71EFB064606E0DA
:102F300075E000BFFFF718FB801B02286FD8D5F89B
:102F400098008007F6D510E020F00100C5F8980041
:102F5000FFF70AFB064604E0FFF706FB801B02288A
:102F60005DD8D5F898008007F6D4E069F0B3A96879
:102F7000C1F3810103295DD00228286820F0807008
:102F8000286003D0FFF7F0FA04464BE0FFF7ECFAB5
:102F9000064604E0FFF7E8FA801B02283FD82868BD
:102FA0008001F7D4F4E908016FF00F0202EB011180
:102FB0000843218A5204490802EB4151A26841EAC0
:102FC00002210843217D4FF07E42490802EB416116
:102FD0000843217B40EAC160E968324A1140084356
:102FE000E860286840F08070286000E05EE0E868F3
:102FF00040F08070E860FFF7B7FA044605E000BFD4
:10300000FFF7B2FA001B022809D828688001F7D51B
:103010004CE000BFFFF7A8FA001B022802D90320EA
:10302000BDE8F88328688001F4D4E8681E490840A8
:10303000E8603BE00128F3D0E868226A00F0030171
:10304000914226D1616A00F0F002090110399142E3
:103050001FD1A26A00F4FE41B1EB022F19D194F8FE
:103060002C2000F07841B1EBC26F12D1218E00F418
:10307000C00249084905A1F50011914209D194F80F
:10308000341000F0C06049084906A1F10071814286
:103090000CD00120C4E70000001002401000002006
:1030A000007000400C809F01FCFFEEFE0020B7E79F
:1030B00090F85D00704770B5040009D0606A002583
:1030C00040B125616561A56294F85D0040B10CE0F6
:1030D000012070BD6068B0F5827FF4D0E561F2E751
:1030E00084F85C50204600F05BF8022084F85D0014
:1030F0002068016821F040010160E1684FF4E0625E
:10310000914201D9002001E04FF48050B1F5706F79
:1031100002D0914200D0A562A188228901F4827177
:1031200002F404421143227C02F002021143227D88
:1031300002F001021143228B02F400721143227F3C
:1031400002F03802114394F8202002F0800211436B
:10315000228D02F40052114322681160A1690422F9
:1031600002EA114194F8242000F4805002F0100289
:10317000114394F8342002F008021143A28902F4AA
:10318000706211430143206841602068C16921F4E5
:103190000061C1612566012084F85D00002070BDDA
:1031A00030B587B0044614216846FDF776F92468E7
:1031B0001F4D00211F4802230522AC4219D1046E85
:1031C00044F480540466046E04F480540594C46C82
:1031D00044F00104C464C06C00F001000590E020DC
:1031E0000090CDE90131CDE9031269464FF09040DE
:1031F0001AE0114DAC4219D1846D44F480448465C9
:10320000846D04F480440594C46C44F00204C464E6
:10321000C06C00F002000590A8000090CDE90131DB
:10322000CDE9031269460548FFF774F807B030BDD1
:103230000030014000100240003800400004004807
:103240002DE9F84F044690F85D001D4616460F46DE
:1032500001283FD1002F75D0002E73D060684FF049
:103260000408B0F5827F01D1A06848B3FFF77CF96C
:10327000824694F85C0001282CD04FF0010984F8B4
:103280005C9084F85D804FF00008C4F8608027648B
:10329000A4F84460A4F84660C4F83880A4F83C80E0
:1032A000A4F83E80C4F84C80C4F85080E0684FF425
:1032B000E0618842206842680ED922F480520DE015
:1032C00084F85D80009313460A46204600F03EF9DC
:1032D000BDE8F88F0220FBE742F480524260A0680C
:1032E000B0F5004F09D12068026822F04002026068
:1032F0002068026822F48042026020680268520658
:1033000003D4026842F040020260E06888421BD9A0
:1033100039E020688168C9070BD0017B206C0170FF
:10332000206C401C2064B4F84600401EA4F84600FF
:103330000AE0FFF719F9A0EB0A00A84203D3681CC2
:1033400002D036E032E09DB3B4F846000028E0D168
:103350001DE020688168C9070BD0C068216C088017
:10336000206C801C2064B4F84600401EA4F846007F
:1033700009E0FFF7F9F8A0EB0A00A84202D3681CA5
:1033800001D016E0A5B1B4F846000028E1D15246BC
:103390002946204601F04CFA08B12020206684F826
:1033A0005D9084F85C80206E002891D001208FE72A
:1033B000FFE784F85D9084F85C80032088E72DE9BE
:1033C000F84F984616468A460446FFF7CDF88146E0
:1033D00094F85D00012820D1BAF1000F6FD0002EC3
:1033E0006DD094F85C00012817D0012784F85C7038
:1033F000032084F85D0000252566C4F838A0A68760
:10340000E6872564A4F84450A4F846502565E56491
:10341000A068B0F5004F03D00CE00220BDE8F88FA3
:103420002068016821F0400101602068016841F4D2
:103430008041016020680168490603D4016841F0B9
:1034400040010160E068B0F5E06F606826D908B11E
:10345000012E1FD1A06B21680088C86006E020689B
:103460008168890709D5A16B0988C160A06B801CA0
:10347000A063E08F401EE0870CE0FFF775F8A0EB3B
:103480000901414503D3B8F1FF3F03D04BE0B8F148
:10349000000F48D0E08F0028E1D139E008B1012EBB
:1034A00033D1E08F0128A06B03D921680088C86060
:1034B00010E021680078087314E0E08725E043E01D
:1034C00020688168890713D5E18F0129A16B07D98D
:1034D0000988C160A06B801CA063E08F801EECE7B0
:1034E00009780173A06B401CA063E08F401EE4E7E5
:1034F000FFF73AF8A0EB0901414503D3B8F1FF3FCC
:1035000003D010E0B8F1000F0DD0E08F0028D7D124
:103510004A464146204601F0C5F908B12020206600
:10352000A06830B109E084F85D7084F85C50032035
:1035300074E72068C1688068009084F85D7004F8C2
:103540005C5F60680028F3D0012067E72DE9FF5F2A
:103550001D46934604464FF001090E9EFFF704F8FE
:10356000074694F85D006168012806D0B1F5827FB6
:1035700039D1A168B1BB042835D1019800287CD08D
:10358000BBF1000FFBD0002DF9D094F85C000128AE
:1035900029D04FF0010A84F85CA094F85D0004285B
:1035A00002D0052084F85D004FF00008C4F8608068
:1035B000C4F840B0A4F84650A4F844500199A1635F
:1035C000E587A587C4F84C80C4F85080E0684FF4C4
:1035D000E061884201D8012D09D92068426822F4AF
:1035E000805208E0FFE7022004B0BDE8F09F2068A9
:1035F000426842F48052426020680268520603D456
:10360000026842F040020260E0688842606846D981
:1036100008B1012D3BD1A06B01882068C160A06B6F
:10362000801CA063E08F401EE08730E02068816846
:1036300089070FD5E18F69B1B9F1010F0AD1A16BEB
:103640000988C160A06B801CA063E08F401EE087EA
:103650004FF0000920688168C90711D0B4F84610FE
:1036600071B1C068216C0880206C801C2064B4F8A3
:103670004600401EA4F8460000E09EE04FF001091D
:10368000FEF772FFC01BB04201D3701C74D1E08FF3
:103690000028CBD1B4F846000028C7D175E008B1A6
:1036A000012D6BD1E08F0128A06B08D9216800881B
:1036B000C860A06B801CA063E08F801E07E02168BB
:1036C00000780873A06B401CA063E08F401EE08769
:1036D00054E02068816889071AD5E18FC1B1B9F13A
:1036E000010F15D1E18F0129A16B07D90988C160AC
:1036F000A06B801CA063E08F801E06E00978017338
:10370000A06B401CA063E08F401EE0874FF00009D3
:1037100020688168C90728D0B4F8461029B3B4F8E6
:103720004610012914D9C068216C0880206C801CC7
:103730002064B4F84600801EA4F84600B4F84600A1
:10374000012810D82068416841F4805141600AE0A6
:10375000007B216C0870206C401C2064B4F846008B
:10376000401EA4F846004FF00109FEF7FDFEC01B05
:10377000B04202D3701C01D012E08EB1E08F00285D
:10378000A7D1B4F846000028A3D13A4631462046D6
:1037900001F088F850B12020206684F85C800CE0AD
:1037A00084F85DA084F85C8003201DE784F85DA0A8
:1037B00084F85C80206E0028F7D0012014E710B553
:1037C000401EB0F1807F01D3012010BD4FF0E024F6
:1037D00060610F21601701F0B6FE0020A061072094
:1037E0002061002010BD70477047704730B590F8D9
:1037F0003C20012A45D0012280F83C20CA688B6811
:1038000022F440721A434B6822F480621A430B6818
:1038100022F400621A430B6922F480521A434B6966
:1038200022F400521A430B6B22F480421A430B8B92
:1038300022F4702242EA0342CB6922F080521A43FA
:10384000114D03680024AB4205D0104DAB4202D0AD
:103850000F4DAB4210D10D8D22F4700242EA055299
:103860000D6A22F080722A434D6A22F000722A43C8
:10387000C96A22F000520A435A6480F83C40002092
:1038800030BD022030BD0000002C0140003401405A
:10389000005001407047704770470000F0B590F845
:1038A0003C20012A43D0012580F83C50022280F8B8
:1038B0003D2003685A689C681E4E1F4FDFF87CC08D
:1038C000B34203D0BB4201D0634504D122F4700E51
:1038D0004A6842EA0E02DFF868E002EA0E02D1F816
:1038E00000E04EEA020EC3F804E00268B24212D0D1
:1038F000B2F1804F0FD0134B9A420CD0124B9A4228
:1039000009D0124B9A4206D0BA4204D0104B9A42C8
:1039100001D0624504D1896824F080031943916085
:1039200080F83D50002180F83C100846F0BD022090
:10393000F0BD0000002C0140003401400050014067
:103940008FFFFFFD0004004000080040000C004015
:1039500000400140704710B5040003D094F83D00CA
:1039600010B107E0012010BD002084F83C00204683
:1039700000F022F8022084F83D00211D206801F0AB
:103980002FF9012084F8480084F83E0084F83F00B5
:1039900084F8400084F8410084F8420084F8430031
:1039A00084F8440084F8450084F8460084F8470011
:1039B00084F83D00002010BD08B5114A0168114887
:1039C000914211D1016E41F400610166006E002246
:1039D00000F40060009001211920FEF72BFEBDE8E5
:1039E00008401920FEF718BE074A914207D1816DA1
:1039F00041F002018165806D00F00200009008BD79
:103A0000002C0140001002400004004090F83D10DE
:103A1000012901D001207047022180F83D10006883
:103A20001249884214D0B0F1804F11D01049884219
:103A30000ED0104988420BD00F49884208D00F4958
:103A4000884205D00E49884202D00E49884207D1EB
:103A500081680D4A1140062906D0B1F5803F03D098
:103A6000016841F00101016000207047002C014015
:103A70000004004000080040000C004000340140F9
:103A800000400140005001400700010070B50446AD
:103A900090F83C00002501281CD0012684F83C60E9
:103AA000022084F83D0022689068334B184020F4CF
:103AB0007F4090600868B0F5005F2ED016DC40288B
:103AC00049D009DCD0B1102818D0202816D03028D1
:103AD00049D113E0022070BD50282AD0602830D090
:103AE00070280FD0B0F5805F3DD13DE010F00F0F92
:103AF00039D10111A1F58031072934D82268014656
:103B0000104625E0CB68D1E90121206801F0E7F8F3
:103B10002068816841F0770109E0CB68D1E9012193
:103B2000206801F0DCF82068816841F48041816000
:103B30001AE0CA684968206801F0A6FA5021206896
:103B400006E0CA684968206801F0AFFA6021206881
:103B500001F0D0F808E0CA684968206801F094FADA
:103B600040212068F4E7012584F83D60002084F8B6
:103B70003C00284670BD000088FFCEFF70472DE94D
:103B8000F04104460068C66805694FF00007A907C0
:103B900013D5B10711D5F91E0161012020772068E6
:103BA00080698007204602D0FFF7E8FF04E000F0BC
:103BB000E1F8204600F0A3F92777680716D57007CB
:103BC00014D521686FF00400086102202077206876
:103BD000806910F4407F204602D0FFF7CFFF04E059
:103BE00000F0C8F8204600F08AF92777280715D595
:103BF000300713D521686FF0080008610420207792
:103C00002068C0698007204602D0FFF7B7FF04E0B4
:103C100000F0B0F8204600F072F92777E80616D5D4
:103C2000F00614D521686FF0100008610820207795
:103C30002068C06910F4407F204602D0FFF79EFF45
:103C400004E000F097F8204600F059F92777E807DC
:103C500008D0F00706D021686FF001000861204607
:103C600000F0D8F9280601D4A80408D5300606D5F6
:103C700021686FF4025008612046FFF7B5FDE805A2
:103C800008D5300606D521686FF48070086120469B
:103C9000FFF7A9FD680608D5700606D521686FF004
:103CA00040000861204600F0B6F9A80608D5B00625
:103CB00006D521686FF0200008612046FFF795FDCA
:103CC000E80208D5F00206D521686FF4801008617B
:103CD0002046FFF7E0FDA80208D5B00206D521680E
:103CE0006FF4001008612046FFF7D4FD680208D584
:103CF000700206D521686FF4800008612046FFF746
:103D0000CBFD28020AD5300208D521686FF40000E7
:103D100008612046BDE8F041FFF71CBEBDE8F08118
:103D200010B586B0044614216846FCF7B6FB0F496F
:103D30002068884217D10E48C16C41F00101C1646E
:103D4000C06C694600F0010005904FF4E0600090FF
:103D500002200190002002900390062004904FF072
:103D60009040FEF7D7FA06B010BD0000002C0140CD
:103D700000100240704770B5044690F83C000026E1
:103D80000D4601280BD0012084F83C000C2A4AD0B3
:103D900007DC82B1042A20D0082A06D131E00220B3
:103DA00070BD102A53D0142A63D00126002084F855
:103DB0003C00304670BD206800F0A6FF2068816995
:103DC00041F0080181612068816921F0040181616D
:103DD000206881692A69114311E0206800F0EAFF38
:103DE0002068816941F4006181612068816921F462
:103DF00080618161206881692A6941EA02218161CB
:103E0000D4E7206801F026F82068C16941F0080174
:103E1000C1612068C16921F00401C1612068C169E4
:103E20002A69114311E0206801F064F82068C16933
:103E300041F40061C1612068C16921F48061C16100
:103E40002068C1692A6941EA0221C161AEE72068A0
:103E500001F0A0F82068016D41F0080101652068BB
:103E6000016D21F0040101652068016D2A6911438B
:103E700011E0206801F0CAF82068016D41F400618A
:103E800001652068016D21F4806101652068016D84
:103E90002A6941EA0221016588E710B5040003D0D0
:103EA00094F83D0010B107E0012010BD002084F817
:103EB0003C00204600F022F8022084F83D00211D3D
:103EC000206800F08DFE012084F8480084F83E0050
:103ED00084F83F0084F8400084F8410084F84200F0
:103EE00084F8430084F8440084F8450084F84600D0
:103EF00084F8470084F83D00002010BD70477047EB
:103F000070B50446022269B1042912D0082917D0DD
:103F10000C291CD0102921D094F84300012824D06A
:103F2000012070BD94F83E000128F9D184F83E20AC
:103F30001DE094F83F000128F2D184F83F2016E0FC
:103F400094F840000128EBD184F840200FE094F869
:103F500041000128E4D184F8412008E094F84200AF
:103F60000128DDD184F8422001E084F843200122B9
:103F7000206800F0A7FE1D4920681D4A1D4B1E4DFC
:103F800088420BD0904209D0984207D01B4EB042D5
:103F900004D01B4EB04201D0A84203D1466C46F477
:103FA000004646642068884211D0B0F1804F0ED0A0
:103FB000144988420BD01449884208D013498842DA
:103FC00005D0904203D0984201D0A84207D1816821
:103FD0000F4A1140062906D0B1F5803F03D0016891
:103FE00041F001010160002070BD0000002C014083
:103FF00000340140004001400050014000440140B5
:10400000004801400004004000080040000C00404F
:104010000700010070477047FEE700EB8100006E6B
:1040200000F0F84070478068C0F3C00070478068B7
:10403000C0F3C00070478068C0F38000704780689C
:10404000C0F380007047C06810F4406F01D00020BA
:10405000704701207047042303EAD15310B5184478
:104060004369C1F3045107248C40A3438A4013439E
:10407000436110BD00EB8100016E21F0004111434E
:1040800001667047B4EEC10AF1EE10FA02D2B0EE4A
:10409000410A7047B4EEE00AF1EE10FAF9DDB0EE35
:1040A000600A7047DFED090A094901E030EE600A55
:1040B00010EE100A8842F9DA02E000BF30EE200A62
:1040C000B5EEC00AF1EE10FAF8D37047DB0FC94025
:1040D000DB0FC94030B593B000240F9410943C21FD
:1040E00068461194FCF7D9F931484FF0A0410425F6
:1040F00001604FF44031C0E9011485610121C460C1
:10410000C0E9044104774477016280F8244080F8D4
:104110003840C46380F84040FDF7F4FC08B1FCF778
:1041200066FF0FA922480F94FDF7DEFA08B1FCF7ED
:104130005EFF204800900920CDE901047F2005940E
:10414000CDE903050320089084200A908DF82440CF
:104150004FF480708DF825400B908DF826408DF837
:10416000304069461248FCF763FF08B1FCF73FFF97
:104170001148009040F20F10019069460C48FCF77E
:1041800057FF08B1FCF733FF0C48009040F21520B0
:10419000019069460648FCF74BFF08B1FCF727FF82
:1041A0000348FDF7C9FD0248FDF70CFA13B030BD16
:1041B000F006002002003004040060080800900CA3
:1041C000124810B510490160002141608160012250
:1041D000C1600274417481741123C0E90532072360
:1041E000C3610223C0E908328262C262C0E90C21C5
:1041F0008163C163FDF734FF002803D0BDE81040A0
:10420000FCF7F5BE10BD0000006400405C07002014
:1042100030B587B014216846FCF73FF91248C16CED
:1042200041F00101C164C16C01F001010591C16C53
:1042300041F00201C164C06C0C4D00F0020041F27B
:10424000C1040590002221462846FEF787F9012087
:10425000CDE90040002002900320039069462846E3
:10426000FEF758F807B030BD0010024000040048C7
:10427000124810B5104901604FF48271416000216D
:104280004FF47062C0E902120122C0E90412520226
:1042900082613822C0E9072107224162C0E90A127F
:1042A00001634163FEF707FF002803D0BDE810401B
:1042B000FCF79DBE10BD000000300140C00700208B
:1042C00010B51348FEF76CFF114812494FF4E06235
:1042D00001604FF4827141600021C0E902120222A4
:1042E000026101224261520282612022C0E907215B
:1042F00007224162C0E90A1201634163FEF7DBFE57
:10430000002803D0BDE81040FCF771BE10BD0000CE
:10431000240800200038004030B59BB000241994D8
:104320001A9417941894149415941C2168461694A2
:10433000FCF7B3F8342107A8FCF7AFF84D4D4C4813
:10434000C5E900042020A86041F29A00C5E90304F1
:104350008020C5E905402846FFF7FDFA08B1FCF7C3
:1043600046FE4FF48050179017A94248FFF78EFB86
:1043700008B1FCF73CFE3F48FFF78FFD08B1FCF7A2
:1043800036FE1494159414A93A481694FFF786FA49
:1043900008B1FCF72CFE6020CDE9000402940394E0
:1043A000049405940022694632480694FFF7E3FC22
:1043B00008B1FCF71CFE042269462E48FFF7DBFC1F
:1043C00008B1FCF714FE082269462A48FFF7D3FC1F
:1043D00008B1FCF70CFE0C2269462648FFF7CBFC1F
:1043E00008B1FCF704FE0794089409944FF40050B8
:1043F0000A94CDE90B400D9400030E94CDE90F40D3
:104400001194129407A91B481394FFF7EFF908B110
:10441000FCF7EDFD1748FFF783FC1648FFF7F6FAA7
:1044200008B1FCF7E4FD00211248FFF769FD08B16F
:10443000FCF7DDFD04210F48FFF762FD08B1FCF732
:10444000D6FD08210B48FFF75BFD08B1FCF7CFFD57
:104450000C210848FFF754FD08B1FCF7C8FD296896
:104460004FF47A6008640348FFF75AFC1BB030BD74
:10447000002C01408808002010B588B0002419489D
:1044800000940194029403940494059414490694AE
:1044900001604FF49671C0E901144FF6FF71C0E955
:1044A00003148461FFF757FA08B1FCF7A0FD4FF43D
:1044B0008050009069460B48FFF7E8FA08B1FCF716
:1044C00096FD049404A907480694FFF7E7F908B19C
:1044D000FCF78DFD0348FFF799FA08B010BD000006
:1044E00000040040D4080020FEE7FEE7704700F01B
:1044F000EFBD00002DE9F84304461F48007853281B
:1045000001D000F0E5FDFF2000258DF800004FF000
:10451000FF39102C2BD21948174E005D8DF8010081
:104520001836EFF31187202080F31188307DDFF8F3
:10453000508000F0030002280CD0304600F0FAFD55
:1045400002280FD388F8004002226946304600F066
:10455000C1FF08E088F8004002226946304600F0BA
:104560008CFF00E04D46F8B280F3118800E04D4624
:104570002846BDE8F8830000380900208E7C00083A
:10458000500200202DE9F04107460B4815460E4623
:104590000078532801D000F09BFDEFF31184202018
:1045A00080F311882A463146384600F007F8E1B218
:1045B00081F31188BDE8F0813809002070B50E46FE
:1045C000144900EB400001EBC0051446E86A1835B9
:1045D00020B101280FD0022805D113E0284600F0B1
:1045E000A9FDA04201D2002411E02246314628460E
:1045F00000F070FF0BE0284600F09CFDA042F4D2D2
:104600000446F2E73146284600F037FF04462046CC
:1046100070BD0000380900200FB408B504A900914E
:104620006A46039900F004F801B05DF814FB00003D
:104630002DE9F04798B0814607A8029040204FF03E
:1046400000080390CDF8108092460C464046CDE914
:10465000058900BF14F8011B002974D0252908D052
:1046600002A800F0EBFE05980028F3DA18B0BDE8C8
:10467000F08700230121207823281ED02B2819D071
:104680002D2802D0302808D102E043F0010301E0D8
:1046900043F00203641C0029EDD100222078A0F130
:1046A00030010A290CD202EB820100EB4102303AC0
:1046B000641CF3E743F00403ECE743F00803E9E785
:1046C0000026C0B235462E2819D114F8010F2A2829
:1046D00008D1DAF800000126011DCAF80010641C98
:1046E00005680CE02078A0F130010A2907D205EB1B
:1046F0008501012600EB4105641C303DF2E720787E
:104700006C280DD068280BD0662866D00BDC2528D5
:1047100074D0582831D063280ED0642872D113E0A9
:1047200014F8010FECE770284BD0732833D07528AC
:1047300018D0782866D120E0DAF80000011DCAF808
:10474000001001785BE05FE0DAF80000011DCAF8B4
:1047500000100168CDE900232B460A2202A800F0D0
:104760009FFD4FE0DAF80000011DCAF80010016853
:10477000CDE900232B460A2209E0DAF80000011DEA
:10478000CAF800100168CDE900232B4623E002A8F7
:1047900000F0EAFD36E0DAF80000011DCAF800106A
:1047A00007680FB920A7002617F8011B21B306B12F
:1047B00015B302A800F042FE05986D1E0028F3DA3A
:1047C00020E0DAF80000011DCAF800100822016894
:1047D000CDE9002813461022D9E7DAF80000C01D01
:1047E00020F0070000F10801CAF8001090ED000B5E
:1047F000294602A800F0AAFC04E0FFE7252102A850
:1048000000F01CFE641C2EE700287FF72FAF0498F1
:1048100020B1024607A94846FFF7B4FEDDE90410BF
:104820000844059022E70000284E554C4C29000012
:104830002DE9F843044640684FF4827615468946D0
:104840004FF400474FF48068B04209D1A068B842E5
:1048500001D0404504D12068016821F04001016089
:104860004B46002280212046009500F0AFF880B929
:104870006068B04214D1A068B84201D040450FD161
:104880004B4600224FF4C0612046009500F02EF800
:1048900030B1206E40F0200020660320BDE8F88390
:1048A0000020FBE7F8B515460E460B46009204467D
:1048B00000224FF4C05100F019F888B933460022A5
:1048C00080212046009500F081F848B93346002247
:1048D0004FF4C0612046009500F008F8002804D08D
:1048E000206E40F0200020660320F8BD2DE9FE4F29
:1048F0004FF0000A984617460E4604460C9D8DF868
:1049000004A0FDF731FE411BA8EB0105FDF72CFECD
:10491000814620684FF4C06B0C3002902A48006832
:10492000C0EBC00000EB8000000D6843009043E046
:104930005E4506D12FB9029800788DF804009DF8E5
:104940000400B8F1FF3F37D0FDF70EFEA0EB0900E1
:10495000A84203D215B1009858B32BE020684168F3
:1049600021F0E00141606068B0F5827F0BD1A06862
:10497000B0F5004F02D0B0F5806F04D12068016817
:1049800021F040010160A06AB0F5005F09D1206804
:10499000016821F4005101602068016841F4005170
:1049A0000160012084F85D0084F85CA00320BDE86C
:1049B000FE8F0025401E0090206880683040B8427D
:1049C000B6D10020F3E700001C0000202DE9F843D9
:1049D0001E46914688460446089DFDF7C5FD401BCE
:1049E000351AFDF7C1FD074625480068C0F3CB30F6
:1049F000684338E0701C37D0FDF7B6FDC01BA842F5
:104A000003D215B1009860B32CE02068416821F012
:104A1000E00141606068B0F5827F0BD1A068B0F51D
:104A2000004F02D0B0F5806F04D12068016821F0FA
:104A300040010160A06AB0F5005F09D120680168FB
:104A400021F4005101602068016841F400510160C7
:104A5000012084F85D00002084F85C000320BDE89C
:104A6000F8830025401E00902068816838EA010024
:104A700004D000214945BDD10020F0E70121F9E72C
:104A80001C0000207047FDF775BD00B593B03821BC
:104A90006846FBF702FD14210EA8FBF7FEFC002080
:104AA000FDF7FAFD0220C101039140210491042188
:104AB000CDE9080100905521CDE90A1007900C902E
:104AC0000D906846FEF7F2F808B172B6FEE70F20C7
:104AD0000E9003200F90002010901190129004214E
:104AE0000EA8FDF7BFFF002801D072B6FEE713B095
:104AF00000BD00000248016841F470010160704788
:104B000088ED00E010B531482DED028BFFF737F846
:104B1000DFED2F8A2F4802F029F92E4802F0CAF85B
:104B20002C4802F031F82B4802F080F8294802F0B6
:104B300035FA29480068002844D0264C274894EDCF
:104B4000B00AD4ED900A80EE201A80ED011AD4ED5F
:104B50000C0AB7EE001A81EE200AF1EE080A20EEE8
:104B6000208A80ED008A94ED040B51EC100B02F0CA
:104B70006FFA01EE100AD4EDA30ABFEE002AF7EE99
:104B8000001A04F55E70B0EE480AFBF73AFF84EDB8
:104B9000AA0A94ED040B51EC100B02F059FA01EE45
:104BA000100AD4EDA40A04F54F70B0EE680AFBF7C2
:104BB000EEFE84EDAB0A2046BDEC028BBDE8104052
:104BC00002F0E4B8BDEC028B10BD000088080020A4
:104BD0000000000060020020040000200800002007
:104BE0002DE9F04F02682E4B2E4E2F4FDFF8BCC040
:104BF0002F4C304D4FF0804B98420BD0584509D088
:104C0000B04207D0B84205D0604503D0A04201D0E1
:104C1000A84204D122F070084A6842EA0802DFF88C
:104C20009880DFF89890DFF898A0984211D0584506
:104C30000FD0B0420DD0B8420BD0604509D0A04291
:104C400007D0404505D0484503D0504501D0A84283
:104C500003D122F44076CA6832434E6922F08002C2
:104C6000324302608A68C2620A688262984209D04E
:104C7000A04207D0404505D0484503D0504501D05B
:104C8000A84201D109690163012141610169C90794
:104C900003D0016921F001010161BDE8F08F00003E
:104CA000002C01400004004000080040000C0040BF
:104CB00000340140005001400040014000440140E8
:104CC0000048014010B501F01F030121046A99401A
:104CD0008C430462016A9A401143016210BD10B511
:104CE000846842EA032224F47F440A432243826018
:104CF00010BD00008268034B1A400A4342F00701CE
:104D0000816070478FFFCFFF2DE9F047056A026A87
:104D100022F001020262436882691F4C25F00205FD
:104D200022400C6822F0030214438A681C4E2A4376
:104D30001A4D1C4FDFF870C0DFF87090DFF870A0DC
:104D4000A84209D0B04207D0B84205D0604503D090
:104D5000484501D0504506D122F00808CA6842EA09
:104D6000080222F00402A84209D0B04207D0B8429B
:104D700005D0604503D0484501D0504505D14D6967
:104D800023F440731D438B692B434360846149685E
:104D900041630262BDE8F0878FFFFEFF002C0140F7
:104DA00000340140004001400044014000480140FF
:104DB00000500140F0B5056A026A22F0100202625A
:104DC000426883691C4C1E4E23400C6823F44073D8
:104DD00043EA042425F020038D681A4F43EA0513A3
:104DE000164DA84203D0B04201D0B84207D1D1F845
:104DF0000CC023F0800343EA0C1323F04003A842C5
:104E00000CD0B0420AD0104DA84207D00F4DA84296
:104E100004D00F4DA84201D0B84207D14D6922F409
:104E2000406242EA85028D6942EA850242608461FD
:104E3000496881630362F0BDFF8FFFFE002C0140D3
:104E40000034014000500140004001400044014056
:104E500000480140F0B5056A026A22F480720262DD
:104E60004368C2691C4C1E4E22400C6822F00302AB
:104E7000144325F400728D681A4F42EA0522174D3B
:104E8000A84203D0B04201D0B84207D1D1F80CC03B
:104E900022F4006242EA0C2222F48062A8420CD082
:104EA000B0420AD0104DA84207D0104DA84204D0FD
:104EB0000F4DA84201D0B84207D14D6923F44053A9
:104EC00043EA05138D6943EA05134360C4614968E9
:104ED000C1630262F0BD00008FFFFEFF002C0140A5
:104EE00000340140005001400040014000440140B6
:104EF00000480140F0B5056A026A22F4805202625D
:104F00004268C3691C4C1E4E23400C6823F4407356
:104F100043EA042425F400538D681A4F43EA05330D
:104F2000164DA84203D0B04201D0B84207D1D1F803
:104F30000CC023F4004343EA0C3323F48043A8421B
:104F40000CD0B0420AD0104DA84207D00F4DA84255
:104F500004D00F4DA84201D0B84207D14D6922F4C8
:104F6000404242EA85128D6942EA85124260C4617C
:104F7000496801640362F0BDFF8FFFFE002C014011
:104F80000034014000500140004001400044014015
:104F90000048014030B5056A026A22F4803202629C
:104FA0004268036D124C23400C681C4325F4003307
:104FB0000D8943EA05430F4DA8420ED00E4DA8427D
:104FC0000BD00E4DA84208D00D4DA84205D00D4D76
:104FD000A84202D00C4DA84204D14D6922F480327F
:104FE00042EA05224260046549688164036230BD7B
:104FF0008FFFFEFF002C01400034014000400140C3
:1050000000440140004801400050014030B5046AAE
:10501000026A22F4801202624268036D134D24F486
:1050200000142B400D6843EA05230D8944EA05541A
:105030000F4DA8420ED00F4DA8420BD00E4DA842E6
:1050400008D00E4DA84205D00D4DA84202D00D4DFE
:10505000A84204D14D6922F4802242EA85224260AE
:1050600003654968C164046230BD0000FF8FFFFE24
:10507000002C014000340140004001400044014048
:10508000004801400050014010B5036A046A24F052
:1050900001040462846924F0F00444EA021423F059
:1050A0000A020A438461026210BD10B5036A046AF1
:1050B00024F010040462846923F0A00324F47044F3
:1050C00044EA023243EA01118261016210BDFEE747
:1050D00010B5134CA8212046FBF7DFF9032020610F
:1050E000606110A0A06104F1A800E0614FF480604D
:1050F00020620020A0626062E0620AA1216604F5DD
:10510000956161661021A1662067E06660670849C5
:10511000C0F10F028A5C2254401C1028F8D310BD45
:10512000380900205465726D696E616C00000000E2
:105130009E7C00080269C1688A4203D88068401AD0
:10514000104400E0501A401E704700002DE9F04363
:1051500098462DED048B8DB01746B0EE408AF0EEE8
:10516000608A81466C4601B906210E469FED480BC8
:1051700051EC180B53EC102B02F002FA0AD22D203E
:105180008DF8000051EC180B641C01F055FF41EC48
:10519000180B06E05FEA487003D52B208DF800005D
:1051A000641C51EC180B02F091F9054602F0BDF9B0
:1051B00053EC182B02F01EFB41EC100B15B108A8A4
:1051C0000A210CE0302004F8010B12E095FBF1F20B
:1051D00001FB125295FBF1F5303200F8012B002D46
:1051E000F4DC08A9884204D910F8012D04F8012B39
:1051F000F8E706B32E2004F8010B00259FED269B4F
:1052000017E000BF53EC192B51EC100B02F0F4F92E
:1052100041EC180B02F05AF900F1300104F8011BBF
:1052200002F083F953EC182B02F0E4FA41EC100B76
:105230006D1CB542E6D3002020706846241AA742B0
:105240000AD93D1B5FEAC87004D005E0202148461A
:1052500000F0F4F86D1EF9D26D4603E048466D1C6F
:1052600000F0ECF829780029F8D1A7420AD95FEAC2
:10527000C87007D03C1B03E02021484600F0DEF850
:10528000641EF9D20DB0BDEC048BBDE8F0830000C4
:1052900000000000000000000000000000002440AA
:1052A0002DE9FC5F0E008146DDE90C47C6F10000E8
:1052B00098469346824600D40846012503E000BF85
:1052C00090FBFBF06D1C5845FADAA84500D945461D
:1052D00024B1002E01DB780700D5641EB80702D583
:1052E000B8F1000F0FD0F8070DD164B1A5420AD272
:1052F00020214846641E00F0A1F8D9F80C000028CF
:10530000F3DABDE8FC9FD9F80C000028F9DB002E89
:1053100002DA56462D2102E0780707D52B214846B0
:1053200000F08CF8D9F80C000028EADB07F0030045
:1053300002280FD1B8F1000F0CD15CB1A54209D2FF
:1053400030214846641E00F079F8D9F80C00002896
:10535000F3DAD6E7CDE9004743465A463146484698
:1053600000F002F8CDE700002DE9F84F8246DDE9B4
:105370000A4B0126984691460D460846374602E0FC
:10538000B0FBF9F07F1C4845FAD2B84500D9474632
:105390005FEACB7017D1B4B15FEA8B7002D5B8F178
:1053A000000F02D0202000900BE03020FBE7504699
:1053B000641E009900F042F8DAF80C00002838DB8F
:1053C0000CB1A742F3D3DAF80C00002831DB00BFA0
:1053D000B8F1010F02D9A8F1010803E0B5FBF6F01E
:1053E000484502D306FB09F6F2E7DFF84C8000BF20
:1053F000B5FBF6F000FB165518F80010504600F00B
:105400001DF8DAF80C00002803DBB6FBF9F6002ED5
:10541000EED15FEACB700CD0002C0AD0A74208D2A4
:1054200020215046641E00F009F8DAF80C0000282C
:10543000F2DABDE8F88F0000AF7C000810B5044632
:10544000D4E90130421C934205D323681954A26069
:10545000E068401CE060D4E90102824209D1216881
:105460002069FFF78FF8A168884203D04FF0FF3022
:10547000E06010BD0020A06010BD2DE9F047C468B9
:105480001746894606464FF000083069A04201D908
:10549000051B02E0B168201A0D1AB0686D1E001BD2
:1054A000A84200D80546BD4200D33D4670682A4652
:1054B00020444946FAF76AFFB0687F1B2C44A84491
:1054C000A944A04200D10024F460002FDDD1404661
:1054D000BDE8F0872DE9F04104468846D4E902078B
:1054E000C51BE168606816460844B54206D94146C6
:1054F000FAF74CFFB819E060BDE8F0812A46414652
:10550000FAF744FF761B08EB050132466068FAF7AC
:105510003DFFE660F0E703B401984100009850EACF
:10552000C12018BF04204A0D18BF40F0010040F20E
:10553000FF72B2EB515F08BF40F00200012808BFC4
:10554000052002B070470907090E002804DB00F1AE
:10555000E02080F80014704700F00F0000F1E02018
:1055600080F8141D7047000010B52F499FED2C1BCB
:105570002DED020B84B0059820F000408842D8BF82
:105580009DED040B2DDD2949884209D1049840B9CD
:105590004FF00100FBF703F800F0E2FC06B010BD8D
:1055A00005DB9DED040B00F0CFFC06B010BD684696
:1055B0009DED040B00F0E0F810F0030004BF9DED3A
:1055C000021B9DED000B0CD001280ED09DED021B9F
:1055D0009DED000B022817D0012000F01DFC06B045
:1055E00010BD00F0E5FA06B010BD9DED021B9DED6B
:1055F000000B012000F010FC51EC100B01F01CFD21
:1056000006B041EC100B10BD00F0D2FA51EC100BBB
:1056100001F012FD06B041EC100B10BD00000000BF
:105620000000000000000000FB21E93F0000F07FC7
:1056300010B52F499FED2C1B2DED020B84B0059862
:1056400020F000408842DCBF00209DED040B32DDDD
:105650002849884209D1049840B94FF00100FAF76F
:105660009EFF00F07DFC06B010BD05DB9DED040B38
:1056700000F06AFC06B010BD68469DED040B00F01A
:105680007BF810F0030011D0012818D09DED021B0B
:105690009DED000B02281AD000F08AFA51EC100B95
:1056A00001F0CAFC06B041EC100B10BD9DED021BD1
:1056B0009DED000B012000F0AFFB06B010BD9DED8D
:1056C000021B9DED000B00F073FA06B010BD012027
:1056D00000F0A2FB51EC100B01F0AEFC06B041EC67
:1056E000100B10BD000000000000000000000000D2
:1056F000FB21E93F0000F07F00B52DED048BB0EEFB
:10570000409AF0EE609A83B051EC190B02F07EF8EB
:1057100041EC180B18EE100A18EE901A8DED008B64
:10572000002818BF0120084320F00040C0F17F602E
:1057300000F1E040C00F14D019EE101A19EE900AD3
:105740008DED009B002918BF0121084320F0004087
:10575000C0F17F6000F1E040C00F04BF0120FAF704
:105760001EFFB0EE480A03B0F0EE680ABDEC048BF1
:1057700000BD0000000000002DE9F14F04462DEDB2
:10578000020B2DED088B8AB09FEDE70B80ED020B2D
:10579000139EE74826F0004585420ADC9DED120B7A
:1057A000002084ED000B0AB0BDEC088B03B0BDE80F
:1057B000F08FE0489FEDE0AB9FEDE1BBA84247DDF5
:1057C000E14F9FEDE39B9FEDE48B9DED120B53ECBE
:1057D0001A2B51EC100B002E1CDD02F0E3F841EC0B
:1057E000100BBD4208D053EC1B2B51EC100B02F0F8
:1057F000D9F8C4E900010BE053EC192B51EC100B64
:1058000002F0D0F853EC182B02F0CCF8C4E90001F8
:105810000120C8E701F04EFC41EC100BBD4208D05E
:1058200053EC1B2B51EC100B01F044FCC4E90001BC
:105830000BE053EC192B51EC100B01F03BFC53EC3B
:10584000182B01F037FCC4E900014FF0FF30AAE744
:10585000C348A84279DB9DED120B51EC100B00F010
:10586000F7FB41EC180B9FEDC00B53EC102B01F034
:10587000C3FE9FEDBF1B53EC112B01F01BFC01F08D
:1058800025FE074601F051FE41EC190B53EC1A2B93
:1058900001F0B2FE53EC182B01F0ACFF41EC180BF9
:1058A00053EC1B2B51EC190B01F0A6FEDFF8C8A23C
:1058B00041EC100B4FEA15580125FA4453EC102B1C
:1058C00051EC180B02F06EF8032DC4E900013DD035
:1058D000C1F30A5005EB4511A8EB000011398142D4
:1058E00034DA0AEB051BB0EE48AA9BED000BF0EE94
:1058F00068AA53EC102B51EC190B01F07DFE41EC22
:105900001B0B51EC1A0B53EC1B2B02F04BF841EC28
:10591000180B51EC1A0B53EC182B02F043F853EC14
:105920001B2B02F03FF89BED020B41EC1A0B53ECE2
:10593000102B51EC190B01F05FFE53EC1A2B02F007
:1059400031F841EC100B6D1CB8E70EE0002EA8BF3B
:105950003846BFF628AF94ED000B51EC100B01F068
:105960006BFBC4E9000178421DE7C6F3130040F465
:10597000801EC6F30A50A0F2F530471100F01F0553
:10598000C5F12000DDF848B008900020069007908F
:105990000520EC467949002D07EB0002794408BF49
:1059A00051F8221009D051F8223001EB8201AB40AE
:1059B0004A68089922FA01F11943A1FB0E26A1FBBE
:1059C0000B131A449A4234BF0123002303EB060849
:1059D0000CEB8003D3E901A60E448E4234BF0121B3
:1059E000002192448A4411B1924502D903E09245C4
:1059F00001D2012100E00021C3E901A641444CF895
:105A00002010011EA0F10100C4DC029800F100503A
:105A1000850F0298DDE903678000DDF8148001F04E
:105A200084FD41EC1A0B304601F096FD9FED541BAE
:105A300053EC112B01F0E0FD41EC1B0B384601F05B
:105A40008BFD9FED511B53EC112B01F0D5FD41EC6B
:105A5000180B404601F080FD9FED4D1B53EC112BC0
:105A600001F0CAFD41EC190B51EC180B53EC192B4A
:105A700001F020FB53EC1B2B01F01CFB53EC1A2B09
:105A800001F018FBCDE90801002008909DED080BFE
:105A900053EC1A2B51EC100B01F084FF53EC1B2B31
:105AA00001F080FF53EC182B01F07CFF53EC192B15
:105AB00001F0A0FE9FED381B53EC112B01F09CFD73
:105AC0009FED370B41EC180B53EC102B9DED080BA1
:105AD00051EC100B01F090FD53EC182B01F0EAFA99
