:020000040800F2
:1000000000000220B1280008E5240008F1240008BF
:10001000F924000801250008092500080000000057
:100020000000000000000000000000001125000892
:100030001F250008000000002D2500083B250008B2
:1000400001290008012900080129000801290008E8
:1000500001290008012900080129000801290008D8
:1000600001290008012900080129000801290008C8
:1000700001290008012900080129000801290008B8
:100080000129000801290008492500080129000864
:1000900001290008C92500080129000801290008D4
:1000A00001290008DD2500080129000801290008B0
:1000B0000129000801290008012900080129000878
:1000C0000129000801290008012900080129000868
:1000D0000129000801290008012900080129000858
:1000E0000129000801290008012900080129000848
:1000F0000129000801290008012900080129000838
:100100000129000801290008012900080129000827
:100110000129000801290008012900080129000817
:100120000129000801290008012900080129000807
:1001300001290008012900080129000801290008F7
:1001400001290008012900080129000801290008E7
:1001500001290008012900080129000801290008D7
:1001600001290008012900080129000801290008C7
:1001700001290008012900080129000801290008B7
:1001800001290008012900080129000801290008A7
:1001900001290008000000000129000801290008C9
:1001A0000129000801290008012900080129000887
:1001B0000129000801290008012900080129000877
:1001C0000129000801290008012900080129000867
:0801D0000129000801290008C3
:1001D8000348044B834202D0034B03B118477047CE
:1001E8008C0100208C010020000000000548064B0F
:1001F8001B1AD90F01EBA301491002D0034B03B11D
:10020800184770478C0100208C0100200000000076
:1002180010B5064C237843B9FFF7DAFF044B13B146
:100228000448AFF300800123237010BD9001002023
:1002380000000000D4DC000808B5044B1BB10449D9
:100248000448AFF30080BDE80840CFE70000000095
:1002580094010020D4DC000808B52DED028BF0EEE7
:10026800408AB0EE608A00F051F8F4EE488AF1EE68
:1002780010FA06D6DFED098AB4EE688AF1EE10FAB4
:1002880002D0BDEC028B08BD01F0F4F988EEA80A93
:10029800BDEC028B2123036008BD00BF00000000F5
:1002A800F8B52DED028B57EC106B55EC114B00F0A7
:1002B800EFF83046394622462B46B0EE408AF0EE3B
:1002C800608A00F011FF30B9002200232046294639
:1002D80000F0D8FE30B9B0EE480AF0EE680ABDEC7E
:1002E800028BF8BD01F0C6F900220023212101602C
:1002F8001046194600F088FD41EC180BB0EE480A8C
:10030800F0EE680ABDEC028BF8BD00BF70B582B094
:10031800CDED010A019820F000435A1EB2F1FF4FBB
:100328003BD210EE101A21F00044B4F1FF4F34D242
:100338009C4238DB01F0004258D011F0FF4F00F02A
:10034800FF463ED14FEA042C6FF07D054FEA4C0C76
:10035800BCF1000F05F1FF35F8DC002E66D118025C
:100368006FF07D0E40000EF1FF3EFBD515F17E0FBC
:1003780077DA6FF07D00411B04FA01F1A5EB0E0559
:10038800A0EB0E04A340681EA5B9CB1A002B75DBA1
:100398002CD0B3F5000F35DB41E0DDED017A60EEDE
:1003A800277A87EEA70A02B070BD1FD04FEA4C012A
:1003B800013822D3A1EB030CBCF1000FF5DA490098
:1003C800F6E7E51586B3DB15C0F31600ED1AC1F3A1
:1003D8001601A3F17F0E41F4000140F40003681EEA
:1003E800002DE7D1CB1A002B30DB0BD1274B03EBC9
:1003F800527393ED000A02B070BDCB1A48BF0B468A
:100408001BB9F3E75B000EF1FF3EB3F5000FF9DB14
:100418001EF17E0F1BDA6FF07D04A4EB0E0423415E
:10042800134300EE103ABEE77F3D98E7DB15A3F1D2
:100438007F0EC0F316006FF07D0140F40003491BE6
:10044800A5EB0E0004FA01F10138B3E70B46A3F55A
:1004580000030EF17F0E134343EACE5300EE103A29
:10046800A1E76FF07D04C1F31601A5EB0E00A4EB24
:100478000E0441F400010138A3409BE70029B5D0E0
:10048800B1F5000F0B46BDDBC9E700BF94DE0008DD
:1004980053EC112B2DE9F04123F0004752EA0704F1
:1004A80051EC100B53D0C14C21F00048A0458C46AC
:1004B8004DD85442BE4E144347EAD474B44215464C
:1004C80045D8B8459E46024601F0004449DCC0F2D2
:1004D800BC80854200F2B98000F00581314250D1DC
:1004E800B8F1000F3FD10028034640F35481B149C9
:1004F8005B00002B01F1FF31FADCAD4B0EEA030380
:10050800002B40F0C680002F40F0F480002D2B46D1
:1005180000F3A480A848401A1F2800F3758101F24F
:100528001E4322FA03F308FA00F8A24E43EA08032E
:1005380082404FF0150E06F21E4007FA0EFC25FA0F
:1005480000F005FA0EF5571B40EA0C0E2EE000F0FD
:1005580031FB02460B4600F057FC41EC100BBDE89E
:10056800F08131420DD194494FEAC8235B00002B3A
:1005780001F1FF31C1DD5B00002B01F1FF31F5DC3A
:10058800BBE78B4B4FEA28500EEA0303A0F2FF317A
:10059800002B5DD03F15CCF31303CEF3130EA7F257
:1005A800FF3643F480134EF4801E571B881B411EF0
:1005B80060B926E001381CD4A2EB050C4FEADC73C5
:1005C800013903EB40034FEA4C0219D3AA42A3EBCB
:1005D8000E00EFD30028A2EB050C0ADB50EA0C034F
:1005E800ECD1764BE40F03EBC40393ED000BBDE8AD
:1005F800F081D00F013900EB43034FEA4202E5D204
:10060800571BA3EB0E00AA4238BF00F1FF300028A9
:10061800BCBF1746184650EA070305D1E1E7FB0FB0
:1006280003EB40007F00013EB0F5801FF7DB624B13
:100638009E4242DBA0F5801006F2FF36204340EAD6
:1006480006533A4643EC102B89E741EC100B86E73A
:10065800002F4FD1002D2B4640F3B480554E5B0040
:10066800002B06F1FF36FADC534881424ADBA0EB47
:10067800060ECCF31303BEF11F0F43F480137FF76C
:100688005AAF4F48801B891B05FA00FE0139002527
:100698009CE74948401A4FEA275C1F28ACF2FF360E
:1006A80052DD474BCEF3130E5B1A891B02FA03F394
:1006B8004EF4801E0139002288E7A3EB060CBCF13A
:1006C800140F51DC06F21E4327FA0CF700FA03F365
:1006D80040FA0CFC4CEA040443EA070023460246AD
:1006E80043EC102B3BE7354B03EB147393ED000BF6
:1006F80035E73049304EFB025B00002B06F1FF3630
:10070800FADCB1E7A0EB010CBCF11F0F0FDCA0EB8A
:10071800060E01F21E4322FA03F308FA0CF8BEF1A2
:100728001F0F43EA080302FA0CF2AADC03E7A0EB66
:10073800060C2348BCF11F0FA0EB0103E64602FAA2
:1007480003F31DDC0022F6E601F21E4322FA03F34E
:1007580008FA00F843EA08038240CEF3130E891B17
:100768004EF4801E013931E7BCF11F0F0FDC06F291
:100778001E4327FA0CF700FA03F343EA0700ADE734
:10078800801B891B05FA00FE27D000227EE70C4B50
:100798009B1B1841A2E7064B0EEA03034BB33F1518
:1007A8000449A7F2FF36C30A4205D6E7FFFFEF7FE9
:1007B8000000F07FEDFBFFFF02FCFFFFA0DE00085A
:1007C800E2FBFFFFCCF313034FEAD52E194E43F497
:1007D800801300F113016D05F8E6A3EB0E00002865
:1007E8001EDB3FF4FEAEB0F5801F0F46FFF617AFD5
:1007F80065E7002F7FF47DAF002D0E492B46D8BF4B
:1008080015203FF72BAF8AE60B4B0A4E5B1A02FA0C
:1008180003F34FEAD52E01F212413A466D05D5E6AB
:10082800002B3FF4DEAEB3F5801F18460F46FFF6E7
:10083800F6AE44E7EDFBFFFFE2FBFFFF81F000416E
:1008480002E000BF83F0004330B54FEA41044FEAAD
:10085800430594EA050F08BF90EA020F1FBF54EA48
:10086800000C55EA020C7FEA645C7FEA655C00F0E4
:10087800E2804FEA5454D4EB5555B8BF6D420CDDB5
:100888002C4480EA020281EA030382EA000083EA38
:10089800010180EA020281EA0303362D88BF30BDD8
:1008A80011F0004F4FEA01314FF4801C4CEA11312E
:1008B80002D0404261EB410113F0004F4FEA03338D
:1008C8004CEA133302D0524263EB430394EA050F18
:1008D80000F0A780A4F10104D5F1200E0DDB02FA87
:1008E8000EFC22FA05F2801841F1000103FA0EF21B
:1008F800801843FA05F359410EE0A5F120050EF1E1
:10090800200E012A03FA0EFC28BF4CF0020C43FA11
:1009180005F3C01851EBE37101F0004507D54FF01E
:10092800000EDCF1000C7EEB00006EEB0101B1F56E
:10093800801F1BD3B1F5001F0CD349085FEA3000B4
:100948004FEA3C0C04F101044FEA445212F5800FBF
:1009580080F09A80BCF1004F08BF5FEA500C50F15C
:10096800000041EB045141EA050130BD5FEA4C0C3F
:10097800404141EB0101013C28BFB1F5801FE9D29C
:1009880091F0000F04BF01460020B1FA81F308BFBF
:100998002033A3F10B03B3F120020CDA0C3208DD8B
:1009A80002F1140CC2F10C0201FA0CF021FA02F166
:1009B8000CE002F11402D8BFC2F1200C01FA02F1D6
:1009C80020FA0CFCDCBF41EA0C019040E41AA2BFFB
:1009D80001EB0451294330BD6FEA04041F3C1CDAC3
:1009E8000C340EDC04F11404C4F1200220FA04F0E3
:1009F80001FA02F340EA030021FA04F345EA03018D
:100A080030BDC4F10C04C4F1200220FA02F001FA4E
:100A180004F340EA0300294630BD21FA04F02946D0
:100A280030BD94F0000F83F4801306BF81F4801169
:100A38000134013D4EE77FEA645C18BF7FEA655CDC
:100A480029D094EA050F08BF90EA020F05D054EAAE
:100A5800000C04BF1946104630BD91EA030F1EBFB3
:100A68000021002030BD5FEA545C05D140004941B7
:100A780028BF41F0004130BD14F580043CBF01F5AA
:100A8800801130BD01F0004545F0FE4141F4700190
:100A98004FF0000030BD7FEA645C1ABF194610466B
:100AA8007FEA655C1CBF0B46024650EA013406BF6C
:100AB80052EA033591EA030F41F4002130BD00BF2B
:100AC80090F0000F04BF0021704730B54FF48064E8
:100AD80004F132044FF000054FF0000150E700BF69
:100AE80090F0000F04BF0021704730B54FF48064C8
:100AF80004F1320410F0004548BF40424FF00001B5
:100B08003EE700BF42004FEAE2014FEA31014FEAF7
:100B180002701FBF12F07F4393F07F4F81F0605146
:100B2800704732F07F4208BF704793F07F4F04BF91
:100B380041F40021704730B54FF4607401F000456E
:100B480021F000411CE700BF50EA010208BF7047CE
:100B580030B54FF000050AE050EA010208BF7047BF
:100B680030B511F0004502D5404261EB41014FF428
:100B7800806404F132045FEA915C3FF4D8AE4FF030
:100B880003025FEADC0C18BF03325FEADC0C18BF13
:100B9800033202EBDC02C2F1200300FA03FC20FA64
:100BA80002F001FA03FE40EA0E0021FA02F11444B1
:100BB800BDE600BF70B54FF0FF0C4CF4E06C1CEACA
:100BC80011541DBF1CEA135594EA0C0F95EA0C0F3B
:100BD80000F0DEF82C4481EA030621EA4C5123EAAE
:100BE8004C5350EA013518BF52EA033541F48011DD
:100BF80043F4801338D0A0FB02CE4FF00005E1FB90
:100C080002E506F00042E0FB03E54FF00006E1FBD9
:100C180003569CF0000F18BF4EF0010EA4F1FF041C
:100C2800B6F5007F64F5407404D25FEA4E0E6D415C
:100C380046EB060642EAC62141EA55514FEAC5206D
:100C480040EA5E504FEACE2EB4F1FD0C88BFBCF5E9
:100C5800E06F1ED8BEF1004F08BF5FEA500E50F19A
:100C6800000041EB045170BD06F0004646EA010160
:100C780040EA020081EA0301B4EB5C04C2BFD4EB92
:100C88000C0541EA045170BD41F480114FF0000E8B
:100C9800013C00F3AB8014F1360FDEBF002001F0F9
:100CA800004170BDC4F10004203C35DA0C341BDC73
:100CB80004F11404C4F1200500FA05F320FA04F045
:100CC80001FA05F240EA020001F0004221F0004179
:100CD80010EBD37021FA04F642EB06015EEA430EEC
:100CE80008BF20EAD37070BDC4F10C04C4F120051C
:100CF80000FA04F320FA05F001FA04F240EA0200CF
:100D080001F0004110EBD37041F100015EEA430E9F
:100D180008BF20EAD37070BDC4F1200500FA05F2BF
:100D28004EEA020E20FA04F301FA05F243EA02033E
:100D380021FA04F001F0004121FA04F220EA02004D
:100D480000EBD3705EEA430E08BF20EAD37070BD93
:100D580094F0000F0FD101F00046400041EB010173
:100D680011F4801F08BF013CF7D041EA060195F055
:100D7800000F18BF704703F00046520043EB03030F
:100D880013F4801F08BF013DF7D043EA06037047FC
:100D980094EA0C0F0CEA135518BF95EA0C0F0CD007
:100DA80050EA410618BF52EA4306D1D181EA03014D
:100DB80001F000414FF0000070BD50EA410606BF47
:100DC8001046194652EA430619D094EA0C0F02D18C
:100DD80050EA013613D195EA0C0F05D152EA0336D1
:100DE8001CBF104619460AD181EA030101F00041EF
:100DF80041F0FE4141F470014FF0000070BD41F038
:100E0800FE4141F4780170BD70B54FF0FF0C4CF411
:100E1800E06C1CEA11541DBF1CEA135594EA0C0F30
:100E280095EA0C0F00F0A7F8A4EB050481EA030E7D
:100E380052EA03354FEA013100F088804FEA033364
:100E48004FF0805545EA131343EA12634FEA022232
:100E580045EA111545EA10654FEA00260EF00041F3
:100E68009D4208BF964244F1FD0404F5407402D245
:100E78005B084FEA3202B61A65EB03055B084FEAD6
:100E880032024FF480104FF4002CB6EB020E75EBD3
:100E9800030E22BFB61A754640EA0C005B084FEAFB
:100EA8003202B6EB020E75EB030E22BFB61A754678
:100EB80040EA5C005B084FEA3202B6EB020E75EBC3
:100EC800030E22BFB61A754640EA9C005B084FEA3B
:100ED8003202B6EB020E75EB030E22BFB61A754648
:100EE80040EADC0055EA060E18D04FEA051545EA37
:100EF80016754FEA06164FEAC30343EA52734FEAE0
:100F0800C2025FEA1C1CC0D111F4801F0BD141EA58
:100F180000014FF000004FF0004CB6E711F4801FBD
:100F280004BF01430020B4F1FD0C88BFBCF5E06F9D
:100F38003FF6AFAEB5EB030C04BFB6EB020C5FEAAD
:100F4800500C50F1000041EB045170BD0EF0004E02
:100F58004EEA113114EB5C04C2BFD4EB0C0541EA34
:100F6800045170BD41F480114FF0000E013C90E631
:100F780045EA060E8DE60CEA135594EA0C0F08BFF5
:100F880095EA0C0F3FF43BAF94EA0C0F0AD150EAF4
:100F980001347FF434AF95EA0C0F7FF425AF104687
:100FA80019462CE795EA0C0F06D152EA03353FF4AF
:100FB800FDAE1046194622E750EA410618BF52EA2C
:100FC80043067FF4C5AE50EA41047FF40DAF52EA00
:100FD80043057FF4EBAE12E74FF0FF3C06E000BF9D
:100FE8004FF0010C02E000BF4FF0010C4DF804CDAA
:100FF8004FEA410C7FEA6C5C4FEA430C18BF7FEA6A
:101008006C5C1BD001B050EA410C0CBF52EA430C97
:1010180091EA030F02BF90EA020F0020704710F117
:10102800000F91EA030F58BF994208BF90422CBFA6
:10103800D8176FEAE37040F0010070474FEA410C9F
:101048007FEA6C5C02D150EA013C07D14FEA430CBD
:101058007FEA6C5CD6D152EA033CD3D05DF8040B2E
:10106800704700BF8446104662468C461946634660
:1010780000E000BF01B5FFF7B7FF002848BF10F137
:10108800000F01BD4DF808EDFFF7F4FF0CBF01207C
:1010980000205DF808FB00BF4DF808EDFFF7EAFFF8
:1010A80034BF012000205DF808FB00BF4DF808EDB3
:1010B800FFF7E0FF94BF012000205DF808FB00BFA8
:1010C8004DF808EDFFF7CEFF94BF012000205DF832
:1010D80008FB00BF4DF808EDFFF7C4FF34BF01203F
:1010E80000205DF808FB00BF4FEA410C7FEA6C5C0A
:1010F80002D150EA013C0AD14FEA430C7FEA6C5C0A
:1011080002D152EA033C02D14FF0000070474FF081
:10111800010070474FEA410212F5001215D211D5AD
:101128006FF47873B3EB625212D94FEAC12343F0DC
:10113800004343EA505311F0004F23FA02F018BF5E
:10114800404270474FF00000704750EA013005D127
:1011580011F0004008BF6FF0004070474FF00000EA
:10116800704700BF4FEA4102B2F1E04324BFB3F534
:10117800001CDCF1FE5C0DD901F0004C4FEAC00206
:101188004CEA5070B2F1004F40EB830008BF20F0EA
:101198000100704711F0804F21D113F13872BCBFA4
:1011A80001F00040704741F480114FEA5252C2F1F9
:1011B8001802C2F1200C10FA0CF320FA02F018BF42
:1011C80040F001004FEAC1234FEAD32303FA0CFC95
:1011D80040EA0C0023FA02F34FEA4303CCE77FEA24
:1011E800625307D150EA01331EBF4FF0FE4040F46E
:1011F8004000704701F0004040F0FE4040F400001D
:10120800704700BF844641EA000313F003036DD121
:10121800403A41D351F8043B40F8043B51F8043BB1
:1012280040F8043B51F8043B40F8043B51F8043BB8
:1012380040F8043B51F8043B40F8043B51F8043BA8
:1012480040F8043B51F8043B40F8043B51F8043B98
:1012580040F8043B51F8043B40F8043B51F8043B88
:1012680040F8043B51F8043B40F8043B51F8043B78
:1012780040F8043B51F8043B40F8043B51F8043B68
:1012880040F8043B51F8043B40F8043B51F8043B58
:1012980040F8043B403ABDD2303211D351F8043BF8
:1012A80040F8043B51F8043B40F8043B51F8043B38
:1012B80040F8043B51F8043B40F8043B103AEDD2A7
:1012C8000C3205D351F8043B40F8043B043AF9D2F8
:1012D800043208D0D2071CBF11F8013B00F8013BCB
:1012E80001D30B8803806046704700BF082A13D3D8
:1012F8008B078DD010F003038AD0C3F10403D21AF0
:10130800DB071CBF11F8013B00F8013B80D331F823
:10131800023B20F8023B7BE7043AD9D3013A11F8A3
:10132800013B00F8013BF9D20B7803704B7843700E
:101338008B788370604670478842F0B514D98B1853
:10134800834211D9032A00EB020166D802F1FF3C5F
:101358004AB16FEA0C0C0A469C4413F8011D02F8C6
:10136800011D6345F9D1F0BD032A0FD8034602F1E8
:10137800FF3C002AF7D00CF1010C013B8C4411F81A
:10138800012B03F8012F6145F9D1F0BD41EA0003B3
:101398009B073ED10F2A64D9A2F1100301F1100472
:1013A80023F00F032031A446194400F1100E5CF815
:1013B800105C4EF8105C5CF80C5C4EF80C5C5CF849
:1013C800085C4EF8085C5CF8045C4EF8045C0CF1B0
:1013D800100C8C450EF1100EE9D1E11812F00C0F2B
:1013E800034402F00F0E03F1100338D02EF003056A
:1013F800043D1A1F5E198C465CF8044B42F8044FF2
:10140800B242F9D10431043329442B440EF00302CB
:10141800ADE702F1FF3C0346ADE741EA0304A40748
:101428001F4602D002F1FF3C93E7A2F1040E2EF012
:1014380003068E1B4FEA9E0E8C46644653F8045DE5
:101448004CF8045DB442F8D1CEEB8E7301EB830106
:1014580007EB83073B1F043902F0030276E7724665
:1014680085E703469646C1E770B5104E33680546D2
:101478000C46B3B12146284600F02AF9431C0CD08B
:10148800C41C24F00304A04205D0211A284600F009
:101498001FF9013001D0204670BD4FF0FF342046BF
:1014A80070BD194600F014F93060E3E7AC01002084
:1014B8002DE9F843CD1C25F0030508350C2D38BF60
:1014C8000C25002D064618DBA94216D8DFF8DC806B
:1014D80000F0CCF8D8F80420A2B1144603E0636801
:1014E80022467BB11C4623685B1BF8D40B2B1FD804
:1014F800A242636854D053600CE00C233360002090
:10150800BDE8F88329463046FFF7AEFF431C044682
:1015180019D00560304600F0ABF804F10B00231D2C
:1015280020F00700C21A1CBF1B1AA350BDE8F8839D
:101538006119A242256014BF5160C8F804106351B4
:1015480063684B60E6E7D8F804701FB33C467F68D1
:10155800002FFBD123683946304604EB030900F01D
:10156800B7F8814516D12368ED1A29463046FFF7AA
:101578007BFF01300ED02368D8F804202B44236069
:10158800536883B1A34203D01A465B689C42FBD1DF
:101598000023B0E70C233360304600F069F8AEE76B
:1015A800C8F80430B6E7C8F80470B3E7AC01002007
:1015B800024B01461868FFF77BBF00BF0000002000
:1015C800024B0146186800F095B800BF00000020E3
:1015D800830730B546D08418844604E003F8011B1D
:1015E8009D0704D09C46A4456346F7D130BD013A17
:1015F8000244A2EB0C02032A29D9CCB204EB04243E
:101608000F2A04EB04442FD9A2F1100C2CF00F0C74
:1016180003F11005AC44C3E90044C3E902441033A4
:101628006345F8D112F00C0F02F00F0E18D02EF00F
:10163800030C9C44AEF104051A4642F8044B62457B
:10164800FBD125F0030404330EF003022344002ADF
:10165800CCD0C9B21A4403F8011B9342FBD130BD68
:101668007246F4E70346C6E79646E0E7704700BFD0
:10167800704700BF014B1868704700BF000000208A
:1016880070B50F4B0F4DAB42A3EB050607D0B61054
:10169800002455F8043B01349847A642F9D80CF0C9
:1016A80015FB094D094B5E1BAB424FEAA60606D057
:1016B800002455F8043B01349847A642F9D870BD78
:1016C80010E7000810E7000810E7000814E7000812
:1016D80038B5074D0022044608462A6001F0ACF8E8
:1016E800431C00D038BD2B68002BFBD0236038BDCD
:1016F800F0020020002950D038B551F8043C0C1FE6
:10170800002BB8BFE4180546FFF7B0FF274A136857
:101718002BB1A3420CD92168601883422CD0636096
:1017280028461460BDE83840FFF7A2BFA3420FD88F
:101738001A465B68002BF9D111685018844217D0FB
:101748002CD3636054602846BDE83840FFF790BF4B
:1017580011685018A04214D020D82168601883421C
:10176800EFD118685B680844C4E900035460EAE7ED
:1017780023680B441360E6E718685B680844206038
:10178800CDE720680144501883421160DBD1D3E9CA
:1017980000040144C2E90014D5E770470C232B600C
:1017A8002846BDE83840FFF763BF00BFB0010020FE
:1017B80080B52DED028B82B000AF07F0DFF900F0A5
:1017C800B3F800F009F900F05BFB00F097FB00F0BC
:1017D800B9FC00F0BFFD00F095F900F09BFA00F0AD
:1017E800CDFB04F0B5FC002004F0B8FC434804F03D
:1017F80002FB434803F044F8424803F0DBFC03F0E3
:1018080083FC0346404A136004F044F94FF47A70AD
:1018180007F024FA00237B6046E03A4803F0DEFC38
:10182800384BD3ED017AB0EE670A354802F01CFE5A
:10183800334BD3F858325B0007EE903AF8EEE77A6C
:101848009FED327A27EE878A2D4B93EDB37A2C4B96
:10185800D3ED927A77EE677AB0EE670A01F00CF969
:10186800F0EE407A78EE277A254B03F58863C3EDCE
:10187800007A234B03F58863D3ED007A204B93ED70
:10188800917AF0EE470AB0EE670A01F029F9F0EE16
:10189800407A1B4BC3EDB67A194BD3F88C32012032
:1018A80098477B6801337B607B681D2B06DC144BF3
:1018B800D3F858324FF6FF729342AED092221449B1
:1018C800144804F085FA92221349124804F004FAE5
:1018D8001249002005F06AF9114B1B685A68104B31
:1018E8001B6842F020025A600E4B1B68DA680D4BE9
:1018F8001B6842F00102DA6000BFFDE7F402002035
:10190800000300207C07002078070020DB0F4940F7
:1019180018030020000004088C070020F0DC0008F1
:10192800600A00205C0C002080B594B000AF07F17D
:101938001803382200211846FFF74AFE3B1D0022F3
:101948001A605A609A60DA601A61002008F08EFD09
:101958000123BB614FF48033FB6102237B630323C4
:10196800BB630223FB6355233B6402237B6402238E
:10197800BB640223FB6407F11803184607F090F9CB
:101988000346002B01D000F01BF80F237B600323D4
:10199800BB600023FB6000233B6100237B613B1D90
:1019A8000421184607F08EFC0346002B01D000F0F6
:1019B80007F807F025FE00BF5037BD4680BD000080
:1019C80080B500AF72B600BF0249002005F0EEF8FE
:1019D800FAE700BF04DD000880B58AB000AF07F160
:1019E800140300221A605A609A60DA601A61424B46
:1019F800DB6C414A43F00403D3643F4BDB6C03F0D8
:101A080004033B613B693C4BDB6C3B4A43F02003DE
:101A1800D364394BDB6C03F02003FB60FB68364B67
:101A2800DB6C354A43F00103D364334BDB6C03F0C2
:101A38000103BB60BB68304BDB6C2F4A43F00203E9
:101A4800D3642D4BDB6C03F002037B607B680022C0
:101A58004FF46041294808F0D7FC002241F6C161E3
:101A6800274808F0D1FC00224FF400414FF0904085
:101A780008F0CAFC4FF460437B610123BB6100237B
:101A8800FB6100233B6207F1140319461B4808F069
:101A98002FFB41F6C1437B610123BB610023FB613E
:101AA80003233B6207F114031946154808F020FB8D
:101AB8004FF400437B610123BB610023FB610323D7
:101AC8003B6207F1140319464FF0904008F010FBF1
:101AD8004FF400737B610123BB610023FB6100238A
:101AE8003B6207F114031946054808F001FB00BFE3
:101AF8002837BD4680BD00BF0010024000080048DE
:101B08000004004880B592B000AF07F13C03002202
:101B18001A605A609A603B463C2200211846FFF73B
:101B280057FD4A4B4FF0A0421A60484B4FF44032E1
:101B38005A60464B00229A60444B0022DA60434BBD
:101B480000221A61414B01225A61404B04229A61DA
:101B58003E4B00221A773D4B00225A773B4B01221D
:101B68001A623A4B002283F82420384B002283F86B
:101B78003820364B0022DA63344B002283F84020A9
:101B8800324805F043FA0346002B01D0FFF718FF4F
:101B98000023FB6307F13C0319462C4806F0E6FED8
:101BA8000346002B01D0FFF70BFF294B3B600923AD
:101BB8007B600023BB607F23FB6004233B61002321
:101BC8007B6103233B62002387F82430002387F8D6
:101BD8002530002387F826308423BB624FF48073B6
:101BE800FB62002387F830303B461946174806F059
:101BF80091F90346002B01D0FFF7E2FE154B3B603D
:101C080040F20F137B603B461946104806F082F9F4
:101C18000346002B01D0FFF7D3FE0F4B3B6040F289
:101C280015237B603B461946084806F073F90346BE
:101C3800002B01D0FFF7C4FE044800F00FF803485A
:101C480006F02EF800BF4837BD4680BD600A002068
:101C580002003004040060080800900C80B59EB0B3
:101C680000AF786007F1640300221A605A609A6036
:101C7800DA601A6107F11003542200211846FFF7B1
:101C8800A7FC7B681B68B3F1A04F3CD14FF400431D
:101C98003B614FF000537B6507F11003184607F0CE
:101CA80021FD0346002B01D0FFF78AFE184BDB6CA1
:101CB800174A43F40053D364154BDB6C03F4005309
:101CC800FB60FB68124BDB6C114A43F00103D364E1
:101CD8000F4BDB6C03F00103BB60BB6807237B661B
:101CE8000323BB660023FB6607F1640319464FF024
:101CF800904008F0FDF900220021122008F045FD6F
:101D0800122008F05CFD00BF7837BD4680BD00BFDB
:101D18000010024080B500AF254B264A1A60244BBC
:101D280000225A60224B4FF440729A60204B0022E6
:101D3800DA601F4B01221A741D4B00225A741C4B87
:101D480000229A741A4B11225A61194B03229A6184
:101D5800174B0522DA61164B04221A62144B012232
:101D68005A62134B05229A62114B1C22DA62104BFD
:101D780005221A630E4B01225A630D4B00229A6307
:101D88000B4B0022DA630A4808F034FD0346002BA7
:101D980001D0FFF715FE084803F01CFD00220121C1
:101DA800034809F0B5F8024808F009FF00BF80BDF4
:101DB800CC0A002000640040D409002080B59EB001
:101DC80000AF786007F1640300221A605A609A60D5
:101DD800DA601A6107F11003542200211846FFF750
:101DE800F7FB7B681B68244A934241D14FF4805328
:101DF8003B614FF00073BB6407F11003184607F00E
:101E080071FC0346002B01D0FFF7DAFD1B4B9B6DDD
:101E18001A4A43F000739365184B9B6D03F00073E7
:101E2800FB60FB68154BDB6C144A43F00103D36479
:101E3800124BDB6C03F00103BB60BB684FF4C0536B
:101E48007B660223BB660023FB6603233B670923EB
:101E58007B6707F1640319464FF0904008F048F992
:101E680000220221152008F090FC152008F0A7FC9C
:101E780000BF7837BD4680BD0064004000100240B6
:101E880080B500AF1B4B1C4A1A601A4B4FF4827284
:101E98005A60184B00229A60164B4FF47062DA6051
:101EA800144B00221A61134B01225A61114B4FF453
:101EB80000729A610F4B3822DA610E4B00221A62C7
:101EC8000C4B00225A620B4B00229A62094B0722E4
:101ED800DA62084B00221A63064B00225A6305484F
:101EE80009F080FB0346002B01D0FFF769FD00BF16
:101EF80080BD00BF300B00200030014080B500AF2E
:101F08001C4800F079F81B4B1B4A1A60194B4FF418
:101F180082725A60174B00229A60164B4FF4E062A7
:101F2800DA60144B02221A61124B01225A61114BDA
:101F38004FF400729A610F4B1022DA610D4B0022A8
:101F48001A620C4B00225A620A4B00229A62094B11
:101F58000722DA62074B00221A63064B00225A63F3
:101F6800044809F03FFB0346002B01D0FFF728FD8A
:101F780000BF80BD940B00200038004080B500AF42
:101F88001B4B1C4A1A601A4B4FF482725A60184B4A
:101F980000229A60164B4FF4E062DA60144B02227A
:101FA8001A61134B01225A61114B4FF400729A6166
:101FB8000F4B1822DA610E4B00221A620C4B0022DA
:101FC8005A620B4B00229A62094B0722DA62084BCD
:101FD80000221A63064B00225A63054809F002FBE7
:101FE8000346002B01D0FFF7EBFC00BF80BD00BF0C
:101FF800F80B0020003C004080B58EB000AF786040
:1020080007F1240300221A605A609A60DA601A61A4
:102018007B681B68464A934229D1464B1B6E454A4A
:1020280043F480531366434B1B6E03F480533B62A7
:102038003B6A404BDB6C3F4A43F00103D3643D4BA2
:10204800DB6C03F00103FB61FB69E0237B62022385
:10205800BB620023FB6200233B6305237B6307F11C
:10206800240319464FF0904008F042F85BE07B6883
:102078001B68314A934229D12E4B9B6D2D4A43F45C
:10208800804393652B4B9B6D03F48043BB61BB6915
:10209800284BDB6C274A43F00203D364254BDB6CE7
:1020A80003F002037B617B694FF460437B62022388
:1020B800BB620023FB6200233B6305237B6307F1BC
:1020C800240319461D4808F013F82CE07B681B68A8
:1020D8001B4A934227D1174B9B6D164A43F4004382
:1020E8009365144B9B6D03F400433B613B69114BB3
:1020F800DB6C104A43F00203D3640E4BDB6C03F035
:102108000203FB60FB6838237B620223BB62002367
:10211800FB6200233B6306237B6307F12403194614
:10212800064807F0E5FF00BF3837BD4680BD00BF51
:102138000030014000100240003800400004004810
:10214800003C004080B59CB000AF07F1600300225E
:102158001A605A609A60DA6007F1540300221A6024
:102168005A609A6007F1380300221A605A609A6030
:10217800DA601A615A619A613B1D342200211846BF
:10218800FFF726FA714B724A1A60704B00225A60A8
:102198006E4B20229A606D4B41F29A02DA606B4BCB
:1021A80000221A61694B00225A61684B80229A61A9
:1021B80066480AF059F90346002B01D0FFF700FCE6
:1021C8004FF480533B6607F1600319465F480AF0F5
:1021D800EBFD0346002B01D0FFF7F2FB5B480AF04A
:1021E8000BFA0346002B01D0FFF7EAFB00237B65BF
:1021F8000023BB650023FB6507F1540319465348C8
:102208000BF0F4FB0346002B01D0FFF7D9FB60234A
:10221800BB630023FB6300233B6400237B64002330
:10222800BB640023FB6400233B6507F138030022ED
:10223800194646480AF0A4FC0346002B01D0FFF7D4
:10224800BFFB07F138030422194640480AF098FCFE
:102258000346002B01D0FFF7B3FB07F13803082230
:1022680019463A480AF08CFC0346002B01D0FFF7C8
:10227800A7FB07F138030C22194634480AF080FC02
:102288000346002B01D0FFF79BFB00237B60002354
:10229800BB600023FB6000233B6100237B614FF49C
:1022A8000053BB610023FB6100233B6200237B6278
:1022B8004FF00073BB620023FB6200233B630023E3
:1022C8007B633B1D194621480BF026FC0346002B77
:1022D80001D0FFF775FB1D4800F0C8F81B480AF04D
:1022E8001BF90346002B01D0FFF76AFB00211748B2
:1022F8000AF0E4F90346002B01D0FFF761FB042143
:1023080012480AF0DBF90346002B01D0FFF758FB0F
:1023180008210E480AF0D2F90346002B01D0FFF736
:102328004FFB0C2109480AF0C9F90346002B01D0DC
:10233800FFF746FB054B1B684FF47A621A640348A3
:1023480000F094F800BF7037BD4680BD5C0C0020DB
:10235800002C014080B588B000AF07F110030022BF
:102368001A605A609A60DA603B1D00221A605A604F
:102378009A601F4B1F4A1A601D4B4FF496725A60A1
:102388001B4B00229A601A4B4FF6FF72DA60184B0B
:1023980000221A61164B00229A6115480AF064F867
:1023A8000346002B01D0FFF70BFB4FF480533B6132
:1023B80007F1100319460E480AF0F6FC0346002BF5
:1023C80001D0FFF7FDFA00237B600023FB603B1D73
:1023D800194607480BF00AFB0346002B01D0FFF70C
:1023E800EFFA03480AF098F800BF2037BD4680BDD1
:1023F800A80C00200004004080B584B000AF7860CD
:102408007B681B68164A934214D1164B1B6E154AFB
:1024180043F400631366134B1B6E03F40063FB6005
:10242800FB6800220121192008F0AFF9192008F0F3
:10243800C6F910E07B681B680B4A93420BD1094B25
:102448009B6D084A43F002039365064B9B6D03F0AE
:102458000203BB60BB6800BF1037BD4680BD00BF2C
:10246800002C0140001002400004004080B588B0F4
:1024780000AF786007F10C0300221A605A609A6076
:10248800DA601A617B681B68124A93421DD1124BAD
:10249800DB6C114A43F00103D3640F4BDB6C03F090
:1024A8000103BB60BB684FF4E063FB6002233B6140
:1024B80000237B610023BB610623FB6107F10C034A
:1024C80019464FF0904007F013FE00BF2037BD4675
:1024D80080BD00BF002C01400010024080B500AF55
:1024E80007F09EF800BFFDE780B400AF00BFFDE72E
:1024F80080B400AF00BFFDE780B400AF00BFFDE7C8
:1025080080B400AF00BFFDE780B400AF00BFBD4698
:102518005DF8047B704780B400AF00BFBD465DF82E
:10252800047B704780B400AF00BFBD465DF8047BF4
:10253800704780B500AF06F073FB00BF80BD000098
:1025480080B500AF1A4804F01DFF4FF40061194828
:1025580007F072FF184B1B68002B0AD1174BD3F8F2
:102568005C321946154801F0CFFD0346124A136044
:1025780008E0124BD3F85C32104A126A19460F4829
:1025880001F018FB0D4801F087FA0C4800F0CEFA6C
:102598000A4800F067FC094800F0D8FC074800F03A
:1025A800B8FE4FF40061034807F046FF00BF80BD46
:1025B800600A0020000400485C0A00200003002094
:1025C80080B500AF024808F089FD00BF80BD00BF9C
:1025D800CC0A002080B500AF02480AF081F900BF9C
:1025E80080BD00BF5C0C002080B582B000AF786071
:1025F8003960364B364A4021364808F04DFB364B99
:102608001B6E40F23122934251D040F23122934264
:102618004FD840F22122934245D040F221229342E2
:1026280047D840F21122934236D040F21122934209
:102638003FD8412B3FD0412B3BD8012B02D0112B47
:102648003BD036E02149244802F07CFE234B93ED31
:10265800B66A224BD3EDB85A204B93EDAA7A1F4B9A
:10266800D3ED0E6AB7EE005AC5EE267A67EE277AE2
:102678009FED1B2ADFED1A1AB0EE671AF0EE650A15
:10268800B0EE460A144802F0E7FE164B01221A6023
:10269800144B154A9A6011E0124B02221A600E4838
:1026A80002F0C8FF0AE00F4B03221A6006E000BFE1
:1026B80004E000BF02E000BF00E000BF064802F0EF
:1026C800E3FF00BF0837BD4680BD00BF080A0020F1
:1026D800340A0020CC0A0020D4090020000300207E
:1026E80000000000F4020020CDCCCC3D80B52DEDDB
:1026F800028B84B000AF7860354B5B6AFB817B68E6
:102708001B68334A93425CD1FB89B3F5FA7F58D2F0
:102718004FF480612F4807F08FFE2F4B1B68002B6A
:102728004AD02E4B93EDB78A2C4BD3E9042310469D
:102738001946FEF717FD0346294801EE103AF0EE58
:10274800480AB3EE040A00F0ADFE87ED020A234BF7
:1027580093EDAA8A214BD3E9042310461946FEF7C4
:1027680001FD03461F4801EE103AF0EE480A97EDC6
:10277800020A00F097FEF0EE407A184BC3EDB17AEA
:10278800164B93EDAB8A154BD3E904231046194633
:10279800FEF7E8FC0346144801EE103AF0EE480A4A
:1027A8009FED120A00F07EFEF0EE407A0B4BC3ED6F
:1027B800B27A0A4800F0FEFE4FF48061054807F03F
:1027C8003BFE00BF1037BD46BDEC028B80BD00BF8D
:1027D800002C0140000400485C0A0020000300208F
:1027E80020060020980600205C060020000000005B
:1027F80080B582B000AF0F4B1B6E0E4A43F0010349
:1028080013660C4B1B6E03F001037B607B68094B5E
:102818009B6D084A43F080539365064B9B6D03F00C
:1028280080533B603B6807F0C5FE00BF0837BD46D4
:1028380080BD00BF0010024080B586B000AF786050
:10284800154A164BD31A7B617B693B61144B1B6895
:10285800002B02D1124B134A1A60114B1B68FB6004
:102868000F4B1A687B6813441A463B699A4207D98A
:10287800FEF700FF03460C221A604FF0FF3306E014
:10288800074B1A687B681344054A1360FB681846AF
:102898001837BD4680BD00BF0000022000040000BC
:1028A800F40C0020501200200D48854604F09EFAD2
:1028B8000C480D490D4A002302E0D458C450043393
:1028C800C4188C42F9D30A4A0A4C002301E0136069
:1028D8000432A242FBD3FEF7D3FEFEF769FFFEE700
:1028E80000000220000000208C01002018E70008EA
:1028F8008C0100204C120020FEE780B483B000AFAA
:1029080087ED010AD7ED017AF5EEC07AF1EE10FAFB
:1029180002DBD7ED017A03E0D7ED017AF1EE677AB1
:10292800B0EE670A0C37BD465DF8047B704780B48B
:1029380087B000AF87ED050AC7ED040A87ED031AD3
:10294800C7ED021A87ED012A97ED057AD7ED047ACB
:1029580037EE677AD7ED016AD7ED027A36EEE76A85
:10296800D7ED036AD7ED047A76EEE76AC6EE267AE3
:1029780027EE277AD7ED027A77EE277AB0EE670A44
:102988001C37BD465DF8047B70470000B0B58AB0BF
:1029980000AF87ED030AC7ED020A87ED011A354B30
:1029A800FB6197ED017AD7ED027A77EE677AC7ED8A
:1029B800097AD7ED097AF0EEE77A97ED077AB4EE5F
:1029C800E77AF1EE10FA02DD4FF000034AE0D7EDA6
:1029D800097AF5EEC07AF1EE10FA0BD5BB68BB6147
:1029E8007B68BB60BB697B60D7ED097AF1EE677ADB
:1029F800C7ED097A97ED037AD7ED027A77EE677A11
:102A0800C7ED087A386AFEF77DF804460D46786AFD
:102A1800FEF778F802460B4643EC112B45EC104BB9
:102A2800FDF73EFC53EC102B10461946FEF79AFBB7
:102A380003463B62D7ED087AF5EEC07AF1EE10FA5C
:102A480007D597ED087AD7ED097A77EE277AC7ED9B
:102A5800087A97ED027AD7ED087A77EE277AC7EDEC
:102A6800057A7B6907EE903AB0EE670A2837BD46CB
:102A7800B0BD00BFBD37863580B483B000AF87EDE9
:102A8800010A07E0D7ED017A9FED147A77EEC77A4D
:102A9800C7ED017AD7ED017A9FED107AF4EEC77A87
:102AA800F1EE10FAEEDA07E0D7ED017A9FED0B7A36
:102AB80077EE877AC7ED017AD7ED017AF5EEC07A1D
:102AC800F1EE10FAF0D47B6807EE903AB0EE670AA0
:102AD8000C37BD465DF8047B704700BFDB0FC9406B
:102AE80080B584B000AF87ED010AC7ED000AD7EDC5
:102AF800016A97ED007AC6EE877AC7ED037A9FEDF3
:102B0800091ADFED090A97ED030AFFF73FFF87ED82
:102B1800030AFB6807EE903AB0EE670A1037BD4625
:102B280080BD00BFDB0F4940DB0F49C080B584B0D2
:102B380000AF78607B6893EDB37A7B68D3EDB47AA5
:102B480077EE677AC7ED037AD7ED037AF0EEE77A86
:102B58009FED497AF4EEC77AF1EE10FA3FDDD7ED32
:102B6800037AF5EEC07AF1EE10FA18D57B6803F512
:102B7800886393ED007A7B68D3EDB47ADFED3F6A22
:102B880076EEE76A7B68D3EDB37A76EEA77A77EECE
:102B9800277A7B6803F58863C3ED007A2DE0D7EDCB
:102BA800037AF5EEC07AF1EE10FA26DB7B6803F5BE
:102BB800886393ED007A7B68D3EDB37ADFED2F6AF3
:102BC80076EEE76A7B68D3EDB47A76EEA77A77EE8D
:102BD800677A7B6803F58863C3ED007A0DE07B684C
:102BE80003F5886393ED007AD7ED037A77EE277AB9
:102BF8007B6803F58863C3ED007A7B68D3F8CC2241
:102C08007B68C3F8D0227B68D3F8843298470246A1
:102C18007B68C3F844247B68D3F888327A68D2F892
:102C2800442410469847F0EE407A7B68C3EDB37AA7
:102C38007B689B6907EE903AF8EE677A7B6893EDBC
:102C4800B37A7B68D3ED106AB0EE661AF0EE470AE5
:102C5800B0EE670A00F014F8F0EE407A7B68C3ED36
:102C6800B57A7B68D3F8CC3207EE903AB0EE670AB3
:102C78001037BD4680BD00BF7CD9A040DB0FC940DE
:102C880080B584B000AF87ED030AC7ED020A87ED6F
:102C9800011A97ED027AD7ED037A27EE277AD7ED56
:102CA800017A77EE277AB0EE670AFFF7E5FEF0EED5
:102CB800407AB0EE670A1037BD4680BD80B485B053
:102CC80000AF87ED030AC7ED020A87ED011A97EDF9
:102CD800037AD7ED017AB4EEE77AF1EE10FA01D56E
:102CE8007B680BE097ED037AD7ED027AB4EEE77ACA
:102CF800F1EE10FA01DDBB6800E0FB6807EE903AE0
:102D0800B0EE670A1437BD465DF8047B70470000D3
:102D180080B586B000AF87ED030AC7ED020A87EDDC
:102D2800011A97ED010A03F0DBFF87ED050A97ED1D
:102D3800010A03F053FF87ED040A97ED027AD7EDF5
:102D4800057A27EE277AD7ED036AD7ED047A66EE7F
:102D5800A77A77EE677A0C4BC3ED007A97ED037A82
:102D6800D7ED057A27EE277AD7ED026AD7ED047AF0
:102D780066EEA77A77EE277A034BC3ED017A024B0A
:102D880018461837BD4680BDF80C002080B52DEDDB
:102D9800028B82B000AF78607B6893EDB18A7B6864
:102DA800D3EDB28A7B68D3EDB57AB0EE670AFFF748
:102DB80063FEF0EE407AB0EE671AF0EE680AB0EE05
:102DC800480AFFF7A5FF03460A4A1360094B1B6828
:102DD8001A687B68C3F8BC22064B1B685A687B6874
:102DE800C3F8C022034B1B6818460837BD46BDEC24
:102DF800028B80BD000D002080B485B000AF87ED48
:102E0800030AC7ED020A87ED011AD7ED037A37EEF8
:102E1800A77AD7ED027A37EE677AD7ED017A77EE9F
:102E2800677A9FED0D7A67EE877A0C4BC3ED007ACF
:102E380097ED027AD7ED017A77EE677A9FED087AF7
:102E480067EE877A054BC3ED017A044B18461437B1
:102E5800BD465DF8047B7047ABAAAA3E040D00206E
:102E68003ACD133F80B582B000AF78607B68D3ED70
:102E7800A57A7B6893EDA67A7B68D3EDA76AB0EE56
:102E8800661AF0EE470AB0EE670AFFF7B5FF034689
:102E9800094A1360084B1B681A687B68C3F8A022AC
:102EA800054B1B685A687B68C3F8A422024B1B6851
:102EB80018460837BD4680BD0C0D002080B52DEDA5
:102EC800028B84B000AF87ED030AC7ED020A87EDD5
:102ED800011A97ED010A03F003FFB0EE407AD7ED2F
:102EE800037A27EE278A97ED010A03F077FEB0EE02
:102EF800407AD7ED027A67EE277A78EE277A124B76
:102F0800C3ED007AD7ED037AB1EE678A97ED010A2F
:102F180003F064FEF0EE407A28EE278A97ED010A66
:102F280003F0DEFEB0EE407AD7ED027A67EE277A3C
:102F380078EE277A044BC3ED017A034B1846103715
:102F4800BD46BDEC028B80BD100D002080B52DED77
:102F5800028B82B000AF78607B6893EDA88A7B68AB
:102F6800D3EDA98A7B68D3EDB57AB0EE670AFFF78F
:102F780083FDF0EE407AB0EE671AF0EE680AB0EE24
:102F8800480AFFF79BFF03460A4A1360094B1B6870
:102F98001A687B68C3F8AC22064B1B685A687B68C2
:102FA800C3F8A822034B1B6818460837BD46BDEC7A
:102FB800028B80BD180D002080B588B000AFF86086
:102FC80087ED020AC7ED010A87ED001A9FED3F1A47
:102FD800F7EE000A97ED020AFFF770FE87ED070A81
:102FE8009FED3A1AF7EE000A97ED010AFFF766FE21
:102FF80087ED060A9FED351AF7EE000A97ED000AED
:10300800FFF75CFE87ED050AFB68D3F86032002BFA
:1030180014BF01230023DAB2FB68D3F86432002B13
:1030280014BF01230023DBB21343DBB21A46FB684B
:10303800D3F86832002B14BF01230023DBB21343FB
:10304800002B3FD0FB68DB69B3F1FF3F14D0012BA5
:1030580025D1FB68D3F8603297ED070A9847FB68DB
:10306800D3F8643297ED060A9847FB68D3F86832BC
:1030780097ED050A984725E0FB68D3F8603297ED8D
:10308800060A9847FB68D3F8643297ED070A984711
:10309800FB68D3F8683297ED050A984712E0FB6899
:1030A800D3F8603297ED070A9847FB68D3F8643283
:1030B80097ED060A9847FB68D3F8683297ED050A3A
:1030C800984700BF00BF2037BD4680BD0000000004
:1030D80080B52DED028B82B000AF87ED010AC7EDF8
:1030E800000AD7ED007AF5EE407AF1EE10FA0AD12F
:1030F800D7ED017AF5EEC07AF1EE10FA01DB012383
:10310800C2E00423C0E0D7ED017AF5EE407AF1EE93
:1031180010FA0AD1D7ED007AF5EEC07AF1EE10FA7E
:1031280001DB0223B0E00523AEE0D7ED017AF5EE2E
:10313800C07AF1EE10FA15DDD7ED007AF5EEC07A17
:10314800F1EE10FA0EDDD7ED006A97ED017AC6EEC2
:10315800877A9FED507AF4EEC77AF1EE10FA01D52E
:10316800012391E0D7ED007AF5EEC07AF1EE10FA7E
:1031780012DD97ED010AFFF7C0FBF0EE406A97ED0C
:10318800007AC7EE267A9FED437AF4EEC77AF1EE1D
:1031980010FA01DD022377E0D7ED017AF5EEC07A67
:1031A800F1EE10FA17D5D7ED007AF5EEC07AF1EE08
:1031B80010FA10DDD7ED007AF1EE676A97ED017A23
:1031C800C6EE877A9FED337AF4EEC77AF1EE10FAFD
:1031D80001D5032358E0D7ED017AF5EEC07AF1EE78
:1031E80010FA15D5D7ED007AF5EEC07AF1EE10FA9F
:1031F8000ED5D7ED006A97ED017AC6EE877A9FED76
:10320800257AF4EEC77AF1EE10FA01D504233BE0F3
:10321800D7ED007AF5EEC07AF1EE10FA14D5D7EDB5
:10322800007AB1EE678A97ED010AFFF766FBB0EE08
:10323800407AC8EE077A9FED177AF4EEC77AF1EE76
:1032480010FA01DD05231FE0D7ED017AF5EEC07A0B
:10325800F1EE10FA17DDD7ED007AF5EEC07AF1EE4F
:1032680010FA10D5D7ED007AF1EE676A97ED017A7A
:10327800C6EE877A9FED077AF4EEC77AF1EE10FA78
:1032880001D5062300E0002318460837BD46BDECEB
:10329800028B80BDD7B3DD3F80B582B000AF7860C8
:1032A8007B68D3EDAF7A7B6893EDB07AF0EE470A8E
:1032B800B0EE670AFFF70CFF02467B68C3F81024DC
:1032C8007B68D3F8103418460837BD4680BD80B4F3
:1032D80085B000AF87ED030AC7ED020A87ED011A32
:1032E80097ED017AD7ED037A27EE277AF7EE006A91
:1032F800D7ED017A76EEE76AD7ED027A66EEA77A1D
:1033080077EE277AB0EE670A1437BD465DF8047B7E
:10331800704780B52DED028B82B000AF78607B6876
:1033280093EDB38A7B68D3EDB48A7B68D3E9042331
:1033380010461946FDF716FF034601EE103AF0EE67
:10334800680AB0EE480A00F037F8F0EE407A7B6879
:1033580003F23443C3ED007A7B6803F23443D3EDC0
:10336800007A7B6803F23C4393ED007A7B6803F5AF
:103378008763D3ED006AB0EE661AF0EE470AB0EE46
:10338800670AFFF7A4FFF0EE407A7B68C3EDB77ACF
:103398007B68D3F8DC227B6803F23C431A607B68C5
:1033A800D3F8DC3207EE903AB0EE670A0837BD462C
:1033B800BDEC028B80BD000080B487B000AF87ED04
:1033C800030AC7ED020A87ED011AD7ED017AF5EE77
:1033D800C07AF1EE10FA02D84FF0000355E097EDED
:1033E800037AD7ED027A77EE677AF0EEE77A9FED07
:1033F8002B7AF4EEC77AF1EE10FA39DD97ED037AFD
:10340800D7ED027A77EE677AF5EEC07AF1EE10FA28
:1034180010D59FED237AD7ED027A37EE677AD7ED8C
:10342800037A77EE276A97ED017AC6EE877AC7EDB9
:10343800057A29E097ED037AD7ED027A77EE677A75
:10344800F5EEC07AF1EE10FA1EDB9FED157AD7ED96
:10345800037A37EE677AD7ED027A77EE277AF1EEBC
:10346800676A97ED017AC6EE877AC7ED057A0BE0B1
:1034780097ED037AD7ED027A77EE676A97ED017ACE
:10348800C6EE877AC7ED057A7B6907EE903AB0EE0B
:10349800670A1C37BD465DF8047B70477CD9A0409D
:1034A800DB0FC94080B586B000AF87ED030AC7EDD2
:1034B800020A87ED011A386097ED037AD7ED027A90
:1034C80077EE677A3B68C3ED057A3B6893ED027A3D
:1034D8003B68D3ED056AD7ED017A66EEA77A77EEF9
:1034E800277A3B68C3ED027A3B68D3ED027A3B68E2
:1034F80093ED0A7A3B68D3ED0B6AB0EE661AF0EEEC
:10350800470AB0EE670AFFF7D9FBF0EE407A3B684E
:10351800C3ED027A3B6893ED057A3B68D3ED077AF1
:1035280077EE676A97ED017AC6EE877AC7ED057A76
:103538003B6893ED007A3B68D3ED057A27EE277A4E
:103548003B68D3ED016A3B68D3ED027A66EEA77A51
:1035580037EE277A3B68D3ED046AD7ED057A66EE35
:10356800A77A77EE277A3B68C3ED067A3B68D3EDF6
:10357800067A3B6893ED0D7A3B68D3ED0E6AB0EEA0
:10358800661AF0EE470AB0EE670AFFF797FBF0EE0F
:10359800407A3B68C3ED067A3B685A693B68DA6152
:1035A8003B689B6907EE903AB0EE670A1837BD464C
:1035B80080BD000080B586B000AF78607868FFF7FE
:1035C800E5FB7868FFF768FE7B68D3ED0B7AF0EED1
:1035D800006A87EEA67ADFEDBC6AC6EE877ABB4B37
:1035E800C3ED007A7B68D3F8C032B94A13607B68B0
:1035F800D3EDAF7A9FEDB77A27EE877A7B68D3ED64
:10360800B07AF6EE006A67EEA67A77EE677AB24B82
:10361800C3ED007A7B68D3EDAF7A9FEDAE7A27EEE3
:10362800877A7B68D3EDB07AF6EE006A67EEA67A01
:1036380077EE277AA94BC3ED007A7B68D3F810346C
:10364800013B052B00F2A68001A252F823F000BF2F
:10365800713600089F360008D13600080337000885
:10366800393700086B370008984B93ED007A9A4B6E
:10367800D3ED007A67EE277A994BC3ED007A934B26
:1036880093ED007A924BD3ED007A67EE277A954B4B
:10369800C3ED007A7FE08D4BD3ED007AB1EE677A07
:1036A8008D4BD3ED007A67EE277A8D4BC3ED007A08
:1036B800864B93ED007A894BD3ED007A67EE277A33
:1036C800884BC3ED007A66E0804B93ED007A804B1F
:1036D800D3ED007A67EE277A814BC3ED007A7B4BF6
:1036E800D3ED007AB1EE677A7C4BD3ED007A67EEC2
:1036F800277A7C4BC3ED007A4DE0744BD3ED007A0A
:10370800B1EE677A724BD3ED007A67EE277A744B85
:10371800C3ED007A6D4BD3ED007AB1EE677A6E4B4C
:10372800D3ED007A67EE277A6E4BC3ED007A32E06C
:10373800664BD3ED007AB1EE677A684BD3ED007A29
:1037480067EE277A664BC3ED007A604B93ED007AFB
:10375800614BD3ED007A67EE277A624BC3ED007AAE
:1037680019E05A4B93ED007A5C4BD3ED007A67EE83
:10377800277A5B4BC3ED007A544BD3ED007AB1EE58
:10378800677A534BD3ED007A67EE277A554BC3ED32
:10379800007A00E000BF524BD3ED007AB7EE007A12
:1037A80037EE677A4F4BD3ED007A77EE677AB6EE4D
:1037B800007A67EE877A4C4BC3ED007A484B93ED5D
:1037C800007A484BD3ED007A77EE277AB7EE007A85
:1037D800F4EEC77AF1EE10FA1FDD414BD3ED006A23
:1037E8003F4B93ED007A3F4BD3ED007A37EE277AC3
:1037F800C6EE877A3A4BC3ED007A3A4BD3ED006AAE
:10380800374B93ED007A374BD3ED007A37EE277AB2
:10381800C6EE877A334BC3ED007A7B68D3F8103451
:10382800013B052B00F2E88001A252F823F000BF0B
:10383800513800089138000801390008413900085A
:1038480081390008C1390008274B1B68274A1360D3
:10385800254B93ED007A234BD3ED007A77EE277A48
:10386800234BC3ED007A204B93ED007A1D4BD3ED2B
:10387800007A37EE277A1A4BD3ED007A77EE277A5B
:103888001C4BC3ED007AB8E0174B1B68174A13604E
:10389800154B93ED007A134BD3ED007A77EE277A28
:1038A800144BC3ED007A104B93ED007A0D4BD3ED1A
:1038B800007A37EE277A0A4BD3ED007A77EE277A2B
:1038C8000B4BC3ED007A98E0D7B3DD3F1C0D002009
:1038D800200D0020D7B35D3F240D0020280D0020C7
:1038E8002C0D0020300D0020340D0020380D002054
:1038F8003C0D0020400D0020604B1B68604A13609F
:103908005E4B93ED007A5F4BD3ED007A77EE277A22
:103918005D4BC3ED007A594B93ED007A594BD3EDCB
:10392800007A37EE277A594BD3ED007A77EE277A6B
:10393800574BC3ED007A60E0504B1B68504A136048
:103948004E4B93ED007A4F4BD3ED007A77EE277A02
:103958004F4BC3ED007A494B93ED007A494BD3EDB9
:10396800007A37EE277A494BD3ED007A77EE277A3B
:10397800454BC3ED007A40E0404B1B68444A136056
:103988003E4B93ED007A3F4BD3ED007A77EE277AE2
:103998003B4BC3ED007A394B93ED007A394BD3EDAD
:1039A800007A37EE277A394BD3ED007A77EE277A0B
:1039B800354BC3ED007A20E0304B1B68344A136066
:1039C8002E4B93ED007A2F4BD3ED007A77EE277AC2
:1039D8002D4BC3ED007A294B93ED007A294BD3ED9B
:1039E800007A37EE277A294BD3ED007A77EE277ADB
:1039F800234BC3ED007A00E000BF214BD3ED007AE2
:103A0800B7EE002ADFED231AB7EE001AFFEE000A20
:103A1800B0EE670AFEF78BFF87ED050A1C4BD3ED66
:103A2800007AB7EE002ADFED1B1AB7EE001AFFEE98
:103A3800000AB0EE670AFEF77AFF87ED040A124B18
:103A4800D3ED007AB7EE002ADFED121AB7EE001AAE
:103A5800FFEE000AB0EE670AFEF769FF87ED030A7A
:103A680097ED031AD7ED040A97ED050A7868FFF772
:103A7800A3FA00BF1837BD4680BD00BF340D002033
:103A8800400D0020300D0020380D00202C0D0020A6
:103A98003C0D00200000000080B582B000AF7860C7
:103AA8007B68D3F890327A680832104698477B686A
:103AB800D3E9042310461946FDF754FB034607EEE5
:103AC800903AB0EE670A0837BD4680BD80B489B029
:103AD80000AF87ED030AC7ED020A87ED011A3860C7
:103AE800FB68FB61BB68BB617B687B613B68013B32
:103AF800052B4BD801A252F823F000BF1D3B00084C
:103B0800313B0008453B0008593B00086D3B000865
:103B1800813B0008264AFB691360254ABB6953604C
:103B2800234A7B6993603BE0214ABB691360204AC2
:103B3800FB6953601E4A7B69936031E01C4A7B69CC
:103B480013601B4ABB695360194AFB69936027E0FD
:103B5800174A7B691360164AFB695360144ABB69AC
:103B680093601DE0124ABB691360114A7B69536078
:103B78000F4AFB69936013E00D4AFB6913600C4A16
:103B88007B6953600A4ABB69936009E0084AFB698C
:103B98001360074ABB695360054A7B69936000BF9D
:103BA800034B18462437BD465DF8047B704700BFB9
:103BB800440D002080B586B000AFF860B9607A6027
:103BC800BB68B3F5897F80F27082BB68B3F5807FEC
:103BD80010DABB68112B00F05581BB68112B00F37C
:103BE8006482BB68012B00F02582BB68102B00F0B3
:103BF800E6815AE2BB68A3F58073112B00F2558267
:103C080001A252F823F000BF513F0008C93D000847
:103C1800B3400008B3400008B3400008B3400008B0
:103C2800B3400008B3400008B3400008B3400008A0
:103C3800B3400008B3400008B3400008B340000890
:103C4800B3400008B3400008193D0008593C00087B
:103C5800FB68D3F86C32002B09D0FB68D3F87032BC
:103C6800002B04D0FB68D3F87432002B01D1002359
:103C780046E2FB68D3F86C3298470246FB68C3F803
:103C88006C24FB68D3F8703298470246FB68C3F887
:103C98007024FB68D3F8743298470246FB68C3F86F
:103CA8007424FB68D3F87832FA68D2F86C04FA689E
:103CB800D2F8282411469847F0EE407AFB6803F2C0
:103CC8001C43C3ED007AFB68D3F87C32FA68D2F85B
:103CD8007004FA68D2F82C2411469847F0EE407A1E
:103CE800FB6803F58463C3ED007AFB68D3F8803280
:103CF800FA68D2F87404FA68D2F830241146984762
:103D0800F0EE407AFB6803F22443C3ED007ACEE17B
:103D1800FB68D3F86C32002B04D0FB68D3F8703200
:103D2800002B01D10023EBE1FB68D3F86C329847F4
:103D38000246FB68C3F86C24FB68D3F870329847D6
:103D48000246FB68C3F87024FB680022C3F8742499
:103D5800FB68D3F87832FA68D2F86C04FA68D2F8BB
:103D6800282411469847F0EE407AFB6803F21C437A
:103D7800C3ED007AFB68D3F87C32FA68D2F8700495
:103D8800FA68D2F82C2411469847F0EE407AFB687E
:103D980003F58463C3ED007AFB6803F21C4393EDDB
:103DA800007AFB6803F58463D3ED007A77EE277A0F
:103DB800F1EE677AFB6803F22443C3ED007A76E1FB
:103DC800FB68D3F86C32002B0ED0FB68D3F8743242
:103DD800002B09D0FB68D3F87832002B04D0FB689D
:103DE800D3F88032002B01D1002389E1FB68D3F896
:103DF8006C3298470246FB68C3F86C24FB680022C3
:103E0800C3F87024FB68D3F8743298470246FB68FD
:103E1800C3F87424FB68D3F87832FA68D2F86C04D3
:103E2800FA68D2F8282411469847F0EE407AFB68E1
:103E380003F21C43C3ED007AFB68D3F88032FA68BA
:103E4800D2F87404FA68D2F8302411469847F0EE94
:103E5800407AFB6803F22443C3ED007AFB6803F25F
:103E68001C4393ED007AFB6803F22443D3ED007AF8
:103E780077EE277AF1EE677AFB6803F58463C3ED82
:103E8800007A14E1FB68D3F87032002B0ED0FB687F
:103E9800D3F87432002B09D0FB68D3F87C32002B9E
:103EA80004D0FB68D3F88032002B01D1002327E12E
:103EB800FB680022C3F86C24FB68D3F8703298477B
:103EC8000246FB68C3F87024FB68D3F8743298473D
:103ED8000246FB68C3F87424FB68D3F87C32FA689E
:103EE800D2F87004FA68D2F82C2411469847F0EEFC
:103EF800407AFB6803F58463C3ED007AFB68D3F866
:103F08008032FA68D2F87404FA68D2F8302411467C
:103F18009847F0EE407AFB6803F22443C3ED007A39
:103F2800FB6803F5846393ED007AFB6803F224438E
:103F3800D3ED007A77EE277AF1EE677AFB6803F221
:103F48001C43C3ED007AB2E0FB68D3F86C32002B57
:103F580004D0FB68D3F87832002B01D10023CFE0DE
:103F6800FB68D3F86C3298470246FB68C3F86C24A8
:103F7800FB680022C3F87024FB680022C3F874248D
:103F8800FB68D3F87832FA68D2F86C04FA68D2F889
:103F9800282411469847F0EE407AFB6803F21C4348
:103FA800C3ED007AFB6803F584634FF000021A60E2
:103FB800FB6803F224434FF000021A6077E0FB68C5
:103FC800D3F87032002B04D0FB68D3F87C32002B76
:103FD80001D1002394E0FB680022C3F86C24FB683D
:103FE800D3F8703298470246FB68C3F87024FB6820
:103FF8000022C3F87424FB6803F21C434FF000024C
:104008001A60FB68D3F87C32FA68D2F87004FA6850
:10401800D2F82C2411469847F0EE407AFB6803F555
:104028008463C3ED007AFB6803F224434FF0000277
:104038001A603CE0FB68D3F87432002B04D0FB68AC
:10404800D3F88032002B01D1002359E0FB6800220D
:10405800C3F86C24FB680022C3F87024FB68D3F80B
:10406800743298470246FB68C3F87424FB6803F26D
:104078001C434FF000021A60FB6803F584634FF09D
:1040880000021A60FB68D3F88032FA68D2F8740428
:10409800FA68D2F8302411469847F0EE407AFB6867
:1040A80003F22443C3ED007A01E0002328E0FB6813
:1040B80003F21C43D3ED007AFB6803F5846393EDA8
:1040C800007AFB6803F22443D3ED006A7868B0EE07
:1040D800661AF0EE470AB0EE670AFFF7F7FC786158
:1040E8007B691A68FB68C3F894227B695A68FB6885
:1040F800C3F898227B699A68FB68C3F89C2201235D
:1041080018461837BD4680BD80B582B000AF7860CC
:1041180039609F4B1B68B3F57A7F80F069813B68F3
:10412800B3F5897F80F25B813B68B3F5807F10DA55
:104138003B68112B00F0BE803B68112B00F34F81C8
:104148003B68012B00F02C813B68102B00F00081AC
:1041580045E13B68A3F58073112B00F2408101A271
:1041680052F823F01B4300085F420008E7430008A9
:10417800E7430008E7430008E7430008E74300086F
:10418800E7430008E7430008E7430008E74300085F
:10419800E7430008E7430008E7430008E74300084F
:1041A800E743000815420008B54100087B68D3F8CA
:1041B8006C32002B09D07B68D3F87032002B04D006
:1041C8007B68D3F87432002B01D100233FE17B6870
:1041D800D3F86C32984702466E4B1B6813446D4AFD
:1041E80013607B68D3F87032984702466A4B1B68A5
:1041F8001344694A13607B68D3F8743298470246BF
:10420800664B1B681344654A1360EAE07B68D3F881
:104218006C32002B04D07B68D3F87032002B01D1AC
:10422800002314E17B68D3F86C3298470246594B57
:104238001B681344574A13607B68D3F87032984759
:104248000246554B1B681344534A1360534B1B6873
:10425800524A1360C5E07B68D3F86C32002B0ED04D
:104268007B68D3F87432002B09D07B68D3F8783296
:10427800002B04D07B68D3F88032002B01D10023B7
:10428800E5E07B68D3F86C3298470246414B1B68DF
:104298001344404A1360404B1B683F4A13607B68D5
:1042A800D3F87432984702463C4B1B6813443B4A88
:1042B800136096E07B68D3F87032002B0ED07B68D1
:1042C800D3F87432002B09D07B68D3F87C32002BEA
:1042D80004D07B68D3F88032002B01D10023B6E0EC
:1042E8002C4B1B682B4A13607B68D3F870329847B5
:1042F8000246294B1B681344274A13607B68D3F88E
:10430800743298470246254B1B681344234A1360AE
:1043180067E07B68D3F86C32002B04D07B68D3F855
:104328007832002B01D1002391E07B68D3F86C32FE
:1043380098470246174B1B681344164A1360164BDE
:104348001B68154A1360154B1B68144A136048E034
:104358007B68D3F87032002B04D07B68D3F87C32AA
:10436800002B01D1002372E00A4B1B68094A136035
:104378007B68D3F8703298470246074B1B68134492
:10438800054A1360054B1B68044A136029E000BF07
:10439800500D0020540D0020580D00205C0D002009
:1043A8007B68D3F87432002B04D07B68D3F8803252
:1043B800002B01D100234AE0274B1B68264A1360D3
:1043C800264B1B68254A13607B68D3F874329847DC
:1043D8000246234B1B681344214A136001E0002363
:1043E80035E0204B1B6801331E4A136000232EE082
:1043F8001C4B1B68B3F57A7F28D3174B1A68194BE7
:104408001B68B2FBF3F27B68C3F82824134B1A68C5
:10441800144B1B68B2FBF3F27B68C3F82C24104BD7
:104428001A68104B1B68B2FBF3F27B68C3F83024A0
:10443800094B00221A60094B00221A60084B00221F
:104448001A60084B00221A60012300E00023184676
:104458000837BD4680BD00BF540D0020580D002010
:104468005C0D0020500D002080B584B000AF78604E
:1044780087ED000A7868FEF759FB7B6893EDB37AFD
:104488007B68D3ED927A77EE677AB0EE670AFEF72B
:10449800F3FAF0EE407A384BC3ED007A9FED377AA5
:1044A800D7ED007A37EE677A7B68D3ED937A77EEAB
:1044B800277AB0EE670AFEF7DFFAF0EE407A304B63
:1044C800C3ED007A6FF00703FB6048E0FB6807EE76
:1044D800903AF8EEE77A77EEA77A9FED2A7A27EEF8
:1044E800877A254BD3ED007A37EE277A7B6893EDF0
:1044F800946A7B68D3ED956AC6EE267A67EE277ACA
:10450800DFED1E0AB0EE670AFBF7A6FEF0EE407A72
:10451800B0EE670AFEF7B0FAF0EE407A1A4BC3ED38
:10452800007A194B93ED007A154BD3ED007A77EEAC
:10453800677AF0EEE77A17EE900AFCF7E3FA0CA335
:10454800D3E90023FCF7A8FD0346002B04D07B68C1
:10455800FA68C3F8582206E0FB680133FB60FB6881
:10456800082BB3DD00BF00BF1037BD4680BD00BFBC
:104578009A9999999999A93F600D0020DB0FC94034
:10458800640D0020DB0F4940680D002080B483B023
:1045980000AF87ED010AD7ED017A9FED097A67EE42
:1045A800877AFCEEE77A17EE903A9AB2054B1B68C9
:1045B8005A6300BF0C37BD465DF8047B704700BFE7
:1045C80000D084455C0C002080B483B000AF87ED38
:1045D800010AD7ED017A9FED097A67EE877AFCEE3A
:1045E800E77A17EE903A9AB2054B1B689A6300BFB8
:1045F8000C37BD465DF8047B704700BF00D084458A
:104608005C0C002080B483B000AF87ED010AD7EDC1
:10461800017A9FED097A67EE877AFCEEE77A17EE62
:10462800903A9AB2054B1B68DA6300BF0C37BD4657
:104638005DF8047B704700BF00D084455C0C002007
:1046480080B500AF0921034803F0FAFB034618467A
:1046580080BD00BF600A002080B500AF40F20F1196
:10466800024803F0EDFB0346184680BD600A0020AF
:1046780080B500AF40F21521024803F0E1FB034684
:10468800184680BD600A002080B483B000AF78600F
:1046980039607A683B68D31A07EE903AF8EEE77A01
:1046A8009FED0A7A27EE877AF3EE046AC7EE267A38
:1046B8009FED077AC7EE876AF0EE667AB0EE670A72
:1046C8000C37BD465DF8047B704700BF5940533A2C
:1046D8006F12033B80B483B000AF786039607A68AA
:1046E8003B68D31A07EE903AF8EEE77A9FED0A7A1C
:1046F80027EE877AF3EE046AC7EE267A9FED077AEB
:10470800C7EE876AF0EE667AB0EE670A0C37BD46E8
:104718005DF8047B704700BF5940533A6F12033B62
:1047280080B483B000AF786039607A683B68D31A88
:1047380007EE903AF8EEE77A9FED0A7A27EE877A45
:10474800F3EE046AC7EE267A9FED077AC7EE876A0A
:10475800F0EE667AB0EE670A0C37BD465DF8047B6A
:10476800704700BF5940533A6F12033B80B500AF02
:10477800044B1B680121184600F050FB03461846FD
:1047880080BD00BF7807002080B483B000AF786098
:104798007B6807EE903AF8EE677A9FED087A67EE45
:1047A800877A9FED077AC7EE876AF0EE667AB0EEF1
:1047B800670A0C37BD465DF8047B7047DB0FC940BC
:1047C8000000004A80B582B000AF7860786804F0D5
:1047D80045FA00BF0837BD4680BD00000000000054
:1047E80080B586B000AF78607B685B68FB82204B41
:1047F8001B685B6ABB82BA8A7B685A60BA8A7B6824
:104808001A60BA8AFB8AD31A7B827B8A07EE903AAF
:10481800F8EE677A9FED177A67EE877AC7ED037A25
:10482800D7ED037A9FED147AF4EEC77AF1EE10FA19
:1048380003D50DA3D3E9002304E0F868FCF762F977
:1048480002460B467968C1E902237B68D3E9022353
:1048580010461946FCF786FC034607EE903AB0EE80
:10486800670A1837BD4680BD000000A0F7C6B03EF5
:10487800A80C0020D5DAEC355F7089300000000004
:1048880080B582B000AF78604FF48F6200217868FD
:10489800FCF79EFE7B68B64AC3F860227B68B54A7F
:1048A800C3F864227B68B44AC3F868227B68B34AB9
:1048B800C3F86C227B68B24AC3F870227B68B14A9D
:1048C800C3F874227B68B04AC3F878227B68AF4A81
:1048D800C3F87C227B68AE4AC3F880227B68AD4A65
:1048E800C3F88C227B68AC4AC3F890227B68AB4A39
:1048F800C3F884227B68AA4AC3F888227B6801220D
:104908001A607B6800229A607B680022DA60796806
:1049180095A3D3E90023C1E904237B680E229A6199
:104928007B68A04AC3F844227B680122DA617B686D
:1049380003221A627B684FF48872C3F85C227B6892
:10494800994A9A627B68994ADA627B68984A1A633C
:104958007B684FF07C525A637B68964AC3F84822BA
:104968007B68954AC3F84C227B68D3F848227B6859
:10497800DA637B68914A1A647B688B4AC3F85022D1
:104988007B688F4AC3F854227B688E4A9A637B6897
:104998004FF6FF72C3F858227B688B4AC3F8E422AB
:1049A8007B684FF00002C3F8E8227B684FF00002F2
:1049B800C3F8F4227B68854AC3F80C237B68844AD1
:1049C800C3F810237B68814AC3F818237B68804AA0
:1049D800C3F81C237B687F4AC3F808237B687B4A9B
:1049E800C3F814237B687C4AC3F820237B684FF004
:1049F8007C52C3F824237B684FF00002C3F83023AD
:104A08007B68724AC3F848237B68714AC3F84C2311
:104A18007B686E4AC3F854237B686D4AC3F85823F1
:104A28007B686C4AC3F844237B68684AC3F8502300
:104A38007B686A4AC3F85C237B68694AC3F86023C9
:104A48007B684FF00002C3F86C237B6893ED0B7A08
:104A5800F0EE006AC7EE267A7B68C3EDE17A7B68E0
:104A6800D3ED0B7AB1EE677AF0EE006AC7EE267ADC
:104A78007B68C3EDE27A7B6893ED0B7AF0EE006A0F
:104A8800C7EE267A7B68C3EDE47A7B68D3ED0B7AB0
:104A9800B1EE677AF0EE006AC7EE267A7B68C3ED5E
:104AA800E57A7B6893ED0B7AF0EE006AC7EE267A1A
:104AB8007B68C3EDE07A7B6893ED0B7AF0EE006AD1
:104AC800C7EE267A7B68C3EDE37A7B68434AC3F86E
:104AD80098237B68424AC3F89C237B684FF0000206
:104AE800C3F8A8237B6893ED0B7AF0EE006AC7EE53
:104AF800267A7B68C3EDF07A7B68D3ED0B7AB1EE4A
:104B0800677AF0EE006AC7EE267A7B68C3EDF17A21
:104B18007B6893ED0B7AF0EE006AC7EE267A7B6825
:104B2800C3EDF37A7B68D3ED0B7AB1EE677AF0EEDA
:104B3800006AC7EE267A7B68C3EDF47A7B6893ED4A
:104B48000B7AF0EE006AC7EE267A7B68C3EDEF7A3F
:104B58007B6893ED0B7AF0EE006AC7EE267A7B68E5
:104B6800C3EDF27A7B683DE000000040E17A843FC3
:104B780095450008D14500080D460008494600083B
:104B8800614600087946000891460008DD4600089D
:104B980029470008CD470008E9470008754700087D
:104BA80091470008CDCC2C410000A0410000C04135
:104BB8006F12833AD3DEBE406440C64073634640FA
:104BC80000009841606B4E3F6666A2410000C842F3
:104BD8000000C8C200002041CDCCCC3D53AE703D92
:104BE800F97166421C4AC3F8D4237B681B4AC3F890
:104BF800D8237B684FF00002C3F8E4237B68184A87
:104C0800C3F8F8237B6803F20443164A1A607B68EA
:104C180003F23C434FF000021A607B6803F5876398
:104C28004FF07C521A607B684FF6FF72C3F8282455
:104C38007B684FF6FF72C3F82C247B684FF6FF722F
:104C4800C3F830247B6803F588634FF000021A60CC
:104C580000BF0837BD4680BDCDCCCC3D0AD7233C2C
:104C6800000020410000C84280B485B000AF7860E1
:104C78000B46FB700023FB730023BB730DE0BB7B6B
:104C88007A6813441A78FB7B5340FB73FB7B084A12
:104C9800D35CFB73BB7B0133BB73BA7BFB789A4253
:104CA800EDD3FB7B18461437BD465DF8047B70478F
:104CB8005000002080B483B000AF0346FB7100BFF2
:104CC8000C37BD465DF8047B704780B483B000AFF5
:104CD80078600B46FB7000BF0C37BD465DF8047B5F
:104CE800704780B483B000AF78600B46FB7000BF9C
:104CF8000C37BD465DF8047B704780B485B000AFC3
:104D0800F860B9601346FB7100BF1437BD465DF803
:104D1800047B704780B582B000AF2020FCF748FCC8
:104D280003467B607B68002B01D1002308E020222A
:104D380000217868FCF74CFC7B6800225A777B6876
:104D480018460837BD4680BD80B483B000AF786090
:104D580039607B68002B0AD03B68002B03D17B6845
:104D6800064A1A6004E07B683A681A6000E000BFEF
:104D78000C37BD465DF8047B704700BFBD4C00088A
:104D880080B483B000AF786039607B68002B09D0AD
:104D98003B68002B02D17B68054A5A607B683A68F9
:104DA8005A6000E000BF0C37BD465DF8047B7047D1
:104DB800D34C000880B483B000AF786039607B685A
:104DC800002B09D03B68002B02D17B68054A9A600A
:104DD8007B683A689A6000E000BF0C37BD465DF812
:104DE800047B7047EB4C000880B483B000AF786058
:104DF80039607B68002B09D03B68002B02D17B68A7
:104E0800054ADA607B683A68DA6000E000BF0C3770
:104E1800BD465DF8047B7047034D000880B586B039
:104E280000AF78600B46FB7007F1100300221A6090
:104E38009A8007F1080300221A609A80FB78002BF9
:104E480002D0012B1DD070E00321786800F09AF899
:104E580003463B740421786800F094F803467B7499
:104E68000521786800F08EF80346BB747B685B7F89
:104E7800002B57D00621786800F084F80346FB74AD
:104E880050E07B685B7F002B01D0062300E0052300
:104E9800FB757B681B68012098477A68137E0A2196
:104EA80061F3071313767B6803225A767B689B6944
:104EB800DBB23B727B689B691B0ADBB27B727B6847
:104EC8001B68002098477B68DB68002B08D07B684C
:104ED800DB68FA7D07F1100107F1080098470DE03B
:104EE8007B685B68F97D07F10802104698477B6884
:104EF8009B68F97D07F11002104698477B681B688C
:104F08000120984707F11003991C07F110030322A9
:104F18001846FCF711FA7B685B7F002B04D07B7D79
:104F2800FB7401E000BF00E000BF7B685B7F002BE3
:104F380015D0FA7C7B681A7407F110030321184610
:104F4800FFF792FE03461A46FB7C9A4204D07B6820
:104F580000225A74002311E07B6801225A74BB7C3A
:104F680003F00703DAB27B681A773B7C5A037B7C31
:104F78005B011343BA7CD208D2B2134318461837E0
:104F8800BD4680BD80B584B000AF78600B46FB702D
:104F980007F10C0300210A461A800A469A707B68BA
:104FA8001B68012098477A68137E032161F3071371
:104FB80013767B68FA785A767B681B6800209847D6
:104FC8007B68DB68002B09D07B68DB687A6802F1B4
:104FD800180007F10C01032298470DE07B685B6815
:104FE8007A6818320321104698477B689B6807F156
:104FF8000C020321104698477B681B6801209847DC
:10500800BB7B18461037BD4680BD000080B582B016
:1050180000AF0346FB71FB79012B06D101224FF447
:105028008051074805F0F0F905E000224FF480515F
:10503800034805F0E9F900BF0837BD4680BD00BF49
:105048000004004880B584B000AF78600B46FB7060
:105058000023FB73FB789AB20A237968044806F0A8
:105068006CFB0346FB73FB7B002B1037BD4680BDF2
:10507800940B002080B584B000AF78600B46FB70BD
:105088000023FB73FB789AB20A237968044806F078
:10509800CAFC0346FB73FB7B002B1037BD4680BD63
:1050A800940B002080B588B002AFF860B960134651
:1050B800FB710023FB75FB799BB24FF6FF720092E0
:1050C800BA68F9680F4806F0E6FD0346FB75FB7DF4
:1050D800002B11D103F0B6FD386106E003F0B2FDF4
:1050E80002463B69D31A012B08D8064806F0F2FF9E
:1050F8000346012BF2D102E000BF00E000BF1837E1
:10510800BD4680BD940B002080B582B000AFFFF78C
:1051180001FE78600A497868FFF716FE0949786841
:10512800FFF762FE08497868FFF72AFE07497868A2
:10513800FFF740FE7B6818460837BD4680BD00BFB4
:1051480015500008AD5000084D5000087D5000086B
:1051580080B586B002AFF860B9601346FB80FB8863
:105168004FF6FF720092BA68F968034806F093FD9B
:1051780000BF1037BD4680BDF80B002080B582B057
:1051880000AF0346FB71FB79002B07D100224FF4D7
:1051980000414FF0904005F037F906E001224FF446
:1051A80000414FF0904005F02FF900BF0837BD4689
:1051B80080BD000080B483B000AF78607B68054A8A
:1051C8009A607B68044ADA6000BF0C37BD465DF818
:1051D800047B7047595100088551000880B586B096
:1051E80000AF786007F10C0300210A461A800A46CE
:1051F8009A7007F1080300210A461A800A469A7035
:1052080083233B737B68DB68002098477B689B6837
:1052180007F1080107F10C00032298477B68DB6857
:10522800012098477B7A1A02BB7A03F0FC031343E8
:105238009B10FB82FB8A07EE903AF8EE677A9FEDA7
:105248000C7A27EE877ADFED0B6AC7EE267AC7ED70
:10525800047A7B68FA8A1A807B683A695A603B69E3
:1052680007EE903AB0EE670A1837BD4680BD00BF1A
:10527800DB0FC9400000804680B487B000AF87EDDF
:10528800030AC7ED020A87ED011A386097ED017A23
:10529800D7ED027A77EE677AC7ED057ABB683B618E
:1052A80097ED037AD7ED047A37EE677A01223B68E7
:1052B80002FA03F3013B07EE903AF8EEE77A67EE5D
:1052C800276A97ED057AC6EE877AFDEEE77A17EE3C
:1052D800903A18461C37BD465DF8047B704780B489
:1052E80087B000AFF86087ED020AC7ED010A3960A0
:1052F80097ED017AD7ED027A77EE677AC7ED057AEE
:10530800BB683B61FB6807EE903AB8EEE77AD7EDE9
:10531800057A67EE276A01223B6802FA03F3013B2C
:1053280007EE903AF8EEE77A86EEA77AD7ED047A98
:1053380077EE277AB0EE670A1C37BD465DF8047B26
:105348007047000080B588B000AF786039603B686E
:105358001B781B023A68013212781343FB613B68E1
:1053680002331B781B013A68033212781209D2B251
:105378001343BB613B6803331B781B0203F4706360
:105388003A680432127813437B613B6805331B7813
:105398001B013A68063212781209D2B213433B61F4
:1053A8003B6806331B781B0203F470633A680732C4
:1053B80012781343FB601021F2EE090ABAEE090ACB
:1053C800F869FFF78CFFF0EE407A7B68C3ED027A4C
:1053D8000C21DFED1B0A9FED1B0AB869FFF77FFF61
:1053E800F0EE407A7B68C3ED047A0C21DFED160AF3
:1053F8009FED160A7869FFF772FFF0EE407A7B6836
:10540800C3ED077A0C21F1EE040A9FED100A386902
:10541800FFF765FFF0EE407A7B68C3ED087A0C2150
:10542800DFED0B0A9FED0B0AF868FFF758FFF0EE67
:10543800407A7B68C3ED067A00BF2037BD4680BD41
:1054480000003442000034C20000FA4300000000AB
:1054580000001643000016C3B0B58CB000AF7861E9
:1054680087ED040AC7ED030A87ED021AC7ED011A92
:1054780087ED002A1020B2EE091AFAEE090A97ED14
:10548800040AFFF7F9FEF8620C209FED631ADFEDBE
:10549800630A97ED030AFFF7EFFEB8620C209FED51
:1054A800601ADFED600A97ED020AFFF7E5FE786201
:1054B8007868FBF727FB54A3D3E90023FBF77AFBB3
:1054C80002460B4614461D467B695B6A1846FBF785
:1054D80019FB4FA3D3E90023FBF76CFB02460B46ED
:1054E80020462946FBF7B0F902460B4610461946F6
:1054F800FBF738FE03467B603868FBF703FB42A3E3
:10550800D3E90023FBF756FB02460B4614461D461B
:105518007B699B6A1846FBF7F5FA3DA3D3E900239C
:10552800FBF748FB02460B4620462946FBF78CF959
:1055380002460B4610461946FBF714FE03463B602D
:105548007B697A685A627B693A689A620C209FED97
:10555800361ADFED360A97ED010AFFF78DFE38623D
:105568000C209FED311ADFED310A97ED000AFFF7A5
:1055780083FEF861FB6A1B12DAB27B6983F82C2080
:10558800FB6ADAB27B6983F82D20BB6A1B11DAB299
:105598007B6983F82E20BB6ADBB21B01DAB27B6A17
:1055A8001B12DBB21344DAB27B6983F82F207B6AC3
:1055B800DAB27B6983F830203B6A1B11DAB27B6967
:1055C80083F831203B6A5BB21B015AB2FB691B129C
:1055D8005BB213435BB2DAB27B6983F83220FB69B2
:1055E800DAB27B6983F833207B6903F13C017B697C
:1055F8002C331A460E4805F00AFB00BF3037BD466B
:10560800B0BD00BFAFF300805A643BDF4F8DE33F6E
:105618004C37894160E5D83F00003442000034C26D
:1056280000001643000016C300002042000020C2FC
:10563800CC0A002080B483B000AF78607B684FF05C
:105648000002DA617B684FF000021A627B684FF053
:1056580000025A607B685A687B689A607B684FF0E2
:1056680000021A617B681A697B68DA607B684FF010
:1056780000029A617B689A697B685A6100BF0C379F
:10568800BD465DF8047B704780B586B004AF78608E
:105698004149002001F08AFA7B681B6E1A463F498F
:1056A800002001F083FA7B689B681846FBF72AFA0A
:1056B80002460B464FF000003949CDE902014FF090
:1056C80000003849CDE900013749002001F06EFAA1
:1056D8007B681B691846FBF715FA02460B464FF024
:1056E80000003249CDE902014FF000003049CDE910
:1056F80000013049002001F059FA7B68DB6918463F
:10570800FBF700FA02460B464FF000002A49CDE9A4
:1057180002014FF000004FF00001CDE900012749D8
:10572800002001F043FA7B681B6A1846FBF7EAF988
:1057380002460B464FF000002149CDE902014FF027
:1057480000004FF00001CDE900011E49002001F0E2
:105758002DFA7B689B691846FBF7D4F902460B467D
:105768000BA1D1E90001CDE902014FF00000164973
:10577800CDE900011549002001F018FA144900206C
:1057880001F014FA00BF0837BD4680BDAFF30080B2
:105798000000000000C062400CDD000840DD000889
:1057A80000002940000029C058DD0008008046405C
:1057B800008046C088DD000800407F40B8DD000852
:1057C80000001440E8DD000800C062C018DE0008D0
:1057D80048DE000880B58AB002AF78600023FB601D
:1057E8000023BB6002233B610123BB610F23FB61E4
:1057F80001237B6107F108031946234805F054F992
:105808000346002B01D0FCF7DBF8012201211E48DA
:1058180005F04AFB0346002B01D0FCF7D1F8002322
:105828000093002302220221174805F097F9034646
:10583800002B01D0FCF7C4F87B6801221A707B6842
:1058480008229A647B6800221A657B6800225A65E0
:105858007B680022DA657B680122DA637B680022B4
:10586800DA647B6800221A647B6800225A647B68C9
:1058780000229A6500224FF40071044804F0C4FD28
:1058880000BF2037BD4680BDCC0A00200004004878
:1058980080B582B000AF022000F072F903461A46C4
:1058A8007A4BDA81062000F06BF903461A46774BEB
:1058B8005A80072000F064F903461A46734B1A8091
:1058C800032000F05DF903461A46704B1A81042044
:1058D80000F056F903461A466C4BDA80052000F0B2
:1058E8004FF903461A46694B9A80002000F048F9A0
:1058F80003461A46654B5A81012000F041F90346D8
:105908001A46624B9A81624B1B7803F00303D9B2A3
:105918005E4A937B61F3461393735C4BDB89FB8090
:10592800FB881946022000F0E3F8594B1B7A03F074
:105938000F03D9B2554A137A61F307131372544B04
:105948005B7A03F00F03D9B2504A137A61F3030369
:1059580013724F4B9B7A03F00703D9B24B4A537A21
:1059680061F302035372494B1B89FB80FB8819467C
:10597800032000F0BDF8464BDB7A03F00F03D9B2E1
:10598800424A937961F303039371414B1B7B03F004
:105998000F03D9B23D4A937961F3071393713C4BD6
:1059A8005B7B03F00303D9B2384AD37961F301036F
:1059B800D371374B9B7B03F00103D9B2334AD379B8
:1059C80061F38203D371314BDB88FB80FB88194676
:1059D800042000F08DF82E4B1B7903F00F03D9B289
:1059E8002A4A137961F303031371294B5B7903F096
:1059F8000303D9B2254A137961F305131371244BB4
:105A08009B7903F00303D9B2204A137961F3871312
:105A180013711F4BDB7903F00303D9B21B4A537987
:105A280061F301035371194B9B88FB80FB8819466E
:105A3800052000F05DF8164B5B7803F00303D9B23C
:105A4800124A937861F301039370114B9B7803F02A
:105A58000303D9B20D4A937861F3871393700C4B03
:105A6800DB7803F00103D9B2084AD37861F3410324
:105A7800D370064B5B88FB80FB881946062000F034
:105A880037F800BF0837BD4680BD00BF6C0D002049
:105A98005001002080B500AF00224021134804F0D7
:105AA800B3FC642003F0DAF8012240210F4804F027
:105AB800ABFC642003F0D2F8002280210B4804F0EC
:105AC800A3FCC82003F0CAF8FFF7E2FE01228021F8
