:020000040800F2
:1000000000000220BD2300085121000859210008EA
:100010005B2100085D2100085F210008000000004E
:100020000000000000000000000000006121000846
:100030006321000800000000652100086721000816
:100040000D2400080D2400080D2400080D240008CC
:100050000D2400080D2400080D2400080D240008BC
:100060000D2400080D2400080D2400080D240008AC
:100070000D2400080D2400080D2400080D2400089C
:100080000D2400080D2400086D2100080D2400082F
:100090000D240008D52100080D2400080D240008B7
:1000A0000D240008E12100080D2400080D2400089B
:1000B0000D2400080D2400080D2400080D2400085C
:1000C0000D2400080D2400080D2400080D2400084C
:1000D0000D2400080D2400080D2400080D2400083C
:1000E0000D2400080D2400080D2400080D2400082C
:1000F0000D2400080D2400080D2400080D2400081C
:100100000D2400080D2400080D2400080D2400080B
:100110000D2400080D2400080D2400080D240008FB
:100120000D2400080D2400080D2400080D240008EB
:100130000D2400080D2400080D2400080D240008DB
:100140000D2400080D2400080D2400080D240008CB
:100150000D2400080D2400080D2400080D240008BB
:100160000D2400080D2400080D2400080D240008AB
:100170000D2400080D2400080D2400080D2400089B
:100180000D2400080D2400080D2400080D2400088B
:100190000D240008000000000D2400080D240008B4
:1001A0000D2400080D2400080D2400080D2400086B
:1001B0000D2400080D2400080D2400080D2400085B
:1001C0000D2400080D2400080D2400080D2400084B
:0801D0000D2400080D240008B5
:1001D8000348044B834202D0034B03B118477047CE
:1001E8008C0000208C000020000000000548064B11
:1001F8001B1AD90F01EBA301491002D0034B03B11D
:10020800184770478C0000208C0000200000000078
:1002180010B5064C237843B9FFF7DAFF044B13B146
:100228000448AFF300800123237010BD9000002024
:1002380000000000FC81000808B5044B1BB104490C
:100248000448AFF30080BDE80840CFE70000000095
:1002580094000020FC81000808B52DED028BF0EE1B
:10026800408AB0EE608A00F051F8F4EE488AF1EE68
:1002780010FA06D6DFED098AB4EE688AF1EE10FAB4
:1002880002D0BDEC028B08BD01F0F4F988EEA80A93
:10029800BDEC028B2123036008BD00BF00000000F5
:1002A800F8B52DED028B57EC106B55EC114B00F0A7
:1002B800EFF83046394622462B46B0EE408AF0EE3B
:1002C800608A00F011FF30B9002200232046294639
:1002D80000F0D8FE30B9B0EE480AF0EE680ABDEC7E
:1002E800028BF8BD01F0C6F900220023212101602C
:1002F8001046194600F088FD41EC180BB0EE480A8C
:10030800F0EE680ABDEC028BF8BD00BF70B582B094
:10031800CDED010A019820F000435A1EB2F1FF4FBB
:100328003BD210EE101A21F00044B4F1FF4F34D242
:100338009C4238DB01F0004258D011F0FF4F00F02A
:10034800FF463ED14FEA042C6FF07D054FEA4C0C76
:10035800BCF1000F05F1FF35F8DC002E66D118025C
:100368006FF07D0E40000EF1FF3EFBD515F17E0FBC
:1003780077DA6FF07D00411B04FA01F1A5EB0E0559
:10038800A0EB0E04A340681EA5B9CB1A002B75DBA1
:100398002CD0B3F5000F35DB41E0DDED017A60EEDE
:1003A800277A87EEA70A02B070BD1FD04FEA4C012A
:1003B800013822D3A1EB030CBCF1000FF5DA490098
:1003C800F6E7E51586B3DB15C0F31600ED1AC1F3A1
:1003D8001601A3F17F0E41F4000140F40003681EEA
:1003E800002DE7D1CB1A002B30DB0BD1274B03EBC9
:1003F800527393ED000A02B070BDCB1A48BF0B468A
:100408001BB9F3E75B000EF1FF3EB3F5000FF9DB14
:100418001EF17E0F1BDA6FF07D04A4EB0E0423415E
:10042800134300EE103ABEE77F3D98E7DB15A3F1D2
:100438007F0EC0F316006FF07D0140F40003491BE6
:10044800A5EB0E0004FA01F10138B3E70B46A3F55A
:1004580000030EF17F0E134343EACE5300EE103A29
:10046800A1E76FF07D04C1F31601A5EB0E00A4EB24
:100478000E0441F400010138A3409BE70029B5D0E0
:10048800B1F5000F0B46BDDBC9E700BF18820008B5
:1004980053EC112B2DE9F04123F0004752EA0704F1
:1004A80051EC100B53D0C14C21F00048A0458C46AC
:1004B8004DD85442BE4E144347EAD474B44215464C
:1004C80045D8B8459E46024601F0004449DCC0F2D2
:1004D800BC80854200F2B98000F00581314250D1DC
:1004E800B8F1000F3FD10028034640F35481B149C9
:1004F8005B00002B01F1FF31FADCAD4B0EEA030380
:10050800002B40F0C680002F40F0F480002D2B46D1
:1005180000F3A480A848401A1F2800F3758101F24F
:100528001E4322FA03F308FA00F8A24E43EA08032E
:1005380082404FF0150E06F21E4007FA0EFC25FA0F
:1005480000F005FA0EF5571B40EA0C0E2EE000F0FD
:1005580031FB02460B4600F057FC41EC100BBDE89E
:10056800F08131420DD194494FEAC8235B00002B3A
:1005780001F1FF31C1DD5B00002B01F1FF31F5DC3A
:10058800BBE78B4B4FEA28500EEA0303A0F2FF317A
:10059800002B5DD03F15CCF31303CEF3130EA7F257
:1005A800FF3643F480134EF4801E571B881B411EF0
:1005B80060B926E001381CD4A2EB050C4FEADC73C5
:1005C800013903EB40034FEA4C0219D3AA42A3EBCB
:1005D8000E00EFD30028A2EB050C0ADB50EA0C034F
:1005E800ECD1764BE40F03EBC40393ED000BBDE8AD
:1005F800F081D00F013900EB43034FEA4202E5D204
:10060800571BA3EB0E00AA4238BF00F1FF300028A9
:10061800BCBF1746184650EA070305D1E1E7FB0FB0
:1006280003EB40007F00013EB0F5801FF7DB624B13
:100638009E4242DBA0F5801006F2FF36204340EAD6
:1006480006533A4643EC102B89E741EC100B86E73A
:10065800002F4FD1002D2B4640F3B480554E5B0040
:10066800002B06F1FF36FADC534881424ADBA0EB47
:10067800060ECCF31303BEF11F0F43F480137FF76C
:100688005AAF4F48801B891B05FA00FE0139002527
:100698009CE74948401A4FEA275C1F28ACF2FF360E
:1006A80052DD474BCEF3130E5B1A891B02FA03F394
:1006B8004EF4801E0139002288E7A3EB060CBCF13A
:1006C800140F51DC06F21E4327FA0CF700FA03F365
:1006D80040FA0CFC4CEA040443EA070023460246AD
:1006E80043EC102B3BE7354B03EB147393ED000BF6
:1006F80035E73049304EFB025B00002B06F1FF3630
:10070800FADCB1E7A0EB010CBCF11F0F0FDCA0EB8A
:10071800060E01F21E4322FA03F308FA0CF8BEF1A2
:100728001F0F43EA080302FA0CF2AADC03E7A0EB66
:10073800060C2348BCF11F0FA0EB0103E64602FAA2
:1007480003F31DDC0022F6E601F21E4322FA03F34E
:1007580008FA00F843EA08038240CEF3130E891B17
:100768004EF4801E013931E7BCF11F0F0FDC06F291
:100778001E4327FA0CF700FA03F343EA0700ADE734
:10078800801B891B05FA00FE27D000227EE70C4B50
:100798009B1B1841A2E7064B0EEA03034BB33F1518
:1007A8000449A7F2FF36C30A4205D6E7FFFFEF7FE9
:1007B8000000F07FEDFBFFFF02FCFFFF2082000836
:1007C800E2FBFFFFCCF313034FEAD52E194E43F497
:1007D800801300F113016D05F8E6A3EB0E00002865
:1007E8001EDB3FF4FEAEB0F5801F0F46FFF617AFD5
:1007F80065E7002F7FF47DAF002D0E492B46D8BF4B
:1008080015203FF72BAF8AE60B4B0A4E5B1A02FA0C
:1008180003F34FEAD52E01F212413A466D05D5E6AB
:10082800002B3FF4DEAEB3F5801F18460F46FFF6E7
:10083800F6AE44E7EDFBFFFFE2FBFFFF81F000416E
:1008480002E000BF83F0004330B54FEA41044FEAAD
:10085800430594EA050F08BF90EA020F1FBF54EA48
:10086800000C55EA020C7FEA645C7FEA655C00F0E4
:10087800E2804FEA5454D4EB5555B8BF6D420CDDB5
:100888002C4480EA020281EA030382EA000083EA38
:10089800010180EA020281EA0303362D88BF30BDD8
:1008A80011F0004F4FEA01314FF4801C4CEA11312E
:1008B80002D0404261EB410113F0004F4FEA03338D
:1008C8004CEA133302D0524263EB430394EA050F18
:1008D80000F0A780A4F10104D5F1200E0DDB02FA87
:1008E8000EFC22FA05F2801841F1000103FA0EF21B
:1008F800801843FA05F359410EE0A5F120050EF1E1
:10090800200E012A03FA0EFC28BF4CF0020C43FA11
:1009180005F3C01851EBE37101F0004507D54FF01E
:10092800000EDCF1000C7EEB00006EEB0101B1F56E
:10093800801F1BD3B1F5001F0CD349085FEA3000B4
:100948004FEA3C0C04F101044FEA445212F5800FBF
:1009580080F09A80BCF1004F08BF5FEA500C50F15C
:10096800000041EB045141EA050130BD5FEA4C0C3F
:10097800404141EB0101013C28BFB1F5801FE9D29C
:1009880091F0000F04BF01460020B1FA81F308BFBF
:100998002033A3F10B03B3F120020CDA0C3208DD8B
:1009A80002F1140CC2F10C0201FA0CF021FA02F166
:1009B8000CE002F11402D8BFC2F1200C01FA02F1D6
:1009C80020FA0CFCDCBF41EA0C019040E41AA2BFFB
:1009D80001EB0451294330BD6FEA04041F3C1CDAC3
:1009E8000C340EDC04F11404C4F1200220FA04F0E3
:1009F80001FA02F340EA030021FA04F345EA03018D
:100A080030BDC4F10C04C4F1200220FA02F001FA4E
:100A180004F340EA0300294630BD21FA04F02946D0
:100A280030BD94F0000F83F4801306BF81F4801169
:100A38000134013D4EE77FEA645C18BF7FEA655CDC
:100A480029D094EA050F08BF90EA020F05D054EAAE
:100A5800000C04BF1946104630BD91EA030F1EBFB3
:100A68000021002030BD5FEA545C05D140004941B7
:100A780028BF41F0004130BD14F580043CBF01F5AA
:100A8800801130BD01F0004545F0FE4141F4700190
:100A98004FF0000030BD7FEA645C1ABF194610466B
:100AA8007FEA655C1CBF0B46024650EA013406BF6C
:100AB80052EA033591EA030F41F4002130BD00BF2B
:100AC80090F0000F04BF0021704730B54FF48064E8
:100AD80004F132044FF000054FF0000150E700BF69
:100AE80090F0000F04BF0021704730B54FF48064C8
:100AF80004F1320410F0004548BF40424FF00001B5
:100B08003EE700BF42004FEAE2014FEA31014FEAF7
:100B180002701FBF12F07F4393F07F4F81F0605146
:100B2800704732F07F4208BF704793F07F4F04BF91
:100B380041F40021704730B54FF4607401F000456E
:100B480021F000411CE700BF50EA010208BF7047CE
:100B580030B54FF000050AE050EA010208BF7047BF
:100B680030B511F0004502D5404261EB41014FF428
:100B7800806404F132045FEA915C3FF4D8AE4FF030
:100B880003025FEADC0C18BF03325FEADC0C18BF13
:100B9800033202EBDC02C2F1200300FA03FC20FA64
:100BA80002F001FA03FE40EA0E0021FA02F11444B1
:100BB800BDE600BF70B54FF0FF0C4CF4E06C1CEACA
:100BC80011541DBF1CEA135594EA0C0F95EA0C0F3B
:100BD80000F0DEF82C4481EA030621EA4C5123EAAE
:100BE8004C5350EA013518BF52EA033541F48011DD
:100BF80043F4801338D0A0FB02CE4FF00005E1FB90
:100C080002E506F00042E0FB03E54FF00006E1FBD9
:100C180003569CF0000F18BF4EF0010EA4F1FF041C
:100C2800B6F5007F64F5407404D25FEA4E0E6D415C
:100C380046EB060642EAC62141EA55514FEAC5206D
:100C480040EA5E504FEACE2EB4F1FD0C88BFBCF5E9
:100C5800E06F1ED8BEF1004F08BF5FEA500E50F19A
:100C6800000041EB045170BD06F0004646EA010160
:100C780040EA020081EA0301B4EB5C04C2BFD4EB92
:100C88000C0541EA045170BD41F480114FF0000E8B
:100C9800013C00F3AB8014F1360FDEBF002001F0F9
:100CA800004170BDC4F10004203C35DA0C341BDC73
:100CB80004F11404C4F1200500FA05F320FA04F045
:100CC80001FA05F240EA020001F0004221F0004179
:100CD80010EBD37021FA04F642EB06015EEA430EEC
:100CE80008BF20EAD37070BDC4F10C04C4F120051C
:100CF80000FA04F320FA05F001FA04F240EA0200CF
:100D080001F0004110EBD37041F100015EEA430E9F
:100D180008BF20EAD37070BDC4F1200500FA05F2BF
:100D28004EEA020E20FA04F301FA05F243EA02033E
:100D380021FA04F001F0004121FA04F220EA02004D
:100D480000EBD3705EEA430E08BF20EAD37070BD93
:100D580094F0000F0FD101F00046400041EB010173
:100D680011F4801F08BF013CF7D041EA060195F055
:100D7800000F18BF704703F00046520043EB03030F
:100D880013F4801F08BF013DF7D043EA06037047FC
:100D980094EA0C0F0CEA135518BF95EA0C0F0CD007
:100DA80050EA410618BF52EA4306D1D181EA03014D
:100DB80001F000414FF0000070BD50EA410606BF47
:100DC8001046194652EA430619D094EA0C0F02D18C
:100DD80050EA013613D195EA0C0F05D152EA0336D1
:100DE8001CBF104619460AD181EA030101F00041EF
:100DF80041F0FE4141F470014FF0000070BD41F038
:100E0800FE4141F4780170BD70B54FF0FF0C4CF411
:100E1800E06C1CEA11541DBF1CEA135594EA0C0F30
:100E280095EA0C0F00F0A7F8A4EB050481EA030E7D
:100E380052EA03354FEA013100F088804FEA033364
:100E48004FF0805545EA131343EA12634FEA022232
:100E580045EA111545EA10654FEA00260EF00041F3
:100E68009D4208BF964244F1FD0404F5407402D245
:100E78005B084FEA3202B61A65EB03055B084FEAD6
:100E880032024FF480104FF4002CB6EB020E75EBD3
:100E9800030E22BFB61A754640EA0C005B084FEAFB
:100EA8003202B6EB020E75EB030E22BFB61A754678
:100EB80040EA5C005B084FEA3202B6EB020E75EBC3
:100EC800030E22BFB61A754640EA9C005B084FEA3B
:100ED8003202B6EB020E75EB030E22BFB61A754648
:100EE80040EADC0055EA060E18D04FEA051545EA37
:100EF80016754FEA06164FEAC30343EA52734FEAE0
:100F0800C2025FEA1C1CC0D111F4801F0BD141EA58
:100F180000014FF000004FF0004CB6E711F4801FBD
:100F280004BF01430020B4F1FD0C88BFBCF5E06F9D
:100F38003FF6AFAEB5EB030C04BFB6EB020C5FEAAD
:100F4800500C50F1000041EB045170BD0EF0004E02
:100F58004EEA113114EB5C04C2BFD4EB0C0541EA34
:100F6800045170BD41F480114FF0000E013C90E631
:100F780045EA060E8DE60CEA135594EA0C0F08BFF5
:100F880095EA0C0F3FF43BAF94EA0C0F0AD150EAF4
:100F980001347FF434AF95EA0C0F7FF425AF104687
:100FA80019462CE795EA0C0F06D152EA03353FF4AF
:100FB800FDAE1046194622E750EA410618BF52EA2C
:100FC80043067FF4C5AE50EA41047FF40DAF52EA00
:100FD80043057FF4EBAE12E74FF0FF3C06E000BF9D
:100FE8004FF0010C02E000BF4FF0010C4DF804CDAA
:100FF8004FEA410C7FEA6C5C4FEA430C18BF7FEA6A
:101008006C5C1BD001B050EA410C0CBF52EA430C97
:1010180091EA030F02BF90EA020F0020704710F117
:10102800000F91EA030F58BF994208BF90422CBFA6
:10103800D8176FEAE37040F0010070474FEA410C9F
:101048007FEA6C5C02D150EA013C07D14FEA430CBD
:101058007FEA6C5CD6D152EA033CD3D05DF8040B2E
:10106800704700BF8446104662468C461946634660
:1010780000E000BF01B5FFF7B7FF002848BF10F137
:10108800000F01BD4DF808EDFFF7F4FF0CBF01207C
:1010980000205DF808FB00BF4DF808EDFFF7EAFFF8
:1010A80034BF012000205DF808FB00BF4DF808EDB3
:1010B800FFF7E0FF94BF012000205DF808FB00BFA8
:1010C8004DF808EDFFF7CEFF94BF012000205DF832
:1010D80008FB00BF4DF808EDFFF7C4FF34BF01203F
:1010E80000205DF808FB00BF4FEA410C7FEA6C5C0A
:1010F80002D150EA013C0AD14FEA430C7FEA6C5C0A
:1011080002D152EA033C02D14FF0000070474FF081
:10111800010070474FEA410212F5001215D211D5AD
:101128006FF47873B3EB625212D94FEAC12343F0DC
:10113800004343EA505311F0004F23FA02F018BF5E
:10114800404270474FF00000704750EA013005D127
:1011580011F0004008BF6FF0004070474FF00000EA
:10116800704700BF4FEA4102B2F1E04324BFB3F534
:10117800001CDCF1FE5C0DD901F0004C4FEAC00206
:101188004CEA5070B2F1004F40EB830008BF20F0EA
:101198000100704711F0804F21D113F13872BCBFA4
:1011A80001F00040704741F480114FEA5252C2F1F9
:1011B8001802C2F1200C10FA0CF320FA02F018BF42
:1011C80040F001004FEAC1234FEAD32303FA0CFC95
:1011D80040EA0C0023FA02F34FEA4303CCE77FEA24
:1011E800625307D150EA01331EBF4FF0FE4040F46E
:1011F8004000704701F0004040F0FE4040F400001D
:10120800704700BF844641EA000313F003036DD121
:10121800403A41D351F8043B40F8043B51F8043BB1
:1012280040F8043B51F8043B40F8043B51F8043BB8
:1012380040F8043B51F8043B40F8043B51F8043BA8
:1012480040F8043B51F8043B40F8043B51F8043B98
:1012580040F8043B51F8043B40F8043B51F8043B88
:1012680040F8043B51F8043B40F8043B51F8043B78
:1012780040F8043B51F8043B40F8043B51F8043B68
:1012880040F8043B51F8043B40F8043B51F8043B58
:1012980040F8043B403ABDD2303211D351F8043BF8
:1012A80040F8043B51F8043B40F8043B51F8043B38
:1012B80040F8043B51F8043B40F8043B103AEDD2A7
:1012C8000C3205D351F8043B40F8043B043AF9D2F8
:1012D800043208D0D2071CBF11F8013B00F8013BCB
:1012E80001D30B8803806046704700BF082A13D3D8
:1012F8008B078DD010F003038AD0C3F10403D21AF0
:10130800DB071CBF11F8013B00F8013B80D331F823
:10131800023B20F8023B7BE7043AD9D3013A11F8A3
:10132800013B00F8013BF9D20B7803704B7843700E
:101338008B788370604670478842F0B514D98B1853
:10134800834211D9032A00EB020166D802F1FF3C5F
:101358004AB16FEA0C0C0A469C4413F8011D02F8C6
:10136800011D6345F9D1F0BD032A0FD8034602F1E8
:10137800FF3C002AF7D00CF1010C013B8C4411F81A
:10138800012B03F8012F6145F9D1F0BD41EA0003B3
:101398009B073ED10F2A64D9A2F1100301F1100472
:1013A80023F00F032031A446194400F1100E5CF815
:1013B800105C4EF8105C5CF80C5C4EF80C5C5CF849
:1013C800085C4EF8085C5CF8045C4EF8045C0CF1B0
:1013D800100C8C450EF1100EE9D1E11812F00C0F2B
:1013E800034402F00F0E03F1100338D02EF003056A
:1013F800043D1A1F5E198C465CF8044B42F8044FF2
:10140800B242F9D10431043329442B440EF00302CB
:10141800ADE702F1FF3C0346ADE741EA0304A40748
:101428001F4602D002F1FF3C93E7A2F1040E2EF012
:1014380003068E1B4FEA9E0E8C46644653F8045DE5
:101448004CF8045DB442F8D1CEEB8E7301EB830106
:1014580007EB83073B1F043902F0030276E7724665
:1014680085E703469646C1E770B5104E33680546D2
:101478000C46B3B12146284600F02AF9431C0CD08B
:10148800C41C24F00304A04205D0211A284600F009
:101498001FF9013001D0204670BD4FF0FF342046BF
:1014A80070BD194600F014F93060E3E7AC00002085
:1014B8002DE9F843CD1C25F0030508350C2D38BF60
:1014C8000C25002D064618DBA94216D8DFF8DC806B
:1014D80000F0CCF8D8F80420A2B1144603E0636801
:1014E80022467BB11C4623685B1BF8D40B2B1FD804
:1014F800A242636854D053600CE00C233360002090
:10150800BDE8F88329463046FFF7AEFF431C044682
:1015180019D00560304600F0ABF804F10B00231D2C
:1015280020F00700C21A1CBF1B1AA350BDE8F8839D
:101538006119A242256014BF5160C8F804106351B4
:1015480063684B60E6E7D8F804701FB33C467F68D1
:10155800002FFBD123683946304604EB030900F01D
:10156800B7F8814516D12368ED1A29463046FFF7AA
:101578007BFF01300ED02368D8F804202B44236069
:10158800536883B1A34203D01A465B689C42FBD1DF
:101598000023B0E70C233360304600F069F8AEE76B
:1015A800C8F80430B6E7C8F80470B3E7AC00002008
:1015B800024B01461868FFF77BBF00BF0000002000
:1015C800024B0146186800F095B800BF00000020E3
:1015D800830730B546D08418844604E003F8011B1D
:1015E8009D0704D09C46A4456346F7D130BD013A17
:1015F8000244A2EB0C02032A29D9CCB204EB04243E
:101608000F2A04EB04442FD9A2F1100C2CF00F0C74
:1016180003F11005AC44C3E90044C3E902441033A4
:101628006345F8D112F00C0F02F00F0E18D02EF00F
:10163800030C9C44AEF104051A4642F8044B62457B
:10164800FBD125F0030404330EF003022344002ADF
:10165800CCD0C9B21A4403F8011B9342FBD130BD68
:101668007246F4E70346C6E79646E0E7704700BFD0
:10167800704700BF014B1868704700BF000000208A
:1016880070B50F4B0F4DAB42A3EB050607D0B61054
:10169800002455F8043B01349847A642F9D806F0CF
:1016A800A9FD094D094B5E1BAB424FEAA60606D0C1
:1016B800002455F8043B01349847A642F9D870BD78
:1016C800188D0008188D0008188D00081C8D00085A
:1016D80038B5074D0022044608462A6000F04CFE43
:1016E800431C00D038BD2B68002BFBD0236038BDCD
:1016F800F0010020002950D038B551F8043C0C1FE7
:10170800002BB8BFE4180546FFF7B0FF274A136857
:101718002BB1A3420CD92168601883422CD0636096
:1017280028461460BDE83840FFF7A2BFA3420FD88F
:101738001A465B68002BF9D111685018844217D0FB
:101748002CD3636054602846BDE83840FFF790BF4B
:1017580011685018A04214D020D82168601883421C
:10176800EFD118685B680844C4E900035460EAE7ED
:1017780023680B441360E6E718685B680844206038
:10178800CDE720680144501883421160DBD1D3E9CA
:1017980000040144C2E90014D5E770470C232B600C
:1017A8002846BDE83840FFF763BF00BFB0000020FF
:1017B80008B572B60249002002F0FAFFFAE700BF46
:1017C8003082000810B594B03822002106A8FFF72F
:1017D800FFFE1422002101A8FFF7FAFE002004F002
:1017E80093FE01224FF48033CDE90623032402231C
:1017F800552206A8CDE90D34CDE91023CDE91233E1
:101808000F9303F053FF08B1FFF7D2FF0421CDE98E
:1018180003000F2305900DEB0100CDE9013404F01E
:1018280087F90028F0D104F077FA14B010BD000051
:1018380070B52DED028B03F003FFFFF7C3FF00F037
:101848008DF800F043FA00F005FB00F0C5FB00F04E
:101858002FFB00F03FF900F0B5F900F05FFA02F055
:1018680095FC002002F094FC3048314C314EDFEDFD
:10187800328A02F0B6FB2E4801F046FD2D4801F0F1
:1018880089FF01F04FFF2D4B186002F0CDFA4FF49D
:101898007A7003F0F7FE1E25D4F858224FF6FF732E
:1018A8009A4227D1234801F07FFF204696ED010A8E
:1018B80001F012FCD4F8583294EDB30A5B0007EE3D
:1018C800903AB8EEE78AD4ED927A30EE670A00F0E3
:1018D800E5FDA8EE280A1A4BD4ED910A83ED000A1B
:1018E80000F0F2FDD4F88C3284EDB60A0120984756
:1018F800013DD1D113491448922202F063FB922290
:101908001249114802F0CEFA1149002002F050FFA6
:10191800104B1A68536843F0200353600E4B1A6843
:10192800D36843F00103D360FEE700BF58090020E5
:10193800E0040020C8040020DB0F4940D804002040
:1019480020090020F804002000000408800200207C
:101958003882000864090020AC0B002070B51422FE
:101968008AB00DEB02000021FFF732FE324B3348FC
:10197800DA6C42F00402DA64DA6C02F004020192D2
:10198800019ADA6C42F02002DA64DA6C02F0200282
:101998000292029ADA6C42F00102DA64DA6C02F01E
:1019A80001020392039ADA6C42F00202DA64DB6CF9
:1019B80003F00203049300224FF46041049B04F0F7
:1019C80095FD1F48002241F6C16104F08FFD0022F9
:1019D8004FF400414FF0904004F088FD01250024A9
:1019E8004FF4604305A91548CDE905350326CDE92F
:1019F800074404F0ADFC41F6C14305A9104807941B
:101A0800CDE90535089604F0A3FC4FF4004305A979
:101A18004FF09040CDE90535CDE9074604F098FC34
:101A28004FF40073064805A9CDE90535CDE907440B
:101A380004F08EFC0AB070BD001002400008004897
:101A48000004004810B59CB004461422002102A8E6
:101A5800FFF7BEFD5422002107A8FFF7B9FD236850
:101A6800B3F1A04F31D14FF40043079307A84FF0CB
:101A78000053189304F068F908B1FFF799FE144B66
:101A8800DA6C42F40052DA64DA6C02F40052009222
:101A9800009ADA6C42F00102DA64DB6C03F00103AD
:101AA800019307220024019B0494032302A94FF009
:101AB8009040CDE9022304F04BFC12202246214637
:101AC80004F094FD122004F0C3FD1CB010BD00BF4B
:101AD8000010024010B5002492B03C22214603A811
:101AE800CDE900440294FFF773FD324A4FF0A0435A
:101AF800114613604FF44033C2E90134D460012326
:101B0800146108460422C1E905328C830B6281F80E
:101B1800244081F83840CC6381F8404002F0EEFE62
:101B280008B1FFF745FE23480094694603F0C6FC58
:101B380008B1FFF73DFE20480923CDE903037F22C2
:101B48000023CDE905320422CDE9072303220B92B5
:101B580084244FF480721748ADF8303003A9CDE9DA
:101B68000D428DF832308DF83C3003F045FA08B15B
:101B7800FFF71EFE11490F4840F20F13CDE903137A
:101B880003A903F039FA08B1FFF712FE0C4A094815
:101B980040F2152303A9CDE9032303F02DFA08B178
:101BA800FFF706FE0348FFF74DFF024803F088F9E8
:101BB80012B010BD6409002002003004040060085F
:101BC8000800900C10B5174C174B23601120032107
:101BD800C4E905010521042000234FF44072C4E93B
:101BE80007101C20C4E90132C4E90B010122204678
:101BF800C4E90921C4E90D23E3602282A374E363E5
:101C080004F048FD08B1FFF7D3FD084801F0DEFFF6
:101C180004480022012104F08DFFBDE8104001486E
:101C280004F078BED009002000640040F8010020CC
:101C380030B59DB004461422002102A8FFF7C8FC65
:101C48005422002107A8FFF7C3FC22681D4B9A42C3
:101C580036D14FF48053079307A84FF000731593BC
:101C680004F072F808B1FFF7A3FD174B9A6D42F024
:101C780000729A659A6D02F000720092009ADA6C0E
:101C880042F00102DA64DB6C03F001030193019B6B
:101C980002244FF4C053CDE9023400250323CDE9D3
:101CA800045302A909234FF09040069304F050FB17
:101CB80015202A46214604F099FC152004F0C8FC9A
:101CC8001DB030BD0064004000100240114908B545
:101CD800114B0B604FF482720023C1E901234FF4CA
:101CE80070620120C1E903234FF40072C1E90502C3
:101CF8003822C1E9072308460722C1E90933C1E9A7
:101D08000B234B6305F049F918B1BDE80840FFF70C
:101D18004FBD08BDFC0A002000300140124908B53B
:101D2800124B0B604FF4827200234FF4E060C1E95C
:101D380001230222C1E903024FF0010C4FF40072A3
:101D4800C1E905C21822C1E9072308460722C1E9EB
:101D58000933C1E90B234B6305F01FF918B1BDE83E
:101D68000840FFF725BD08BD340A0020003C0040AC
:101D780010B504468CB01422002107A8FFF728FCF0
:101D880023682F4A93421FD12E4B1A6E42F4805279
:101D98001A661A6E02F480520192019ADA6C42F0C5
:101DA8000102DA64DB6C03F001030293E020029B7A
:101DB8000223CDE9070305230B9307A94FF09040B1
:101DC80004F0C6FA0CB010BD1F4A93421CD11D4B3B
:101DD8009A6D42F480429A659A6D02F480420392A9
:101DE800039ADA6C42F00202DA64DB6C03F0020355
:101DF8000493049B4FF460410223CDE907130523A4
:101E080012480B9307A9DBE7114A9342DAD10D4B2D
:101E18009A6D42F400429A659A6D02F40042059266
:101E2800059ADA6C42F00202DA64DB6C03F0020312
:101E38000693069B38220223CDE907230623DFE712
:101E48000030014000100240003800400004004803
:101E5800003C004008B51448FFF78AFF1249134BAD
:101E68000B604FF4827200234FF4E060C1E9012354
:101E78000222C1E903024FF0010C4FF40072C1E9DC
:101E880005C21022C1E9072308460722C1E9093320
:101E9800C1E90B234B6305F080F818B1BDE8084091
:101EA800FFF786BC08BD00BF980A00200038004034
:101EB80000B5102289B000210DEB0200FFF788FB66
:101EC8001749184A0A6000234FF49672C1E90123A2
:101ED80008464FF6FF72CDE90133C1E903230393A6
:101EE8008B6105F071FE08B1FFF762FC4FF4805377
:101EF8000B48049304A905F093FF08B1FFF758FCB9
:101F080000230748019301A9039306F0CDF808B10F
:101F1800FFF74EFC024805F0EDFC09B05DF804FB44
:101F2800600B00200004004007B50368134A934281
:101F380014D1134B1A6E42F400621A661B6E03F436
:101F480000630093002201211920009B04F04EFB3E
:101F5800192003B05DF804EB04F07ABB094A9342F8
:101F680009D1074B9A6D42F002029A659B6D03F006
:101F780002030193019B03B05DF804FB002C0140B0
:101F8800001002400004004010B5044686B0142238
:101F9800002101A8FFF71CFB22680E4B9A4216D1BC
:101FA80003F5644301A9DA6C42F00102DA64DB6CE0
:101FB80003F001030093009B4FF4E0620223CDE994
:101FC80001234FF090400623059304F0C1F906B0B1
:101FD80010BD00BF002C014030B510229DB0002577
:101FE80000210DEB0200FFF7F3FA1C22294608A88E
:101FF800CDE901550395FFF7EBFA342229460FA8DE
:10200800FFF7E6FA4E4C4F4B2022C4E9003541F267
:102018009A03C4E9022320468023C4E90455A36136
:1020280005F0D2FD08B1FFF7C3FB4FF480534448D5
:10203800049304A905F0F4FE08B1FFF7B9FB404882
:1020480005F0F2FD08B1FFF7B3FB00253C48039506
:1020580001A9CDE9015506F027F808B1FFF7A8FB5B
:10206800602337480E95002208A9CDE90835CDE947
:102078000A55CDE90C5505F04DFE08B1FFF798FB60
:102088002F48042208A905F045FE08B1FFF790FB88
:102098002B48082208A905F03DFE08B1FFF788FB88
:1020A80027480C2208A905F035FE08B1FFF780FB88
:1020B80000234FF40052CDE91423214813934FF025
:1020C80000720FA9CDE90F33CDE91133CDE91633ED
:1020D800CDE91823CDE91A3306F036F808B1FFF731
:1020E80067FB1748FFF750FF154805F003FC08B1D8
:1020F800FFF75EFB1248002105F0D4FF08B1FFF797
:1021080057FB0F48042105F0CDFF08B1FFF750FB3E
:102118000B48082105F0C6FF08B1FFF749FB08483E
:102128000C2105F0BFFF08B1FFF742FB2368044804
:102138004FF47A621A64FFF727FF1DB030BD00BF65
:10214800AC0B0020002C014008B503F0EFFDFEE7C2
:10215800FEE7FEE7FEE7FEE770477047704703F0CB
:102168007FBA000010B51548154C02F0D9FC154887
:102178004FF4006104F0BFF913482368D0F85C12EB
:10218800C3B900F0F3FE20600F4800F03BFD0E4895
:1021980000F0A8F90C4800F04FFA0B4800F08EFA4E
:1021A800094800F0D3FBBDE8104006484FF4006131
:1021B80004F0A1B9026A00F063FDE5E764090020B4
:1021C800F401002000040048E0040020014804F065
:1021D80028BD00BFD0090020014805F0CABB00BFD8
:1021E800AC0B002038B5214B214C224803F12C02BE
:1021F800402104F009FC256E40F211239D4229D0AC
:1022080040F221239D422CD0012D1ED104F134012E
:10221800204601F0FFFA184B9FED182AD3ED0E7AED
:10222800D3EDB80A93EDB60AB7EE007A87EE271A0F
:102238002046D3EDAA7AF0EE421A21EE271A01F0D1
:1022480067FB0F4B0F4A1D609A60BDE8384008488D
:1022580001F032BC0A4B022220461A6001F022FC2F
:10226800F3E7074B03221A60EFE700BF2C020020B8
:10227800F8010020D0090020E00400200000000040
:1022880058090020CDCCCC3D10B5294A0168536AC5
:1022980091422DED028B48D19BB2B3F5FA7F44D21F
:1022A80024484FF4806104F026F9234B1B689BB344
:1022B800224CD4E90401FEF755FFD4EDB70A01EE2C
:1022C800100AB3EE040A04F5487000F068FBD4E97C
:1022D8000401B0EE408AFEF745FFD4EDAA0A01EEEC
:1022E800100AB0EE480A04F5667000F058FBD4E90D
:1022F800040184EDB10AFEF735FFD4EDAB0A9FED7A
:10230800100A01EE100A04F5577000F048FB204649
:1023180084EDB20A00F084FBBDEC028B0548BDE8F1
:1023280010404FF4806104F0E6B8BDEC028B10BD9C
:10233800002C014000040048F4010020E0040020C3
:10234800000000000B4B1A6E42F0010282B01A66C0
:102358001A6E02F001020092009A9A6D42F08052C1
:102368009A659B6D03F080530193019B02B004F0C2
:1023780023B900BF001002400A4A0346106810B58E
:1023880008B9094810600949094C0344091B8B42E4
:1023980006D9FFF76FF90C2303604FF0FF3010BD2B
:1023A8001360FCE7F80B0020281100200000022031
:1023B800000400000D48854602F08EFA0C480D49CD
:1023C8000D4A002302E0D458C4500433C4188C4288
:1023D800F9D30A4A0A4C002301E013600432A242EE
:1023E800FBD3FFF74DF9FFF723FAFEE700000220C1
:1023F800000000208C000020208D00088C000020A8
:1024080024110020FEE7000008B52DED068B71EEC3
:10241800608ADFED207AB0EEE87AB4EEE77AF1EE82
:1024280010FAB0EE40AAB0EE608A2FD4F5EEC08A5A
:10243800F1EE10FA48BFF1EE688A18EE900A48BF2C
:10244800B0EE418AFEF75EFB7AEE487A41EC190B52
:1024580017EE900AFEF756FBB0EE491AF0EE691A2D
:1024680041EC100BFDF71CFF51EC100BFEF77AFE48
:1024780007EE900AF5EEC07AF1EE10FA48BF77EE53
:10248800A87A38EE270ABDEC068B08BD9FED020A34
:10249800F9E700BFBD37863500000000DFED097A97
:1024A800B4EEE70AF1EE10FA05DAB5EEC00AF1EE7D
:1024B80010FA03D4704730EE670AF1E730EE270AC6
:1024C800F3E700BFDB0FC940F0EE607A80EE270A21
:1024D8009FED021ADFED020AFFF796BFDB0F4940B6
:1024E800DB0F49C0D0EDB36A90EDB46ADFED215A35
:1024F80076EEC67A00F58863B0EEE75AB4EEE55A90
:10250800F1EE10FA10B593ED007A04460ADDF5EE07
:10251800C07AF1EE10FADFED187A06D577EEC67AB2
:1025280077EEA67A77EE877A05E077EEE67A77EEA9
:10253800867A77EE677AC3ED007AD4F88432C4EDF0
:10254800B46A9847D4F88832C4F844049847D4ED5C
:10255800067A84EDB30AB0EE407AF8EE677A94ED25
:10256800100AA7EE270AFFF799FF84EDB50AB0EE27
:10257800470A10BD7CD9A040DB0FC94008B52DED36
:10258800048BB0EE408AB0EE410AB0EE609AF0EEED
:10259800419A02F05DF9F0EE408AB0EE690A02F065
:1025A80015F928EE407A60EE097AA8EE897A05488E
:1025B800E8EE887ABDEC048B80ED007AC0ED017AF4
:1025C80008BD00BF3C0C002010B590EDB50A90ED99
:1025D800B17AD0EDB20AFFF761FFB0EE401AB0EE63
:1025E800470A0446FFF7CAFF0268C4F8BC224368DA
:1025F800C4F8C03210BD0000B0EE007AF0EE607A88
:10260800D0EE077A094B9FED0A7A77EEC17A70EE21
:10261800C10A67EE877A1846C3ED007ADFED057ABE
:1026280060EEA70AC3ED010A704700BF340C002012
:10263800ABAAAA3E3ACD133F08B590EDA71AD0ED44
:10264800A60A90EDA50A0246FFF7D6FF0168C2F870
:10265800A0124368C2F8A43208BD000010B52DEDE1
:10266800048BF0EE408AB0EE410AB0EE418AB0EE3B
:10267800609A02F0EDF8F0EE409AB0EE480A02F0E7
:10268800A5F860EE097A0C4CE9EEA87AB0EE480A93
:10269800C4ED007A02F09AF8F0EE409AB0EE480ADB
:1026A80002F0D6F860EE090A2046E8EEE90ABDEC29
:1026B800048BC4ED010A10BD2C0C002010B590ED60
:1026C800B50A90EDA87AD0EDA90AFFF7E7FEB0EEBB
:1026D800401AB0EE470A0446FFF7C0FF0268C4F884
:1026E800AC224368C4F8A83210BD000010B5B5EE9E
:1026F800C00AF1EE10FA2DED048B04463FD4B7EE74
:10270800009AB4EEC90AF1EE10FAD8BFB0EE409ABA
:10271800F5EEC00AF1EE10FA34D4F7EE008AF4EEC2
:10272800E80AF1EE10FAD8BFF0EE608AB5EEC01AEA
:10273800F1EE10FA29D4B7EE008AB4EEC81AF1EE19
:1027480010FAD8BFB0EE418AD4E99832D4F86812AA
:102758001A43114324D0E269013219D0B0EE490A74
:102768009847D4F86432B0EE680A9847B0EE480A41
:10277800BDEC048BD4F86832BDE8104018479FEDD3
:102788000A9AC5E7DFED088AD0E79FED078ADBE7FD
:10279800B0EE680A9847D4F86432B0EE490AE4E724
:1027A800BDEC048B10BD00BF00000000F5EE400A30
:1027B800F1EE10FA06D1B5EEC00AF1EE10FA4EDAD3
:1027C80004207047B5EE400AF1EE10FA06D1F5EE96
:1027D800C00AF1EE10FA2ADA05207047B5EEC00AF1
:1027E800F1EE10FAF5EEC00A0EDDF1EE10FA3DDD5D
:1027F800C0EE807A9FED377AF4EEC77AF1EE10FAE0
:102808002DD4F0EE407A09E0F1EE10FAB5EEC00AE8
:102818003BDDF1EE10FAF4DAF1EE407A80EEA77AB9
:10282800DFED2C7AB4EEE77AF1EE10FA19DD02202A
:102838007047F1EE600A80EE807AB4EEE77AF1EE46
:1028480010FA48BF032058BF0020704780EE807AF6
:10285800B4EEE77AF1EE10FA48BF0620F3E701205C
:102868007047B5EEC00AF1EE10FAE2D4F5EEC00AF0
:10287800F1EE10FA2CD5B5EEC00AF1EE10FAF1EE31
:10288800600A15DBF0EE407A14E0F1EE10FAEDD5AF
:10289800F5EEC00AF1EE10FA1AD5C0EE807A9FED77
:1028A8000D7AF4EEC77AF1EE10FA89D4F1EE600AE7
:1028B800F1EE407A80EEA77ADFED067AB4EEE77A99
:1028C800F1EE10FA88DCB5EEC00AF1EE10FABDDCC4
:1028D80000207047D7B3DD3F08B5D0EDB00A90EDC2
:1028E800AF0A0346FFF762FFC3F8100408BD0000F3
:1028F800B5EEC01AF1EE10FA1FD970EE607A9FEDAE
:10290800107AF0EEE76AF4EEC76AF1EE10FA11DD1C
:10291800F5EEC07ADFED0B7AF1EE10FA55BF77EEDF
:10292800C07A77EEE07A77EEA07A77EE807A58BFB1
:10293800F1EE677A87EE810A70479FED030A7047C8
:102948007CD9A040DB0FC9400000000010B5044648
:10295800D0E90401FEF706FCD4EDB40A94EDB30AFD
:1029680001EE100AFFF7C4FF04F2344383ED000AB6
:1029780004F58763D3ED006AF7EE007A04F23C436E
:1029880093ED006A77EEE67AB0EE407A27EE860A93
:10299800A7EE260A84EDB70A83ED000A10BD70EE93
:1029A800600A90ED027AD0ED0B7AC0ED050AA0EE30
:1029B800817AB4EEE77AF1EE10FA08D4D0ED0A7A0B
:1029C800B4EEE77AF1EE10FAD8BFF0EE477A90ED60
:1029D800077AC0ED027A30EEC77A90ED0E0AC7EE9C
:1029E800016A90ED017A67EE877A90ED007AE0EE61
:1029F800877A90ED047AE7EE267AF4EEC07AF1EE63
:102A080010FA08D490ED0D0AF4EEC07AF1EE10FA3F
:102A1800D8BFB0EE670A80ED060AC0ED070A704716
:102A2800F8B50446FFF7D0FD2046FFF755FF94EDB3
:102A38000B7ADFED6C6AD4F81064D4EDAF4A9FEDE1
:102A48006A5A6A4B6A4AF6EE005A27EE257A013E20
:102A5800C6EE877AD4EDB06A26EEA57AB0EE476A5C
:102A680094EE856AA4EE857A052E0CD8DFE806F088
:102A780003323940474E27EE866A67EEA67A83ED21
:102A8800006AC2ED007A93ED005A92ED006AB7EE43
:102A9800007A77EE457A75EE064A77EEC67AF4EE56
:102AA800C74AF1EE10FA67EEA57A09DDC5EE246A89
:102AB800C3ED006A76EE266A86EE265A82ED005A43
:102AC8004C494D484D4D052E44D8DFE806F02635D3
:102AD8006069788127EEC66A67EE877A83ED006AB7
:102AE800CFE767EEA66A67EEC77AC3ED006AC8E764
:102AF80067EEE66A67EEC67AC3ED006AC1E727EEBD
:102B0800C77A67EE867A83ED007ABAE727EE877A86
:102B180067EEE67A83ED007AB3E7D2ED006AC1ED9D
:102B2800007A77EEA67AC0ED007AD3ED006A76EEE9
:102B3800A77AC5ED007A0DE0D2ED006AC1ED007A02
:102B480077EEA67AC5ED007AD3ED006A76EEA77A1D
:102B5800C0ED007AD5ED007AD0ED006A91ED006AFB
:102B68009FED270A77EE877A76EE876A36EE077A40
:102B7800B0EE401AF0EE400A2046A7EE251ABDE84E
:102B8800F840E6EEA50AA7EEA50AFFF7AFBDD2ED1D
:102B9800006AC5ED007A77EEA67AC1ED007AD3E730
:102BA800D2ED006AC5ED007A77EEA67AC0ED007A1C
:102BB800D3ED006A76EEA77AC1ED007ACAE7D2EDC6
:102BC800006AC0ED007A77EEA67AC5ED007AEFE7E5
:102BD800D2ED006AC0ED007A77EEA67AC1ED007AF0
:102BE800A3E700BFD7B3DD3FD7B35D3F280C002074
:102BF800240C0020200C00201C0C0020180C0020A5
:102C080000000000D0F8903210B50446083098470C
:102C1800D4E90401FEF7A6FA00EE100A10BD000080
:102C2800023804280FD8DFE800F00308161B240038
:102C3800F0EE607AF0EE400A03E0F0EE417AB0EE92
:102C4800401AB0EE670A0D4880ED000AC0ED010A8F
:102C580080ED021A7047F0EE417AB0EE601AE9E7AB
:102C6800F0EE417AB0EE401AB0EE600AF0EE670A74
:102C7800E9E7F0EE417AB0EE601AF7E70C0C0020B5
:102C8800B1F5807F70B50446154600F0F1800ADC86
:102C9800102900F02981112900F0B280012900F0E3
:102CA8004681002070BDB1F5887F74D040F21113C1
:102CB800994237D040F201139942F2D1D0F86C32E0
:102CC800002BEED0D0F874020028EBD0D4F87802AC
:102CD8000028E7D0D4F880020028E3D098470023E2
:102CE800C4F87034C4F86C04D4F874329847D4F833
:102CF8007832D4F82814C4F87404D4F86C049847CB
:102D080004F21C46D4F88032D4F83014D4F8740491
:102D180086ED000A984704F2244383ED000A04F57F
:102D2800846364E0D0F86C32002BBAD0D0F870021B
:102D38000028B7D0D4F874020028B3D09847D4F844
:102D48007032C4F86C049847D4F87432C4F870042C
:102D58009847D4F87832D4F82814C4F87404D4F80E
:102D68006C04984704F21C43D4F82C14D4F870046B
:102D780083ED000AD4F87C32984704F5846383ED28
:102D8800000AD4F83014D4F88032D4F87404984780
:102D980004F2244331E0D0F86C32002B81D0D0F813
:102DA800700200283FF47EAF9847D4F87032C4F818
:102DB8006C0498470023D4F82814C4F87004C4F8A5
:102DC8007434D4F86C04D4F87832984704F21C466A
:102DD800D4F87C32D4F82C14D4F8700486ED000AA8
:102DE800984704F5846383ED000A04F22443D6ED82
:102DF800007A30EE270AB1EE400A83ED000A59E066
:102E0800D0F87032002B3FF44CAFD0F87402002891
:102E18003FF448AFD4F87C0200283FF443AFD4F81D
:102E2800800200283FF43EAF0022C4F86C24984783
:102E3800D4F87432C4F870049847D4F87C32D4F8C3
:102E48002C14C4F87404D4F87004984704F5846604
:102E5800D4F88032D4F83014D4F8740486ED000A1B
:102E6800984704F2244383ED000A04F21C43BEE7AA
:102E7800D0F86C32002B3FF414AFD0F87802002859
:102E88003FF410AF98470023C4F87034C4F8743482
:102E9800D4F82814D4F87832C4F86C04984704F2AB
:102EA8001C4383ED000A04F5846300221A6004F2CF
:102EB80024431A6004F21C4304F2244104F584629A
:102EC80093ED000A91ED001AD2ED000A2846FFF7AB
:102ED800A7FE0368C4F894324368C4F8983283683C
:102EE800C4F89C320120DDE6D0F870320026002BB1
:102EF8003FF4D7AED0F87C0200283FF4D3AEC4F834
:102F08006C64984704F21C43C4F874640026C4F83F
:102F18007004D4F82C141E60D4F87C32984704F559
:102F2800846383ED000A04F224431E60C2E7D0F8EC
:102F380074320022BBB1D0F8800200283FF4B2AE50
:102F4800C4F86C24C4F87024984704F21C43002287
:102F5800C4F874041A6004F58463D4F830141A6051
:102F6800D4F8803213E718469CE6000070B5564D39
:102F78002B68B3F57A7F044680F08D80B1F5807FA9
:102F880066D007DC102974D0112950D0012979D0D6
:102F9800002070BDB1F5887F37D040F211139942F7
:102FA8001DD040F201139942F2D1D0F86C32002BB7
:102FB800EED0D0F87422002AEAD0D0F87822002A7D
:102FC800E6D0D0F88022002AE2D098473F4A13681A
:102FD80003441360D4F8743298473D4A42E0D0F86D
:102FE8006C32002BD4D0D0F87022002AD0D0D0F880
:102FF8007422002ACCD09847344A136803441360DB
:10300800D4F870329847334AE1E7D0F86C32002B95
:10301800BED0D0F87022002ABAD098472B4A13683D
:1030280003441360D4F8703298472A4A1AE0D0F85B
:103038007032002BACD0D0F87422002AA8D0D0F877
:103048007C22002AA4D0D0F88022002ADAD19FE777
:10305800D0F86C32002B9BD0D0F87822002A97D079
:1030680098471A4A1368034413602B6801332B608E
:103078008EE7D0F87032002B8AD0D0F87C22002A54
:10308800D2D185E7D0F87432002B81D0D0F88022D5
:10309800002AA1D17CE70D4E0D493268B2FBF3F24C
:1030A800C0F828240B480268B2FBF3F2C4F82C24B9
:1030B8000A68B2FBF3F200230360C4F830243360DB
:1030C8000B602B60012064E7080C0020040C002032
:1030D800FC0B0020000C0020F8B504462DED048BF5
:1030E800B0EE408AFFF7FEF9D4ED927A94EDB30A78
:1030F8009FED259ADFED259A30EE670AFFF7CEF9A6
:1031080039EE488AF0EE408A94ED930A38EE000AC8
:10311800FFF7C4F91AA7D7E90067B0EE408A6FF045
:10312800070507EE905AF8EEE77AB0EE687A77EE80
:10313800A77AD4ED946AA7EEA97AD4ED957A86EEAB
:10314800A70AF0EE490A20EE070AFDF785F8FFF70F
:10315800A5F930EE480AF0EEC07A17EE900AFDF7AE
:10316800D1FC32463B46FDF797FF20B1C4F85852D0
:10317800BDEC048BF8BD0135092DD2D1F8E700BFAD
:103188009A9999999999A93FDB0FC940DB0F494052
:10319800DFED067A064B20EE270A1A68BCEEC00A55
:1031A80010EE103A9BB25363704700BF00D08445BD
:1031B800AC0B0020DFED067A064B20EE270A1A68D2
:1031C800BCEEC00A10EE103A9BB29363704700BF82
:1031D80000D08445AC0B0020DFED067A064B20EECC
:1031E800270A1A68BCEEC00A10EE103A9BB2D363E5
:1031F800704700BF00D08445AC0B0020431A07EE8F
:10320800903A9FED077AF8EEE77A67EE877AB3EEA1
:10321800047A87EE870ADFED037A80EE270A704783
:103228005940533A6F12033BFFF7E8BFFFF7E6BF79
:1032380007EE900A9FED057A9FED050AF8EE677A8A
:1032480067EE877A27EE800A704700BFDB0FC94018
:103258000000003500000000174B41681B689FED17
:10326800177A5B6A9AB25B1A9BB207EE903AF8EE4D
:10327800677A10B567EE877A9FED117A4260F4EEAF
:10328800C77AF1EE10FA044602600CD417EE900AE1
:10329800FDF738FCC4E90201D4E90201FDF762FF39
:1032A80000EE100A10BD02A1D1E90001F2E700BF4B
:1032B800000000A0F7C6B03E600B0020D5DAEC3560
:1032C8005F7089300148092101F078BE6409002047
:1032D800024840F20F1101F071BE00BF64090020DE
:1032E800024840F2152101F069BE00BF64090020C0
:1032F800024B0121186800F057B900BFD80400201C
:1033080002F0C0B900000000F8B54FF48F6204461F
:103318000021FEF75DF95E4BC4F860325D4BC4F8DE
:1033280064325D4BC4F868325C4BC4F86C325C4B59
:10333800C4F870325B4BC4F874325B4BC4F8783213
:103348005A4BC4F87C325A4BC4F88032594BC4F8F3
:103358008C32594BC4F89032584BC4F8843200224E
:10336800574BA260C4F88832E26001230E22236022
:10337800A261E361534AC4F84422032342A1D1E97C
:103388000001514A23624FF48873C4F85C32E26248
:103398004E4B4F4AA3622263C4F850324D4A4E4BFB
:1033A800C4F84822C4E904014FF07C554B49E26354
:1033B800C4F854324A4A4B4BC4F84C122264656331
:1033C800A363494BC4F8E432484BC4F81033C4F83B
:1033D8001C33C4F84C33C4F85833454B454A464867
:1033E800464E474FDFF820E1DFF820C1C4F88433A8
:1033F8004FF6FF71C4F89033C4F88033C4F88C33A7
:10340800C4F8C033C4F8CC33C4F8BC33C4F8C833E8
:103418003C4BC4F85812C4F80C23C4F81823C4F859
:103428000863C4F81423C4F82073C4F82453C4F8F8
:103438004823C4F85423C4F84463C4F85023C4F898
:103448005CE3C4F860C3C4F88803C4F89403C4F800
:1034580098E3C4F89CC3C4F8C403C4F8D003C4F800
:10346800D473C4F8D83304F20443C4F8F8631A6078
:1034780004F587631D60C4F82814C4F82C14C4F834
:103488003014F8BDAFF3008000000040E17A843FBB
:1034980099310008BD310008E1310008CD3200083B
:1034A800D9320008E9320008053200083132000834
:1034B800353200080933000861320008F932000883
:1034C80039320008CDCC2C410000C0410000A04199
:1034D8006F12833AD3DEBE40000098416440C64074
:1034E80073634640606B4E3F6666A2410000C8C2E7
:1034F800000040410000C842000040C100002041D7
:10350800CDCCCC3D0AD7233C53AE703DF971664211
:10351800704710B52020FEF74BF8044618B120225A
:103528000021FEF755F8204610BD000020B111B962
:10353800024B036070470160704700BF19350008EF
:1035480000B14160704700B18160704700B1C1604F
:103558007047F7B5044600260368ADF804600120FB
:103568008DF806600F469847237E6776032565F336
:1035780007132376304623689847E36804F1180058
:103588004BB12A4601A998472368012098479DF81E
:10359800060003B0F0BD636829469847A36829462A
:1035A80001A89847F0E700007FB50025044600957C
:1035B800ADF804500295ADF80C50C9B1012932D0CC
:1035C800637F002B64D03A4A9DF800309DF80100D3
:1035D800D35C9DF80310217443409DF80200D35C2E
:1035E8004340D35C8B4251D00020607404B070BD5E
:1035F8000321FFF7AEFF04218DF800002046FFF7F6
:10360800A8FF05218DF801002046FFF7A2FF637F80
:103618008DF80200002BD3D006212046FFF799FF32
:103628008DF80300CCE7427F002A026808460CBFE9
:10363800052606269047238B03F00F0343F468738F
:103648002383ADF80830284623689847E368A3B178
:103658003246694602A89847236801209847032202
:103668000DF102016846FDF767FE637F002BA7D0C6
:103678009DF805308DF80330A2E76368314602A84B
:103688009847A368314668469847E5E7012363747D
:103698009DF802309DF8010003F0070222779DF89B
:1036A8000020400140EA423040EAD3009EE700BFD4
:1036B800BB8300080A460A230146014803F0D4BE2A
:1036C800980A00200A460A230146014803F0D3BCA1
:1036D800980A002013B513464FF6FF7200920A4667
:1036E8000146094803F08DFD60B901F0C5FF0446A5
:1036F800054803F06EFF012804D001F0BDFF001B50
:103708000128F5D902B010BD980A00200128024608
:103718004FF48051024818BF002202F0E7BE00BFF4
:103728000004004810B5FFF7F4FE09490446FFF706
:10373800FDFE20460749FFF709FF20460649FFF727
:10374800FFFE20460549FFF7FEFE204610BD00BFDC
:1037580015370008DD360008CD360008BD360008EC
:1037680007B513464FF6FF7200920A460146034812
:1037780003F047FD03B05DF804FB00BF340A0020E6
:10378800024628B94FF400414FF0904002F0AEBE17
:103798000122F7E7024B8360024BC360704700BF0A
:1037A800693700088937000813B5044683230020C9
:1037B800ADF800008DF80200ADF804008DF80600A1
:1037C8008DF80030E3689847A368032201A968468A
:1037D8009847E368012098479DF806309DF8052032
:1037E80003F0FC0343EA02239B0807EE903AB8EE85
:1037F800670ADFED067A238020EE270ADFED047AD8
:1038080020EE270A84ED010A02B010BDDB0FC94083
:1038180000008038CB78DFED355A30B58C784D799B
:103828001A0942EA04141B020A7903F47063134369
:1038380007EE103A8B791A0942EA05121B02CD7974
:1038480003F470632B4307EE903A0B885BBA9BB284
:1038580006EE903AF8EEE66AB3EE096A66EE866A14
:10386800B8EEC77A86EEA56AF2EE096A76EE666A5F
:103878009FED1F6AC0ED026A06EE904AF8EEE66A0E
:10388800F8EEE77A66EE866A9FED1A6AC6EE865A01
:10389800DFED196A75EEE66ADFED185AC0ED046AC5
:1038A800DFED176A27EE267AC7EE066A36EEA57AA6
:1038B800F1EE046A80ED077A07EE102AB8EEC77AAF
:1038C80027EE267AC7EE066A36EEA57A80ED087AE4
:1038D8009FED0C7A67EE877A87EE867ADFED0A7AB3
:1038E80077EE677AC0ED067A30BD00BF00FF7F47EC
:1038F8000000B44200F07F450000344200000000A0
:103908000000FA4300009643000016430000000040
:103918002DE9F047DFED5A7A9FED5A7A2DED048BA9
:1039280070EEA70A9FED589A60EE890A0446C0EE29
:10393800877A406A9FED557AFDEEE77A11EE90AAF4
:1039480017EE909ADFED527A31EE271A12EE108AAE
:1039580021EE091AF0EE408AC1EE077AFDEEE77A09
:1039680017EE905AFDF7CEF841A3D3E90023FDF7EF
:1039780021F9064650460F46FDF7C4F83EA3D3E9A1
:103988000023FDF717F902460B4630463946FCF787
:103998005BFFFDF7E7FB08EE100AA06AFDF7B2F837
:1039A80033A3D3E90023FDF705F9064640460F4641
:1039B800FDF7A8F830A3D3E90023FDF7FBF802468A
:1039C8000B4630463946FCF73FFFFDF7CBFB9FED32
:1039D800316A84ED098A38EE068ADFED2F6A84F8A9
:1039E800305028EE098A07EE900A88EE267AA062FF
:1039F8002A4877EE867ABDEEC77A67EE897A17EE9F
:103A0800101A87EEA67AFDEEC77AB3EE097A17EE9A
:103A1800902AF2EE097A78EEA78ADFED217A84F807
:103A2800332068EEA78AC8EE877AFDEEE77A17EEAC
:103A3800903A5BBAA3854FEA291384F82E302B12EB
:103A480003EB091384F82F300B1184F8313013126B
:103A580043EA011384F83230BDEC048B04F12C02E4
:103A680004F13C01BDE8F04702F06ABFAFF3008003
:103A78004C37894160E5D83F5A643BDF4F8DE33FBF
:103A8800000034420000B44200F07F450000964335
:103A980000001643000020420000A042D009002088
:103AA80000FF7F470023C3610362436083600361B3
:103AB800C360836143617047DFB504463449002021
:103AC80000F076FE226E3349002000F071FEA068F7
:103AD800FDF718F80B46304902460020CDE90201EF
:103AE8002E490020CDE900012D49002000F060FE9C
:103AF8002069FDF707F80B462A4902460020CDE960
:103B0800020129490020CDE900012849002000F0E0
:103B18004FFEE069FCF7F6FF0B46254902460026F2
:103B280000270020CDE90201CDE9006721490020E6
:103B380000F03EFE206AFCF7E5FF0B461E490246F0
:103B48000020CDE90201CDE900671C49002000F002
:103B58002FFEA069FCF7D6FF02460B460AA1D1E961
:103B68000001CDE9020116490020CDE900011549FF
:103B7800002000F01DFE1449002004B0BDE8D0402C
:103B880000F016BEAFF300800000000000C06240E5
:103B98004C8200087F82000800002940000029C0EC
:103BA8009582000800804640008046C0C282000816
:103BB80000407F40EF820008000014401C8300088A
:103BC80000C062C0498300087683000810B500234E
:103BD80088B0CDE902330223044604930F2201235F
:103BE8001748059302A9CDE9063202F04FFE08B145
:103BF800FDF7DEFD01221248114602F087FF08B1E9
:103C0800FDF7D6FD002302220D480093114602F06D
:103C180065FE08B1FDF7CCFD08220123A26400224D
:103C2800C4E91422C4E9102206482370E265E3635C
:103C3800E264A2654FF4007102F058FC08B010BDB0
:103C4800D0090020000400481FB5C00060F07F00C4
:103C58004FF0000360F30F2300220F48ADF80C303B
:103C6800012102F043FC4FF6FF7300930DF10E02A1
:103C7800012303A9094803F0C4FA012211460648A2
:103C880002F034FC012001F0FDFCBDF80E00C0F389
:103C98000A0005B05DF804FB00040048FC0A002097
:103CA80030B5C1F30A0385B043EAC02305460C4684
:103CB800ADF80C300E480022012102F017FC4FF637
:103CC800FF7300930DF10E02012303A9094803F0C5
:103CD80098FA01221146064802F008FC012001F07A
:103CE800D1FC2846FFF7B0FF8442E3D105B030BDD0
:103CF80000040048FC0A002070B50220FFF7A4FF6A
:103D0800464C474DE0810620FFF79EFF6080072064
:103D1800FFF79AFF20800320FFF796FF20810420F9
:103D2800FFF792FFE0800520FFF78EFFA0800020BC
:103D3800FFF78AFF60810120FFF786FF2A78A37BBF
:103D4800A08162F34613A373E189364E0220FFF780
:103D5800A7FF2B7A697A03F00F0301F00F0141EAFC
:103D68000311AB7A03F0070341EA032123893340A7
:103D780019432181032089B2FFF792FF2B7BE97A4F
:103D880003F00F0301F00F0141EA03116B7B03F00D
:103D9800030341EA0321AB7B03F0010341EA8321DA
:103DA800E38833401943E180042089B2FFF778FFA4
:103DB8006B79297903F0030301F00F0141EA03113C
:103DC800AB7903F0030341EA8311EB7903F00303B2
:103DD80041EA0321A3886FF309031943A180052051
:103DE80089B2FFF75DFFAB78697803F0030301F050
:103DF800030141EA8311EB7803F0010341EA43210F
:103E0800638823F4307323F0030319436180062089
:103E1800BDE8704089B2FFF743BF00BF440C0020E3
:103E28005000002000F8FFFF08B500224021134889
:103E380002F05CFB642001F025FC012240210F48C0
:103E480002F054FB642001F01DFC002280210B4885
:103E580002F04CFBC82001F015FCFFF74DFF0748A6
:103E68000122802102F042FB04480122402102F095
:103E78003DFBBDE80840C82001F004BC0004004830
:103E88007FB500220223CDE902230591049002F0B8
:103E9800E9F801A902A802F0EDF902F0F5F807B077
:103EA8005DF804FB0B46920001461846FDF7AAB9D7
:103EB80000F1774303F57C03B3F5006F24D3A0F139
:103EC8000823A3F58023B3F5006F1FD300F17840D2
:103ED800A0F58223B3F5006F1AD3A0F58323B3F5B9
:103EE800006F17D3A0F58423B3F5006F14D3A0F5A2
:103EF8008523B3F5006F11D3A0F58620B0F5006FC8
:103F0800074828BF00207047064870470648704792
:103F18000648704706487047064870470648704785
:103F280000380408000804080010040800180408F1
:103F38000020040800280408003004082DE9F8438C
:103F480004461C4F1C4DDFF874908846164602F054
:103F580089F820463C60FFF7ABFFC5F80080DFF822
:103F68006080C9F800000023C8F80030D9F8003094
:103F7800A34214D32B682146D3E90023002002F082
:103F8800B7F888B92B683C6808332B60D8F800303C
:103F980001330834B3423C60C8F80030E6D102F07F
:103FA80073F80020BDE8F88302F06EF84FF0FF3098
:103FB800F8E700BF600C0020580C00205C0C0020C3
:103FC800540C002070B504460D4616460121002009
:103FD800FFF756FF324629462046BDE87040FFF7F6
:103FE800ADBF00230622C0E9002300238360704789
:103FF8000369C26893429CBF81685B18013B981AA9
:1040080070472DE9F041D0E902840546A8EB040683
:104018004068964220440F46144406D9FDF7F2F84A
:10402800BFF35F8FEC60BDE8F0813246A4EB080473
:10403800FDF7E8F868682246B919EFE72DE9F84373
:10404800C5680646894617464FF000083369B468C4
:1040580070689D4228BF1B19641BBC4203F1FF33E3
:1040680028BF3C465B1B9C4228BF1C46494622464B
:104078002844FDF7C7F8B3682544A044A1443F1B72
:10408800AB4208BF0025BFF35F8FF560002FDDD17D
:104098004046BDE8F883000008B5144BA82200216B
:1040A8001846FDF795FA0322026111494261114A47
:1040B8008161C2614FF480620262002282624262C0
:1040C800C26201660C494166102181660346026797
:1040D800C2664267BFF35F8F084911F8010D985413
:1040E8000132102AF9D1BFF35F8F08BD7810002084
:1040F800AB830008750C0020650C0020CB840008F9
:10410800F8B5144B182700FB07751D4407FB00334F
:104118000E46DB6A012B14460AD0022B14D023B9B1
:104128002846FFF765FF844208D900242046F8BDD9
:104138002846FFF75DFF844228BF044622463146E1
:104148002846FFF75EFFF1E72846BDE8F840FFF78D
:1041580075BF00BF78100020F8B50B4B1B78532BA8
:1041680004460D46164601D0FFF796FFEFF3118778
:104178004FF0200181F31188324629462046FFF787
:10418800BFFF87F31188F8BD78100020FFF784BFC0
:1041980073B51C4D2B78532B044601D0FFF77CFFD9
:1041A800FF230F2C8DF8043029D8174B1B5D8DF891
:1041B8000530EFF311864FF0200181F31188EA6A88
:1041C80002F00302022A0AD1104B11481C7001A9FF
:1041D800FFF734FF002086F3118802B070BD0C4849
:1041E800FFF706FF012807D9084B09481C7002226F
:1041F80001A9FFF706FFEDE74FF0FF30EBE74FF0BF
:10420800FF30EAE778100020CC840008640C002016
:1042180090100020826810B504464068531C834201
:1042280006D820688154E268A3600132E2601A4629
:10423800636893420BD121682069FFF78DFFA3685B
:10424800984215BF4FF0FF330023E360A36010BD11
:104258002DE9F84F9946DDE90A4317460646884690
:104268000A464FF0010ABA4212D2CA4538BFCA46B6
:1042780013F0010B01D184B90024F368002B3EDB55
:104288000125B9F1010F20D909F1FF397D43F8E77C
:104298000AF1010AB2FBF7F2E5E79B0712D5B9F17B
:1042A800000F0CBF30252025A245E6D2294630460E
:1042B800FFF7B0FFF368002B04F1FF34DDDB002CBF
:1042C800F2D1D9E72025EFE77D43B8FBF5F39F420C
:1042D800FAD9DFF84C90B8FBF5F3304619F803101B
:1042E80005FB1388FFF796FFF368002B03DBB5FB8C
:1042F800F7F3BD4205D2BBF1000F00D064B9BDE8A9
:10430800F88F1D46E7E720213046FFF783FFF36863
:10431800002B04F1FF34F2DB5445F4D8EFE700BF7B
:10432800DC8400082DE9F04FADB01CAB0F930024DE
:10433800402308900E46914610931390254616F890
:10434800011B002900F02482252940F019823246F9
:104358004FF00008114611F8013B2D2B17D011D84A
:10436800232B1BD02B2B16D00026039212F8013BCF
:10437800A3F13001092914D80A2101FB0633A3F15E
:104388003006F2E7302BEFD148F0020801E048F0A0
:1043980001080A46DEE748F00408FAE748F008088A
:1043A800F7E72E2B2CD1039B5B782A2B12D0039A8C
:1043B80000270132BA460A21039212F8013BA3F101
:1043C8003000092811D801FB0733A3F130074FF05B
:1043D800010AF1E7039B02330393D9F800301A1D51
:1043E8001F68C9F800204FF0010A039B197801F0F3
:1043F800FB03682B07D1039B13F8011F0393F6E710
:104408000027BA46F1E7662900F0F18051D8632900
:104418006AD008D8252900F0B081582900F0AB806F
:10442800039E01368BE76429FAD1D9F80030D3F816
:1044380000B01A1D8BEAEB73C9F80020A3EBEB73ED
:104448004FF0010A0A22092B5CDCBA4538BFBA468C
:1044580036B1BBF1000F02DB18F0040F00D0013EAB
:1044680018F0020F00D02FB118F0010F02D10EB1D1
:10447800B2454CD3BBF1000F59DACDE91154CBF159
:10448800000B2D210FA8FFF7C5FEDDE91154002C04
:1044980049DB08F00303022B03D117B90EB15645C7
:1044A8004CD8CDE91154CDE900683B460A2259465B
:1044B8005DE07039CBB2082BB2D80829B0D801A377
:1044C80053F821F0DD450008294400082944000874
:1044D80099450008294400085F4500082944000858
:1044E800294400087F450008D9F80030CDE9115467
:1044F8001A1D1978C9F800200FA8FFF78BFEDDE90F
:10450800115461E00AF1010AB3FBF2F39BE72021A1
:104518000FA8CDE91154FFF77DFEDDE91154002CF9
:1045280006F1FF36A3DA20462DB0BDE8F08F18F06B
:10453800040FAED0CDE911542B21A3E730210FA8E9
:10454800CDE91154FFF766FEDDE91154002C06F1A0
:10455800FF36A3DAE7E7D9F800301A1D1968C9F859
:104568000020CDE91154CDE900683B460A220FA886
:10457800FFF76EFEC3E7D9F800301A1D1968C9F8AD
:104588000020CDE91154CDE900683B461022EEE742
:10459800D9F800301A1DC9F800201E6816B9824ED5
:1045A8004FF0000A16F8011B71B1BAF1000F00D0E4
:1045B80057B10FA8CDE91154FFF72CFEDDE91154CE
:1045C800002C07F1FF37EDDA039E0136002CBFF609
:1045D800B6AEA8E7D9F800301A1D1968C9F8002046
:1045E80008230022CDE91154CDE90032CEE7D9F8ED
:1045F8000030073323F0070393ED007B03F1080233
:10460800002FC9F8002051EC170B4FF000024FF0B3
:10461800000308BF06278DED047BFCF73DFD00284D
:1046280079D02D238DF85030049B0693059B03F118
:10463800004307939DED067B8DED047B0DF1510B37
:10464800DDE90401FCF766FD8246FCF749FA0246FB
:104658000B46DDE90401FCF7F5F8CDE90401BAF1F0
:10466800000F7AD130230BF8013BDA462E230AF8E3
:10467800013B0BEB07030993DDE904014B4B0022D7
:10468800FCF798FA02460B46CDE90423FCF742FDF5
:1046980000F130030BF8013FFCF722FA0B46024603
:1046A800DDE90401FCF7CEF8099B9B45CDE904013F
:1046B800E2D100220AF807200AEB07030DF1500A9D
:1046C800A3EB0A07BE420FD918F0010F0CD1A6EBD5
:1046D800070B20210FA8CDE91154FFF79BFDBBF173
:1046E800010BDDE91154F4D11AF8011B00293CD162
:1046F800BE427FF669AF18F0010F3FF465AFF71BB4
:1047080020210FA8CDE91154FFF784FD013FDDE911
:104718001154F5D158E718F0040F03D02B238DF866
:1047280050308BE70DF1500B8AE79AFBF2F102FB50
:1047380011AA0AF1300A03F801AB8A46BAF1000F50
:10474800F3DC0BF1FF3019460BAA914208D8991AED
:10475800934238BF00218B4487E70BAB0A22EDE771
:1047680011F801CD00F801CFEFE70FA8CDE91154FA
:10477800FFF750FDDDE91154B6E7CDE91154BBE66A
:104788000FA8CDE91154FFF745FDDDE911541DE7E8
:10479800002C3FF4C8AE25B108982A461CA9FFF79B
:1047A800DBFC2C44BFE600BFB483000800002440B3
:1047B8000EB403B503AB01AA53F8041B0193FFF72A
:1047C800B1FD02B05DF804EB03B07047DFED1D7A70
:1047D8009FED1D7A1D4A20EE270AFDEEC07AB5EE40
:1047E800C00A17EE903AF1EE10FA48BF03F1FF3312
:1047F80007EE903AF8EEE77A30EE670A20EE070AFD
:10480800FCEEC07A17EE903A9BB2B3F5007F28BF52
:10481800002307EE903A28BF30EE470AF8EE677A91
:1048280002EB830130EE670A91ED017AF7EE007A28
:1048380077EEC07A20EE070A91ED007AA7EE870A94
:10484800704700BF83F9223E00000044EC84000852
:104858009FED1E7A1E4AF5EE007AE0EE077ABDEE6D
:10486800E77AF5EEC07A17EE103AF1EE10FA48BF83
:1048780003F1FF3307EE103AB8EEC77A37EEC70AEE
:104888009FED147A20EE070AFCEEC07A17EE903AF4
:104898009BB2B3F5007F28BF002307EE903A28BFEC
:1048A80030EE470AF8EE677A02EB830130EE670ACA
:1048B80091ED017AF7EE007A77EEC07A20EE070ADA
:1048C80091ED007AA7EE870A704700BF83F9223E70
:1048D800EC84000800000044034AD2F8883043F40E
:1048E8007003C2F88830704700ED00E0806800F07F
:1048F800010070478068C0F38000704737B5002317
:1049080001930446002800F0F080C56D25B9FDF735
:1049180099F8256684F8585023689A68950041BF2D
:104928009A6822F0204222F03F029A609A68D000EA
:1049380032D59A68D10045D4E26D42F01002E265A2
:10494800226E42F00102226601211846FFF7D2FFCB
:10495800E26D02F01002024340F0C380E26D22F4DF
:10496800817242F00202E2651846FFF7BFFF002895
:104978003FD1B3F1A04F02D05D4A934224D14FF00A
:10498800A040FFF7B3FF02465948FFF7AFFF0243C5
:10499800012A2ED0574826E09A68574922F010423B
:1049A80022F03F0242F080529A60544A1268B2FBE9
:1049B800F1F2013252000192019A002AB9D0019A0B
:1049C800013AF8E70021C0E74D48FFF78FFF02469C
:1049D8004C48FFF78BFF02434B48FFF787FF024322
:1049E800012A06D049488268656822F47C122A4365
:1049F8008260E568E26B94F824002A43A5682A439C
:104A0800657F012842EA453242EA004202BFA06AB5
:104A180000F1FF3042EA4042E06A20B1256B00F421
:104A2800787028430243DD68394828401043D8602D
:104A38001A69606B22F0406202431A619A68120791
:104A48002CD4D86894F83820257F520020F4804070
:104A580042EA853220F0020002432569DA602D48D7
:104A68001A69002D32D042F480321A61D3F8C0207E
:104A780002402A43C3F8C02094F84020012A2CD1D0
:104A8800D4E9112518692A436FF38A000243E06CC0
:104A98000243206D024342F001021A616269012A51
:104AA80005BF186B226A1A6B02F1FF3206BF20F0AD
:104AB8000F00024322F00F021A63E36D23F0030391
:104AC80043F00103E365084603B030BD22F48032A9
:104AD8001A61D3F8C0200240CCE71A6922F001021B
:104AE800DBE7E36D43F01003E3650121EBE700BF6B
:104AF8000001005000030050400D0300600000203A
:104B08000004005000050050000600500007005047
:104B18000740F0FF00C0FFFF704770477047000074
:104B28000268B2F1A04FF8B516685568044600F05F
:104B38000D819148914B9249824218BF0B469F685C
:104B4800B00707F01F070ED5A9070CD5E36DDA06E5
:104B58005EBFE36D43F40063E365204600F04BFA63
:104B6800236802221A60730701D5680703D4310746
:104B78003DD52A073BD5E36DDB065EBFE36D43F405
:104B88000073E3652368DA6812F4406F29D17A4A22
:104B9800934200F0DD8002F58062934206D17949A4
:104BA80040F22122FA40D00740F1D580DA6891041A
:104BB80017D41A68120714D51846FFF79BFE002869
:104BC80040F0CB805A6822F00C025A60E36D23F45F
:104BD8008073E365E36DD80403D4E36D43F0010308
:104BE800E3652046FFF798FF23680C221A60B10698
:104BF80001D5AA0603D4730643D5680641D5E36DEB
:104C08005D4AD9065EBFE36D43F40053E36523684C
:104C1800D96CD868934201F4C07100F0A78002F5FE
:104C28008062934240F0A580DFF858C1C122FA4063
:104C3800D20700F19E80DCF80C20E1B9910105D57E
:104C480002F4005100F44060014314D11968490688
:104C580011D592020FD49A68100700F195805A680E
:104C680022F060025A60E36D23F48053E365E36D3C
:104C7800D90540F19280204600F0B9F923686022F6
:104C88001A6032060BD52B0609D5E36D43F4803341
:104C9800E3652046FFF741FF236880221A60F0058C
:104CA8000CD5E9050AD5E36D43F40033E3652046E6
:104CB80000F09FF923684FF480721A60B2050CD592
:104CC800AB050AD5E36D43F48023E365204600F085
:104CD80091F923684FF400721A60F00621D5E906AD
:104CE8001FD5E36B7BB12268002F5DD0B2F1A04FD6
:104CF80058D02148214B2249824218BF0B469B6855
:104D080013F4604F0AD0E36D43F48063E365236EC8
:104D180043F0020323662046FFF700FF23681022B2
:104D28001A60720544D56B0542D5E36D43F48043A0
:104D3800E365236E43F00803236623684FF480621B
:104D48001A602046BDE8F84000F052B90B4BF6E671
:104D58004FF0A04124E7CA6829E7E36D43F0100348
:104D6800E365236E43F0010323663AE74FF0A04C56
:104D78005CE7DA6861E700BF0001005000030050FB
:104D88000007005000040050E36D43F01003E36592
:104D9800236E43F0010323666DE7E36D43F00103DF
:104DA800E36568E7034BAAE7D36813F0010FA9E7A7
:104DB800F8BD00BF0003005073B502680446002325
:104DC80010460193FFF792FD10B1002002B070BDAC
:104DD8009168264B194209D0E36D43F01003E3654F
:104DE800236E43F0010323660120EFE7936823F065
:104DF800004323F03F0343F00103B2F1A04F936057
:104E080023D01B481B4B1C49824218BF0B469B688A
:104E180019021CD400F030FC184D064622681368AD
:104E2800DB07D2D41046FFF761FD20B993682B4009
:104E380043F00103936000F01FFC801B0228EDD9AA
:104E480023681B68DA07E9D4C6E70A4BDFE70C4B8F
:104E58001A680C4BB2FBF3F20C2302FB03330193E9
:104E6800019B002BD6D0019B013BF8E73F00008057
:104E7800000100500003005000070050C0FFFF7FF2
:104E880060000020400D030030B5CC0D04F0040490
:104E98001430C1F30451035907258D4023EA050353
:104EA8008A401343035130BD806800F00100704709
:104EB8008068C0F3800070478068C0F3C000704706
:104EC80038B50368B3F1A04F044618D03848394ABA
:104ED8003949834218BF0A4618469568FFF7ECFF20
:104EE800002862D1DA68DB6C13F4C07F09D1002A8C
:104EF80007DBE36D43F02003E365012038BD2D4A4D
:104F0800EAE794F85830012B4FD0012384F8583041
:104F18002046FFF751FF002843D1E36D2449DB0504
:104F280049BF236E206623F008032366E36D23F44C
:104F3800405323F0010343F48053E36523688B4215
:104F480005F01F021CD001F580618B421BD1A1F531
:104F580080711AB9E56D25F48015E56560251D6039
:104F68008B424FF0000584F858500ED0C12121FA29
:104F780002F2D10709D4E36D43F48013E365BDE77A
:104F88004FF0A041E5E71946E4E7DA689201B5D4A5
:104F98009A6822F0004222F03F0242F008029A602A
:104FA800ACE7002384F85830A8E70220A6E700BF42
:104FB80000010050000300500007005040F2152285
:104FC800914203680DD040F21B32914206D040F264
:104FD8000F12914208D0D3F880007047D3F88C00A4
:104FE8007047D3F888007047D3F88400704770473B
:104FF8007047704770477047F7B590F858300022EF
:10500800012B07460D46019200F05082012380F8DB
:10501800583043693C68486813B1096A012946D188
:10502800092816D12B68AA6A5B0C03F4785322B1BD
:10503800E96A02F07C020A431343E26C22F07B42E5
:1050480022F46F0222F43F4222F0FF021A43E26484
:105058007B662046FFF730FF78B995F8263095F83B
:1050680025205B05002A49D195F82410E26843EA17
:10507800015322F440121343E3602046FFF718FF60
:1050880003462046FFF718FF034340F03481AB6A1C
:1050980095F8256013B1EB6A002B31D1012EE36836
:1050A80040F0C08043F00073E36000262FE0BB6E41
:1050B80013BB7B66AB6A4A1E23B103F07C03134320
:1050C800EA6A1A432B6800F01F00C3F38463834025
:1050D800786E034301391343B9667B660029B8D15A
:1050E800E26C22F07B4222F46F0222F43F4222F06B
:1050F800FF021343E364ACE71946E3E7E268B8E765
:10510800012E40F08E80FB6D43F02003FB6595F87F
:105118003030012B05BFD5E90D31226923690B43D6
:1051280003BF22F4FF72134343F0020323F0020388
:105138002361AA682968B2F1004F76D1002220467F
:10514800FFF7A2FE636943F000436361D5F810C01E
:10515800E0682B68BCF1040F04F160026CD0696947
:1051680052F82CE0C0F3C10040008140B74803F07A
:10517800F8430EEA00001843014341F0004142F8A9
:105188002C102969A86952F8213023F08073034351
:1051980042F82130297F286901F1FF3C52F820307C
:1051A800DCF1000141EB0C0123F0007343EA416399
:1051B80042F820302046FFF777FE002840F0CE80E6
:1051C800D5F80CC02B68A24AD4F8B0100CF0180E11
:1051D800C3F3120022FA0EF21A4021EA00010A4330
:1051E800C4F8B0209B4A944540F0B880002840F0AD
:1051F80084809A0E013202F01F01012009294FEA2A
:10520800826201FA00F340F29E80884002F0F84280
:10521800194402431E39090541F0007343EA0201AB
:1052280098E0E36823F000733EE72046FFF72CFE82
:10523800636923F0004388E7216E216EC3F31200EF
:10524800C1F38461002839D1C3F38463994202BF52
:10525800236E23F000432366636E2B68616EC3F3ED
:105268001200C1F3846100282FD1C3F384639942EB
:1052780002BF636E23F00043636693682B689168EE
:10528800C3F31200C1F3846130BBC3F38463994252
:1052980002BF936823F000439360D3682B68D168FA
:1052A800C3F31200C1F38461E8B9C3F3846399427C
:1052B80080D1D36823F00043D3607BE793FAA3F34C
:1052C800002BC9D0B3FA83F3C0E793FAA3F3002BFA
:1052D800D3D0B3FA83F3CAE793FAA3F3002BDCD055
:1052E800B3FA83F3D3E793FAA3F3002B3FF462AF47
:1052F800B3FA83F3DBE700265CE793FAA3F232B153
:10530800B2FA82F2013202F01F02092A5DD893FA3A
:10531800A3F1B1FA81F10131890601F0F84193FA5C
:10532800A3F0B0FA80F0013000F01F0001228240A3
:105338000A4393FAA3F1B1FA81F1013101F01F0197
:1053480001EB410104E0884002F0F84202431944AD
:1053580009051143AA682046FFF796FD2A683E4BC7
:105368001A422CD0B4F1A04F4DD03C483C4B3D499B
:10537800844218BF0B463C489B68824203F0E071A8
:1053880002D03A48824245D1180218D4B4F1A04F4D
:105398003BD0374B9C4212D1324A936823F0E073DA
:1053A8000B4343F400039360324B334A1B68B3FB4F
:1053B800F2F30C22534318330193019B3BBB0023A8
:1053C80087F85830304603B0F0BD93FAA3F1B1FA2C
:1053D80081F10131890601F0F84193FAA3F0B0FA9E
:1053E80080F0013000F01F00012282400A4393FA46
:1053F800A3F3B3FA83F3013303F01F0303EB43036F
:10540800A3F11E0107E7164BB5E7154AC5E7019B4F
:10541800013BD1E71948824232D1DA01CFD40F4B90
:105428009C42CCD003F580639C42C8D00D4AA3F5BA
:105438000073B4F1A04F08BF1A46936823F0E073D5
:105448000B4343F080739360B9E700BF00F0FF039C
:10545800FFFF070000007F400000088000010050A7
:105468000003005000070050000021C31000C09046
:105478000006005060000020400D0300000052C7E5
:105488000B4882429BD15B0299D40A4B9C4296D02E
:10549800094A03F50073B4F1A04F08BF1A46936890
:1054A80023F0E0730B4343F48003CCE7022689E73B
:1054B800000084CB0001005000070050F0B590F8C0
:1054C8005830012B9DB0024600F0868013680024F6
:1054D8000120B3F1A04F189482F8580019940AD00B
:1054E8003E4DAB4240D0D36D82F8584043F0200384
:1054F800D3651DB0F0BD3A48FFF7DAFC04461846FC
:10550800FFF7D6FC204361D1364C37480D68B3F11C
:10551800A04F18BF04469DB3A66892F83870486833
:1055280026F4604640EA47303043B3F1A04FA0600C
:105538001CD11846FFF7B8FC03462948FFF7B4FC0E
:10554800034383F0010303F0010343B1A3688968AF
:1055580023F471630D4323F00F031D43A56000205E
:10556800002382F85830C4E72048C5E71B48FFF7F6
:105578009BFC03461D48FFF797FC03431C48DDE7E7
:10558800A168B3F1A04F21F46041A16014D118467D
:10559800FFF78AFC03461248FFF786FC034383F0B3
:1055A800010303F00103002BD9D0A36823F471632E
:1055B80023F00F03A360D2E70848FFF775FC034602
:1055C8000A48FFF771FC03430948E5E7D36D43F048
:1055D8002003D3650120C3E702208AE700040050B6
:1055E8000001005000030050000700500005005063
:1055F8000006005038B50F4B1A6805460AB9012055
:1056080038BD4FF47A73B3FBF2F30B4A1068B0FB62
:10561800F3F001F02BF804460028F0D10F2DEED856
:10562800024629464FF0FF3000F0E0FF034B2046CA
:105638001D60E5E76400002060000020680000208D
:1056480010B5032000F0C0FF0F20FFF7D3FF04467A
:1056580018B9FCF777FE204610BD0124FBE70000CF
:10566800034A0449136809680B441360704700BF74
:105678002011002064000020014B1868704700BF0B
:105688002011002038B50446FFF7F6FF631C1CBF45
:10569800054B1B68054618BFE418FFF7EDFF431BD1
:1056A800A342FAD338BD00BF640000202DE9F341BE
:1056B800044618B9012002B0BDE8F0810368D90793
:1056C80014D423689A0758D42368190700F1A180D5
:1056D80023685A0700F1C88023689A0600F12F81D1
:1056E800E369002B40F05C810020E4E79F4DAB6844
:1056F800EA6803F00C030C2B0AD102F00303032B16
:1057080008D12B689B03DCD56368002BD9D1D1E77E
:10571800082BF5E76368B3F5803F10D12B6843F495
:1057280080332B60FFF7A8FF06462B689F03C8D479
:10573800FFF7A2FF801B6428F7D90320BBE7B3F566
:10574800A02F04D12B6843F480232B60E6E72A6856
:1057580022F480322A602A6822F480222A60002BF0
:10576800E0D1FFF789FF06462B689903A9D5FFF713
:1057780083FF801B6428F7D9DFE77C4DAB68EA68B4
:1057880003F00C030C2B17D102F00303022B15D1E5
:105798002B685A0502D5E368002B8BD06B68226909
:1057A80023F0FE4343EA02636B60714B1868FFF70E
:1057B80021FF002888D07DE7042BE8E7E368BBB128
:1057C8002B6843F480732B60FFF756FF06462B685F
:1057D8005B0507D56B68226923F0FE4343EA026341
:1057E8006B6071E7FFF748FF801B0228EFD9A4E739
:1057F8002B6823F480732B60FFF73EFF06462B6867
:105808005F057FF561AFFFF737FF801B0228F6D9E8
:1058180093E76369554D9BB1D5F8943043F0010384
:10582800C5F89430FFF728FF0646D5F894309B0753
:105838003FF54EAFFFF720FF801B0228F5D97CE724
:10584800D5F8943023F00103C5F89430FFF714FF1E
:105858000646D5F894309F077FF53AAFFFF70CFF5F
:10586800801B0228F5D968E7404DAB6DD80027D4D6
:10587800AB6D43F08053AB65AB6D03F08053019380
:10588800019B01273B4E3368D9051BD5A368012B23
:1058980029D1D5F8903043F00103C5F89030FFF7CF
:1058A800EBFE41F288380646D5F890309B0740D584
:1058B800002F3FF411AFAB6D23F08053AB650BE7BE
:1058C8000027DFE7336843F480733360FFF7D4FEC3
:1058D80080463368DA05D9D4FFF7CEFEA0EB08007E
:1058E8000228F6D929E7052B06D1D5F8903043F0E0
:1058F8000403C5F89030CCE7D5F8902022F00102D7
:10590800C5F89020D5F8902022F00402C5F8902020
:10591800002BC4D1FFF7B0FE41F288380646D5F80F
:1059280090309907C4D5FFF7A7FE801B4045F6D9EC
:1059380003E7FFF7A1FE801B4045B5D9FDE6A36943
:105948000A4DCBB1D5F8983043F00103C5F898302B
:10595800FFF792FE0646D5F898309B073FF5C0AE94
:10596800FFF78AFE801B0228F5D9E6E60010024000
:105978006800002000700040D5F8983023F001033B
:10598800C5F89830FFF778FE0646D5F898309F0797
:105998007FF5A6AEFFF770FE801B0228F5D9CCE68E
:1059A800454DAA6802F00C020C2A51D0022B2B6834
:1059B80023F080732B603AD1FFF75EFE06462B6812
:1059C80099012ED4EA683D4B1340226A1343A26A18
:1059D80043EA0223E26A43EAC263626A013A43EA9B
:1059E8000213226B5208013A43EA4253626B52088F
:1059F800013A43EA4263EB602B6843F080732B6003
:105A0800EB6843F08073EB60FFF736FE04462B68C3
:105A18009A013FF569AEFFF72FFE001B0228F6D961
:105A28008BE6FFF729FE801B0228C8D985E6FFF719
:105A380023FE04462B689B0104D4EA68204B1340DC
:105A4800EB6051E6FFF718FE001B0228F2D974E656
:105A5800012B3FF42FAEEB68226A03F00301914259
:105A68007FF428AE616A03F0F0020139B2EB011F3E
:105A78007FF420AEA16A03F4FE42B2EB012F7FF45B
:105A880019AEE16A03F07842B2EBC16F7FF412AE4F
:105A9800226B520803F4C001013AB1EB425F7FF474
:105AA80009AE626B5208013A03F0C063B3EB426F70
:105AB80014BF01200020FEE5001002400C809F0169
:105AC800FCFFEEFE174B9A6802F00C02042A23D062
